{
  "_format": "hh-sol-artifact-1",
  "contractName": "FSFIPool",
  "sourceName": "contracts/FSFIPool.sol",
  "abi": [
    {
      "inputs": [],
      "name": "InvalidInitialization",
      "type": "error"
    },
    {
      "inputs": [],
      "name": "NotInitializing",
      "type": "error"
    },
    {
      "inputs": [
        {
          "internalType": "uint8",
          "name": "bits",
          "type": "uint8"
        },
        {
          "internalType": "uint256",
          "name": "value",
          "type": "uint256"
        }
      ],
      "name": "SafeCastOverflowedUintDowncast",
      "type": "error"
    },
    {
      "anonymous": false,
      "inputs": [
        {
          "indexed": true,
          "internalType": "address",
          "name": "lender",
          "type": "address"
        },
        {
          "indexed": true,
          "internalType": "address",
          "name": "poolAddress",
          "type": "address"
        },
        {
          "indexed": true,
          "internalType": "contract IERC20Standard",
          "name": "stableCoin",
          "type": "address"
        },
        {
          "indexed": false,
          "internalType": "uint256",
          "name": "amount",
          "type": "uint256"
        },
        {
          "indexed": false,
          "internalType": "uint256",
          "name": "lenderShare",
          "type": "uint256"
        },
        {
          "indexed": false,
          "internalType": "uint256",
          "name": "totalSupply",
          "type": "uint256"
        },
        {
          "indexed": false,
          "internalType": "uint256",
          "name": "totalLiquidity",
          "type": "uint256"
        },
        {
          "indexed": false,
          "internalType": "uint256",
          "name": "remainingPool",
          "type": "uint256"
        }
      ],
      "name": "AddSupply",
      "type": "event"
    },
    {
      "anonymous": false,
      "inputs": [
        {
          "indexed": false,
          "internalType": "uint64",
          "name": "version",
          "type": "uint64"
        }
      ],
      "name": "Initialized",
      "type": "event"
    },
    {
      "anonymous": false,
      "inputs": [
        {
          "indexed": true,
          "internalType": "address",
          "name": "lender",
          "type": "address"
        },
        {
          "indexed": true,
          "internalType": "address",
          "name": "poolAddress",
          "type": "address"
        },
        {
          "indexed": true,
          "internalType": "contract IERC20Standard",
          "name": "stableCoin",
          "type": "address"
        },
        {
          "indexed": false,
          "internalType": "uint256",
          "name": "amount",
          "type": "uint256"
        },
        {
          "indexed": false,
          "internalType": "uint256",
          "name": "lenderShare",
          "type": "uint256"
        },
        {
          "indexed": false,
          "internalType": "uint256",
          "name": "totalSupply",
          "type": "uint256"
        },
        {
          "indexed": false,
          "internalType": "uint256",
          "name": "totalLiquidity",
          "type": "uint256"
        },
        {
          "indexed": false,
          "internalType": "uint256",
          "name": "remainingPool",
          "type": "uint256"
        }
      ],
      "name": "WithdrawSupply",
      "type": "event"
    },
    {
      "inputs": [],
      "name": "FSFI",
      "outputs": [
        {
          "internalType": "address",
          "name": "",
          "type": "address"
        }
      ],
      "stateMutability": "view",
      "type": "function"
    },
    {
      "inputs": [
        {
          "internalType": "address",
          "name": "_user",
          "type": "address"
        }
      ],
      "name": "balanceOf",
      "outputs": [
        {
          "internalType": "uint256",
          "name": "",
          "type": "uint256"
        }
      ],
      "stateMutability": "view",
      "type": "function"
    },
    {
      "inputs": [
        {
          "internalType": "uint256",
          "name": "_loanId",
          "type": "uint256"
        },
        {
          "internalType": "uint256",
          "name": "_amount",
          "type": "uint256"
        },
        {
          "internalType": "address",
          "name": "_borrower",
          "type": "address"
        },
        {
          "internalType": "bool",
          "name": "_isFiat",
          "type": "bool"
        }
      ],
      "name": "borrow",
      "outputs": [],
      "stateMutability": "nonpayable",
      "type": "function"
    },
    {
      "inputs": [],
      "name": "cap",
      "outputs": [
        {
          "internalType": "uint256",
          "name": "",
          "type": "uint256"
        }
      ],
      "stateMutability": "view",
      "type": "function"
    },
    {
      "inputs": [
        {
          "internalType": "uint256",
          "name": "",
          "type": "uint256"
        }
      ],
      "name": "debt",
      "outputs": [
        {
          "internalType": "uint256",
          "name": "",
          "type": "uint256"
        }
      ],
      "stateMutability": "view",
      "type": "function"
    },
    {
      "inputs": [
        {
          "internalType": "address",
          "name": "",
          "type": "address"
        }
      ],
      "name": "depositWithdrawAmount",
      "outputs": [
        {
          "internalType": "uint256",
          "name": "",
          "type": "uint256"
        }
      ],
      "stateMutability": "view",
      "type": "function"
    },
    {
      "inputs": [
        {
          "internalType": "uint256",
          "name": "_amount",
          "type": "uint256"
        }
      ],
      "name": "earnStaking",
      "outputs": [],
      "stateMutability": "nonpayable",
      "type": "function"
    },
    {
      "inputs": [
        {
          "internalType": "uint256",
          "name": "_loanId",
          "type": "uint256"
        }
      ],
      "name": "getCurrentLoan",
      "outputs": [
        {
          "internalType": "uint256",
          "name": "",
          "type": "uint256"
        }
      ],
      "stateMutability": "view",
      "type": "function"
    },
    {
      "inputs": [],
      "name": "getCurrentRate",
      "outputs": [
        {
          "internalType": "uint256",
          "name": "",
          "type": "uint256"
        },
        {
          "internalType": "uint256",
          "name": "",
          "type": "uint256"
        },
        {
          "internalType": "uint256",
          "name": "",
          "type": "uint256"
        },
        {
          "internalType": "uint256",
          "name": "",
          "type": "uint256"
        }
      ],
      "stateMutability": "view",
      "type": "function"
    },
    {
      "inputs": [],
      "name": "getDebtPool",
      "outputs": [
        {
          "internalType": "uint256",
          "name": "amount",
          "type": "uint256"
        }
      ],
      "stateMutability": "view",
      "type": "function"
    },
    {
      "inputs": [
        {
          "internalType": "address",
          "name": "_user",
          "type": "address"
        }
      ],
      "name": "getDepositWithdrawAmount",
      "outputs": [
        {
          "internalType": "uint256",
          "name": "",
          "type": "uint256"
        }
      ],
      "stateMutability": "view",
      "type": "function"
    },
    {
      "inputs": [],
      "name": "getRemainingPool",
      "outputs": [
        {
          "internalType": "uint256",
          "name": "amount",
          "type": "uint256"
        }
      ],
      "stateMutability": "view",
      "type": "function"
    },
    {
      "inputs": [],
      "name": "getTotalSupply",
      "outputs": [
        {
          "internalType": "uint256",
          "name": "",
          "type": "uint256"
        }
      ],
      "stateMutability": "view",
      "type": "function"
    },
    {
      "inputs": [
        {
          "internalType": "contract IERC20Standard",
          "name": "_stableCoinAddress",
          "type": "address"
        },
        {
          "internalType": "address",
          "name": "_interestRateStrategyAddress",
          "type": "address"
        },
        {
          "internalType": "uint256",
          "name": "_cap",
          "type": "uint256"
        }
      ],
      "name": "initialize",
      "outputs": [],
      "stateMutability": "nonpayable",
      "type": "function"
    },
    {
      "inputs": [],
      "name": "isPaused",
      "outputs": [
        {
          "internalType": "bool",
          "name": "",
          "type": "bool"
        }
      ],
      "stateMutability": "view",
      "type": "function"
    },
    {
      "inputs": [
        {
          "internalType": "uint256",
          "name": "",
          "type": "uint256"
        }
      ],
      "name": "lenders",
      "outputs": [
        {
          "internalType": "address",
          "name": "",
          "type": "address"
        }
      ],
      "stateMutability": "view",
      "type": "function"
    },
    {
      "inputs": [
        {
          "internalType": "uint256",
          "name": "_loanId",
          "type": "uint256"
        },
        {
          "internalType": "uint256",
          "name": "_amount",
          "type": "uint256"
        }
      ],
      "name": "liquidatePenalty",
      "outputs": [],
      "stateMutability": "nonpayable",
      "type": "function"
    },
    {
      "inputs": [
        {
          "internalType": "uint256",
          "name": "",
          "type": "uint256"
        }
      ],
      "name": "loans",
      "outputs": [
        {
          "internalType": "uint256",
          "name": "loanId",
          "type": "uint256"
        },
        {
          "internalType": "uint256",
          "name": "amount",
          "type": "uint256"
        },
        {
          "internalType": "bool",
          "name": "isClosed",
          "type": "bool"
        },
        {
          "internalType": "address",
          "name": "borrower",
          "type": "address"
        },
        {
          "internalType": "bool",
          "name": "isLiquidated",
          "type": "bool"
        },
        {
          "internalType": "contract IERC20Standard",
          "name": "stableCoin",
          "type": "address"
        },
        {
          "internalType": "bool",
          "name": "isFinalty",
          "type": "bool"
        },
        {
          "internalType": "bool",
          "name": "isFiat",
          "type": "bool"
        },
        {
          "internalType": "uint256",
          "name": "closedAmount",
          "type": "uint256"
        }
      ],
      "stateMutability": "view",
      "type": "function"
    },
    {
      "inputs": [
        {
          "internalType": "address",
          "name": "",
          "type": "address"
        }
      ],
      "name": "operators",
      "outputs": [
        {
          "internalType": "bool",
          "name": "",
          "type": "bool"
        }
      ],
      "stateMutability": "view",
      "type": "function"
    },
    {
      "inputs": [],
      "name": "remainingPool",
      "outputs": [
        {
          "internalType": "uint256",
          "name": "",
          "type": "uint256"
        }
      ],
      "stateMutability": "view",
      "type": "function"
    },
    {
      "inputs": [
        {
          "internalType": "uint256",
          "name": "_loanId",
          "type": "uint256"
        },
        {
          "internalType": "uint256",
          "name": "_amount",
          "type": "uint256"
        }
      ],
      "name": "repay",
      "outputs": [],
      "stateMutability": "nonpayable",
      "type": "function"
    },
    {
      "inputs": [],
      "name": "reserve",
      "outputs": [
        {
          "internalType": "uint128",
          "name": "liquidityIndex",
          "type": "uint128"
        },
        {
          "internalType": "uint128",
          "name": "currentLiquidityRate",
          "type": "uint128"
        },
        {
          "internalType": "uint128",
          "name": "variableBorrowIndex",
          "type": "uint128"
        },
        {
          "internalType": "uint128",
          "name": "currentVariableBorrowRate",
          "type": "uint128"
        },
        {
          "internalType": "uint40",
          "name": "lastUpdateTimestamp",
          "type": "uint40"
        },
        {
          "internalType": "uint16",
          "name": "id",
          "type": "uint16"
        },
        {
          "internalType": "address",
          "name": "interestRateStrategyAddress",
          "type": "address"
        }
      ],
      "stateMutability": "view",
      "type": "function"
    },
    {
      "inputs": [
        {
          "internalType": "uint256",
          "name": "_cap",
          "type": "uint256"
        }
      ],
      "name": "setCap",
      "outputs": [],
      "stateMutability": "nonpayable",
      "type": "function"
    },
    {
      "inputs": [
        {
          "internalType": "address",
          "name": "_fsfi",
          "type": "address"
        }
      ],
      "name": "setFSFI",
      "outputs": [],
      "stateMutability": "nonpayable",
      "type": "function"
    },
    {
      "inputs": [
        {
          "internalType": "address[]",
          "name": "_addresses",
          "type": "address[]"
        },
        {
          "internalType": "bool[]",
          "name": "_isActives",
          "type": "bool[]"
        }
      ],
      "name": "setOperators",
      "outputs": [],
      "stateMutability": "nonpayable",
      "type": "function"
    },
    {
      "inputs": [
        {
          "internalType": "bool",
          "name": "_paused",
          "type": "bool"
        }
      ],
      "name": "setPaused",
      "outputs": [],
      "stateMutability": "nonpayable",
      "type": "function"
    },
    {
      "inputs": [
        {
          "internalType": "address",
          "name": "_interestRateStrategyAddress",
          "type": "address"
        }
      ],
      "name": "setReserveInterestRateStrategy",
      "outputs": [],
      "stateMutability": "nonpayable",
      "type": "function"
    },
    {
      "inputs": [
        {
          "internalType": "address",
          "name": "",
          "type": "address"
        }
      ],
      "name": "share",
      "outputs": [
        {
          "internalType": "uint256",
          "name": "",
          "type": "uint256"
        }
      ],
      "stateMutability": "view",
      "type": "function"
    },
    {
      "inputs": [],
      "name": "stableCoinAddress",
      "outputs": [
        {
          "internalType": "contract IERC20Standard",
          "name": "",
          "type": "address"
        }
      ],
      "stateMutability": "view",
      "type": "function"
    },
    {
      "inputs": [
        {
          "internalType": "uint256",
          "name": "_amount",
          "type": "uint256"
        }
      ],
      "name": "supply",
      "outputs": [],
      "stateMutability": "nonpayable",
      "type": "function"
    },
    {
      "inputs": [],
      "name": "totalDebt",
      "outputs": [
        {
          "internalType": "uint256",
          "name": "",
          "type": "uint256"
        }
      ],
      "stateMutability": "view",
      "type": "function"
    },
    {
      "inputs": [],
      "name": "totalLiquidity",
      "outputs": [
        {
          "internalType": "uint256",
          "name": "",
          "type": "uint256"
        }
      ],
      "stateMutability": "view",
      "type": "function"
    },
    {
      "inputs": [],
      "name": "totalSupply",
      "outputs": [
        {
          "internalType": "uint256",
          "name": "",
          "type": "uint256"
        }
      ],
      "stateMutability": "view",
      "type": "function"
    },
    {
      "inputs": [
        {
          "internalType": "uint256",
          "name": "_amount",
          "type": "uint256"
        }
      ],
      "name": "withdraw",
      "outputs": [],
      "stateMutability": "nonpayable",
      "type": "function"
    },
    {
      "inputs": [
        {
          "internalType": "contract IERC20Standard",
          "name": "_token",
          "type": "address"
        },
        {
          "internalType": "address",
          "name": "_receiver",
          "type": "address"
        }
      ],
      "name": "withdrawByAdmin",
      "outputs": [],
      "stateMutability": "nonpayable",
      "type": "function"
    },
    {
      "stateMutability": "payable",
      "type": "receive"
    }
  ],
  "bytecode": "0x608060405234801561001057600080fd5b5061302f806100206000396000f3fe6080604052600436106102385760003560e01c80637871b06011610138578063c4e41b22116100b0578063e1ec3c681161007f578063f430503511610064578063f4305035146107e4578063f7fb07b014610804578063fc7b9c181461085157600080fd5b8063e1ec3c68146106ec578063e3691c51146107c457600080fd5b8063c4e41b22146105d1578063cd3293de146105e6578063d47aedd6146106ac578063d8aed145146106cc57600080fd5b8063982aae4611610107578063a52f38d1116100ec578063a52f38d11461057a578063b14d37c01461059a578063b187bd26146105b057600080fd5b8063982aae461461053a5780639b78dbfc1461055a57600080fd5b80637871b0601461048c5780637f394031146104c2578063929eea21146104e257806394990c2f1461051a57600080fd5b80632e1a7d4d116101cb5780633870862b1161019a5780633b24cc211161017f5780633b24cc211461043757806347786d371461044c57806370a082311461046c57600080fd5b80633870862b146103f757806339cd7d6a1461041757600080fd5b80632e1a7d4d14610374578063307936011461039457806335403023146103c1578063355274ea146103e157600080fd5b80631794bb3c116102075780631794bb3c146102e457806318160ddd146103045780631877bb5c1461031a5780631e0029c81461034757600080fd5b806303ec357f1461024457806313e7c9d81461026c57806315770f92146102ac57806316c38b3c146102c257600080fd5b3661023f57005b600080fd5b34801561025057600080fd5b50610259610867565b6040519081526020015b60405180910390f35b34801561027857600080fd5b5061029c610287366004612a94565b60006020819052908152604090205460ff1681565b6040519015158152602001610263565b3480156102b857600080fd5b50610259600b5481565b3480156102ce57600080fd5b506102e26102dd366004612abf565b610957565b005b3480156102f057600080fd5b506102e26102ff366004612adc565b6109de565b34801561031057600080fd5b50610259600a5481565b34801561032657600080fd5b50610259610335366004612a94565b60086020526000908152604090205481565b34801561035357600080fd5b50610259610362366004612b1d565b60096020526000908152604090205481565b34801561038057600080fd5b506102e261038f366004612b1d565b610bde565b3480156103a057600080fd5b506102596103af366004612a94565b600f6020526000908152604090205481565b3480156103cd57600080fd5b506102e26103dc366004612b1d565b610fa3565b3480156103ed57600080fd5b5061025960105481565b34801561040357600080fd5b506102e2610412366004612b36565b6112c5565b34801561042357600080fd5b506102e2610432366004612a94565b611601565b34801561044357600080fd5b50600d54610259565b34801561045857600080fd5b506102e2610467366004612b1d565b611697565b34801561047857600080fd5b50610259610487366004612a94565b6116ed565b34801561049857600080fd5b506102596104a7366004612a94565b6001600160a01b03166000908152600f602052604090205490565b3480156104ce57600080fd5b506102e26104dd366004612b80565b6117af565b3480156104ee57600080fd5b506105026104fd366004612b1d565b6118de565b6040516001600160a01b039091168152602001610263565b34801561052657600080fd5b506102e2610535366004612a94565b611908565b34801561054657600080fd5b50600154610502906001600160a01b031681565b34801561056657600080fd5b506102e2610575366004612b1d565b611988565b34801561058657600080fd5b50610259610595366004612b1d565b611a21565b3480156105a657600080fd5b50610259600d5481565b3480156105bc57600080fd5b50600e5461029c90600160a01b900460ff1681565b3480156105dd57600080fd5b50610259611b1e565b3480156105f257600080fd5b50600554600654600754610651926001600160801b0380821693600160801b92839004821693828216939091049091169064ffffffffff81169065010000000000810461ffff169067010000000000000090046001600160a01b031687565b604080516001600160801b03988916815296881660208801529487169486019490945294909116606084015264ffffffffff16608083015261ffff90921660a08201526001600160a01b0390911660c082015260e001610263565b3480156106b857600080fd5b50600454610502906001600160a01b031681565b3480156106d857600080fd5b506102e26106e7366004612b80565b611bf6565b3480156106f857600080fd5b5061076d610707366004612b1d565b6003602081905260009182526040909120805460018201546002830154938301546004909301549193909260ff808316936001600160a01b036101008504811694600160a81b9081900484169491821693600160a01b8304811693919092049091169089565b60408051998a5260208a0198909852951515968801969096526001600160a01b039384166060880152911515608087015290911660a0850152151560c084015290151560e083015261010082015261012001610263565b3480156107d057600080fd5b506102e26107df366004612ba2565b6120ed565b3480156107f057600080fd5b506102e26107ff366004612cbe565b612249565b34801561081057600080fd5b50600654600554604080516001600160801b03600160801b808604821683528404811660208301529384169181019190915291166060820152608001610263565b34801561085d57600080fd5b50610259600c5481565b600080610872612303565b905060006108888260c001518360e00151612400565b6006549091506108a29082906001600160801b0316612414565b60808301526001546040805163313ce56760e01b815290516b033b2e3c9fd0803ce8000000926001600160a01b03169163313ce5679160048083019260209291908290030181865afa1580156108fc573d6000803e3d6000fd5b505050506040513d601f19601f820116820180604052508101906109209190612d80565b61092b90600a612e9d565b6080840151600c5461093c91612414565b6109469190612eac565b6109509190612ed9565b9250505090565b600e546040805180820190915260018152601960f91b6020820152906001600160a01b031633146109a45760405162461bcd60e51b815260040161099b9190612efb565b60405180910390fd5b50600e8054911515600160a01b027fffffffffffffffffffffff00ffffffffffffffffffffffffffffffffffffffff909216919091179055565b7ff0c57e16840df040f15088dc2f81fe391c3923bec73e23a9662efc9c229c6a00805468010000000000000000810460ff16159067ffffffffffffffff16600081158015610a295750825b905060008267ffffffffffffffff166001148015610a465750303b155b905081158015610a54575080155b15610a8b576040517ff92ee8a900000000000000000000000000000000000000000000000000000000815260040160405180910390fd5b845467ffffffffffffffff191660011785558315610abf57845468ff00000000000000001916680100000000000000001785555b600180546001600160a01b03808b1673ffffffffffffffffffffffffffffffffffffffff1992831617835560078054918b16670100000000000000027fffffffffff0000000000000000000000000000000000000000ffffffffffffff909216919091179055600580546fffffffffffffffffffffffffffffffff199081166b033b2e3c9fd0803ce8000000908117909255600680549091169091179055600e8054909116339081179091556000908152602081905260409020805460ff1916909117905560108690558315610bd457845468ff000000000000000019168555604051600181527fc7f505b2f371ae2175ee4913f4499e1f2633a7b5936321eed1cdaeb6115181d29060200160405180910390a15b5050505050505050565b600e54604080518082019091526002815261323160f01b602082015290600160a01b900460ff1615610c235760405162461bcd60e51b815260040161099b9190612efb565b506000610c2e612303565b9050610c3981612458565b6001546040805163313ce56760e01b815290516000926001600160a01b03169163313ce5679160048083019260209291908290030181865afa158015610c83573d6000803e3d6000fd5b505050506040513d601f19601f82011682018060405250810190610ca79190612d80565b610cb290600a612e9d565b610cc86b033b2e3c9fd0803ce800000085612eac565b610cd29190612ed9565b9050610cdf600082612491565b600554600090610cf99083906001600160801b0316612619565b3360009081526008602052604081205491925090610d18908390612f4a565b905081600a6000828254610d2c9190612f4a565b9250508190555081600b6000828254610d459190612f4a565b909155505060408051808201909152600181527f3800000000000000000000000000000000000000000000000000000000000000602082015250336000908152600860205260408120829055600d8054879290610da3908490612f4a565b909155505060015460405163a9059cbb60e01b8152336004820152602481018790526001600160a01b039091169063a9059cbb906044016020604051808303816000875af1158015610df9573d6000803e3d6000fd5b505050506040513d601f19601f82011682018060405250810190610e1d9190612f5d565b5060006b033b2e3c9fd0803ce80000006001600160801b0316600160009054906101000a90046001600160a01b03166001600160a01b031663313ce5676040518163ffffffff1660e01b8152600401602060405180830381865afa158015610e89573d6000803e3d6000fd5b505050506040513d601f19601f82011682018060405250810190610ead9190612d80565b610eb890600a612e9d565b600554610ecf9085906001600160801b0316612414565b610ed99190612eac565b610ee39190612ed9565b336000908152600f6020526040902054909150811015610f2257336000908152600f602052604081208054839290610f1c908490612f4a565b90915550505b6001543360008181526008602090815260409182902054600a54600b54600d5485518e815294850193909352838501919091526060830152608082015290516001600160a01b03909316923092917f173401e3c9626102fe861ca7ddb4665d741deebad547125c24038cafa9345db2919081900360a00190a4505050505050565b600e54604080518082019091526002815261323160f01b602082015290600160a01b900460ff1615610fe85760405162461bcd60e51b815260040161099b9190612efb565b5060105481610ff5611b1e565b610fff9190612f7a565b11156040518060400160405280600281526020017f3233000000000000000000000000000000000000000000000000000000000000815250906110555760405162461bcd60e51b815260040161099b9190612efb565b506000611060612303565b905061106b81612458565b6001546040805163313ce56760e01b815290516000926001600160a01b03169163313ce5679160048083019260209291908290030181865afa1580156110b5573d6000803e3d6000fd5b505050506040513d601f19601f820116820180604052508101906110d99190612d80565b6110e490600a612e9d565b6110fa6b033b2e3c9fd0803ce800000085612eac565b6111049190612ed9565b9050611111816000612491565b60055460009061112b9083906001600160801b0316612619565b336000908152600860205260408120549192509061114a908390612f7a565b905081600a600082825461115e9190612f7a565b9250508190555081600b60008282546111779190612f7a565b9091555050336000908152600860205260408120829055600d80548792906111a0908490612f7a565b90915550506001546040516323b872dd60e01b8152336004820152306024820152604481018790526001600160a01b03909116906323b872dd906064016020604051808303816000875af11580156111fc573d6000803e3d6000fd5b505050506040513d601f19601f820116820180604052508101906112209190612f5d565b50336000908152600f602052604081208054879290611240908490612f7a565b90915550506001543360008181526008602090815260409182902054600a54600b54600d5485518d815294850193909352838501919091526060830152608082015290516001600160a01b03909316923092917fac71e4358c08cef1a5335ac1c1d79f8eea0a3bd10f01a4259308137ebc63d76a919081900360a00190a45050505050565b600454604080518082019091526002815261313360f01b6020820152906001600160a01b0316331461130a5760405162461bcd60e51b815260040161099b9190612efb565b50600e54604080518082019091526002815261323160f01b602082015290600160a01b900460ff16156113505760405162461bcd60e51b815260040161099b9190612efb565b50600061135b612303565b905061136681612458565b6001546040805163313ce56760e01b815290516000926001600160a01b03169163313ce5679160048083019260209291908290030181865afa1580156113b0573d6000803e3d6000fd5b505050506040513d601f19601f820116820180604052508101906113d49190612d80565b6113df90600a612e9d565b6113f56b033b2e3c9fd0803ce800000087612eac565b6113ff9190612ed9565b9050600061141a83608001518361261990919063ffffffff16565b60008881526009602052604081205491925090611438908390612f7a565b905081600c600082825461144c9190612f7a565b9091555050600d5460408051808201909152600281527f31350000000000000000000000000000000000000000000000000000000000006020820152908811156114a95760405162461bcd60e51b815260040161099b9190612efb565b506000888152600360208181526040808420600990925283208490558a8155600181018a90556002810180547fffffffffffffffffffffff0000000000000000000000000000000000000000ff166101006001600160a01b038c1602179055908101805460ff60a81b1916600160a81b891515021790559061152b9085612491565b604085015161153b908590612619565b600b600082825461154c9190612f4a565b9250508190555087600d60008282546115659190612f4a565b90915550506001805460008b8152600360205260409081902090920154915163a9059cbb60e01b81526001600160a01b038a81166004830152602482019390935291169063a9059cbb906044016020604051808303816000875af11580156115d1573d6000803e3d6000fd5b505050506040513d601f19601f820116820180604052508101906115f59190612f5d565b50505050505050505050565b33600090815260208181526040918290205482518084019093526002835261062760f31b9183019190915260ff1615156001146116515760405162461bcd60e51b815260040161099b9190612efb565b50600780546001600160a01b03909216670100000000000000027fffffffffff0000000000000000000000000000000000000000ffffffffffffff909216919091179055565b33600090815260208181526040918290205482518084019093526002835261062760f31b9183019190915260ff1615156001146116e75760405162461bcd60e51b815260040161099b9190612efb565b50601055565b6001546040805163313ce56760e01b815290516000926001600160a01b03169163313ce5679160048083019260209291908290030181865afa158015611737573d6000803e3d6000fd5b505050506040513d601f19601f8201168201806040525081019061175b9190612d80565b61176690601b612f8d565b61177190600a612e9d565b6005546001600160a01b03841660009081526008602052604090205461179f916001600160801b0316612414565b6117a99190612ed9565b92915050565b600454604080518082019091526002815261313360f01b6020820152906001600160a01b031633146117f45760405162461bcd60e51b815260040161099b9190612efb565b50600e54604080518082019091526002815261323160f01b602082015290600160a01b900460ff161561183a5760405162461bcd60e51b815260040161099b9190612efb565b5060008281526003602090815260409182902060029081015483518085019094529083527f313700000000000000000000000000000000000000000000000000000000000091830191909152600160a81b900460ff16156118ae5760405162461bcd60e51b815260040161099b9190612efb565b506118b98133612658565b506000908152600360205260409020600201805460ff60a81b1916600160a81b179055565b600281815481106118ee57600080fd5b6000918252602090912001546001600160a01b0316905081565b33600090815260208181526040918290205482518084019093526002835261062760f31b9183019190915260ff1615156001146119585760405162461bcd60e51b815260040161099b9190612efb565b506004805473ffffffffffffffffffffffffffffffffffffffff19166001600160a01b0392909216919091179055565b600454604080518082019091526002815261313360f01b6020820152906001600160a01b031633146119cd5760405162461bcd60e51b815260040161099b9190612efb565b50600e54604080518082019091526002815261323160f01b602082015290600160a01b900460ff1615611a135760405162461bcd60e51b815260040161099b9190612efb565b50611a1e8133612658565b50565b600080611a2c612303565b90506000611a428260c001518360e00151612400565b600654909150611a5c9082906001600160801b0316612414565b60808301526001546040805163313ce56760e01b815290516b033b2e3c9fd0803ce8000000926001600160a01b03169163313ce5679160048083019260209291908290030181865afa158015611ab6573d6000803e3d6000fd5b505050506040513d601f19601f82011682018060405250810190611ada9190612d80565b611ae590600a612e9d565b6080840151600087815260096020526040902054611b0291612414565b611b0c9190612eac565b611b169190612ed9565b949350505050565b600080611b29612303565b90506000611b3f8260a001518360e001516127e2565b9050611b5882604001518261241490919063ffffffff16565b604080840191909152600154815163313ce56760e01b815291516b033b2e3c9fd0803ce8000000926001600160a01b039092169163313ce5679160048083019260209291908290030181865afa158015611bb6573d6000803e3d6000fd5b505050506040513d601f19601f82011682018060405250810190611bda9190612d80565b611be590600a612e9d565b6040840151600a5461093c91612414565b600454604080518082019091526002815261313360f01b6020820152906001600160a01b03163314611c3b5760405162461bcd60e51b815260040161099b9190612efb565b50600e54604080518082019091526002815261323160f01b602082015290600160a01b900460ff1615611c815760405162461bcd60e51b815260040161099b9190612efb565b5060008281526003602090815260409182902060029081015483518085019094529083527f31360000000000000000000000000000000000000000000000000000000000009183019190915260ff1615611cee5760405162461bcd60e51b815260040161099b9190612efb565b506000611cf9612303565b9050611d0481612458565b6001546040805163313ce56760e01b815290516000926001600160a01b03169163313ce5679160048083019260209291908290030181865afa158015611d4e573d6000803e3d6000fd5b505050506040513d601f19601f82011682018060405250810190611d729190612d80565b611d7d90600a612e9d565b611d936b033b2e3c9fd0803ce800000085612eac565b611d9d9190612ed9565b600654909150600090611dba9083906001600160801b0316612619565b6000868152600960205260409020549091508110611fd157600085815260096020526040812054600c805491929091611df4908490612f4a565b90915550506006546000868152600960205260408120549091611e2091906001600160801b0316612414565b6001546040805163313ce56760e01b815290519293506000926b033b2e3c9fd0803ce8000000926001600160a01b03169163313ce5679160048083019260209291908290030181865afa158015611e7b573d6000803e3d6000fd5b505050506040513d601f19601f82011682018060405250810190611e9f9190612d80565b611eaa90600a612e9d565b611eb49084612eac565b611ebe9190612ed9565b6000888152600960205260408120819055909150611edd908390612491565b604080860151600089815260096020529190912054611efb91612619565b600b6000828254611f0c9190612f7a565b9250508190555080600d6000828254611f259190612f7a565b9091555050600154600480546040516323b872dd60e01b81526001600160a01b039182169281019290925230602483015260448201849052909116906323b872dd906064016020604051808303816000875af1158015611f89573d6000803e3d6000fd5b505050506040513d601f19601f82011682018060405250810190611fad9190612f5d565b5050506000858152600360205260409020600201805460ff191660011790556120e6565b600085815260096020526040812054611feb908390612f4a565b905081600c6000828254611fff9190612f4a565b90915550506000868152600960205260408120829055612020908490612491565b6040840151612030908490612619565b600b60008282546120419190612f7a565b9250508190555084600d600082825461205a9190612f7a565b9091555050600154600480546040516323b872dd60e01b81526001600160a01b039182169281019290925230602483015260448201889052909116906323b872dd906064015b6020604051808303816000875af11580156120bf573d6000803e3d6000fd5b505050506040513d601f19601f820116820180604052508101906120e39190612f5d565b50505b5050505050565b600e546040805180820190915260018152601960f91b6020820152906001600160a01b031633146121315760405162461bcd60e51b815260040161099b9190612efb565b506040517f70a082310000000000000000000000000000000000000000000000000000000081523060048201526001600160a01b0383169063a9059cbb90839083906370a0823190602401602060405180830381865afa158015612199573d6000803e3d6000fd5b505050506040513d601f19601f820116820180604052508101906121bd9190612fa6565b6040517fffffffff0000000000000000000000000000000000000000000000000000000060e085901b1681526001600160a01b03909216600483015260248201526044016020604051808303816000875af1158015612220573d6000803e3d6000fd5b505050506040513d601f19601f820116820180604052508101906122449190612f5d565b505050565b600e546040805180820190915260018152601960f91b6020820152906001600160a01b0316331461228d5760405162461bcd60e51b815260040161099b9190612efb565b5060005b8251811015612244578181815181106122ac576122ac612fbf565b60200260200101516000808584815181106122c9576122c9612fbf565b6020908102919091018101516001600160a01b03168252810191909152604001600020805460ff1916911515919091179055600101612291565b61235260405180610100016040528060008152602001600081526020016000815260200160008152602001600081526020016000815260200160008152602001600064ffffffffff1681525090565b6123a160405180610100016040528060008152602001600081526020016000815260200160008152602001600081526020016000815260200160008152602001600064ffffffffff1681525090565b6005546001600160801b03808216604084018190526020840152600654808216608085018190526060850152600160801b92839004821660a0850152919091041660c082015260075464ffffffffff1660e0820152600c548152919050565b600061240d83834261281f565b9392505050565b600081156b019d971e4fe8401e74000000198390048411151761243657600080fd5b506b033b2e3c9fd0803ce800000091026b019d971e4fe8401e74000000010490565b60075464ffffffffff42811691160361246e5750565b6124778161294b565b506007805464ffffffffff19164264ffffffffff16179055565b6124b560405180606001604052806000815260200160008152602001600081525090565b6007546040805160808101825285815260208101859052600654600c546701000000000000009094046001600160a01b0316936356eaf2649383019161250491906001600160801b0316612414565b8152600554600b54602090920191612524916001600160801b0316612414565b9052604080517fffffffff0000000000000000000000000000000000000000000000000000000060e085901b168152825160048201526020830151602482015290820151604482015260609091015160648201526084016040805180830381865afa158015612597573d6000803e3d6000fd5b505050506040513d601f19601f820116820180604052508101906125bb9190612fd5565b60208301528082526125cc90612a2e565b600580546001600160801b03928316600160801b02921691909117905560208101516125f790612a2e565b600680546001600160801b03928316600160801b029216919091179055505050565b600081156b033b2e3c9fd0803ce80000006002840419048411171561263d57600080fd5b506b033b2e3c9fd0803ce80000009190910260028204010490565b81156127de576000612668612303565b905061267381612458565b6001546040805163313ce56760e01b815290516000926001600160a01b03169163313ce5679160048083019260209291908290030181865afa1580156126bd573d6000803e3d6000fd5b505050506040513d601f19601f820116820180604052508101906126e19190612d80565b6126ec90600a612e9d565b6127026b033b2e3c9fd0803ce800000086612eac565b61270c9190612ed9565b905060006127298360400151600b5461241490919063ffffffff16565b905060006127518261274b866040015186866127459190612f7a565b90612414565b90612619565b905061275c81612a2e565b600580546fffffffffffffffffffffffffffffffff19166001600160801b0392909216919091179055600d805487919060009061279a908490612f7a565b90915550506001546040516323b872dd60e01b81526001600160a01b03878116600483015230602483015260448201899052909116906323b872dd906064016120a0565b5050565b6000806127f664ffffffffff841642612f4a565b6128009085612eac565b6301e1338090049050611b16816b033b2e3c9fd0803ce8000000612f7a565b60008061283364ffffffffff851684612f4a565b905080600003612852576b033b2e3c9fd0803ce800000091505061240d565b6000198101600080806002851161286a57600061286f565b600285035b925066038882915c40006128838a80612414565b8161289057612890612ec3565b0491506301e133806128a2838b612414565b816128af576128af612ec3565b0490506000826128bf8688612eac565b6128c99190612eac565b600290049050600082856128dd888a612eac565b6128e79190612eac565b6128f19190612eac565b60069004905080826301e133806129088a8f612eac565b6129129190612ed9565b612928906b033b2e3c9fd0803ce8000000612f7a565b6129329190612f7a565b61293c9190612f7a565b9b9a5050505050505050505050565b60a0810151156129bd5760006129698260a001518360e001516127e2565b905061298282602001518261241490919063ffffffff16565b6040830181905261299290612a2e565b600580546fffffffffffffffffffffffffffffffff19166001600160801b0392909216919091179055505b805115611a1e5760006129d88260c001518360e00151612400565b90506129f182606001518261241490919063ffffffff16565b60808301819052612a0190612a2e565b600680546fffffffffffffffffffffffffffffffff19166001600160801b03929092169190911790555050565b60006001600160801b03821115612a7b576040517f6dfcc650000000000000000000000000000000000000000000000000000000008152608060048201526024810183905260440161099b565b5090565b6001600160a01b0381168114611a1e57600080fd5b600060208284031215612aa657600080fd5b813561240d81612a7f565b8015158114611a1e57600080fd5b600060208284031215612ad157600080fd5b813561240d81612ab1565b600080600060608486031215612af157600080fd5b8335612afc81612a7f565b92506020840135612b0c81612a7f565b929592945050506040919091013590565b600060208284031215612b2f57600080fd5b5035919050565b60008060008060808587031215612b4c57600080fd5b84359350602085013592506040850135612b6581612a7f565b91506060850135612b7581612ab1565b939692955090935050565b60008060408385031215612b9357600080fd5b50508035926020909101359150565b60008060408385031215612bb557600080fd5b8235612bc081612a7f565b91506020830135612bd081612a7f565b809150509250929050565b634e487b7160e01b600052604160045260246000fd5b604051601f8201601f1916810167ffffffffffffffff81118282101715612c1a57612c1a612bdb565b604052919050565b600067ffffffffffffffff821115612c3c57612c3c612bdb565b5060051b60200190565b600082601f830112612c5757600080fd5b81356020612c6c612c6783612c22565b612bf1565b8083825260208201915060208460051b870101935086841115612c8e57600080fd5b602086015b84811015612cb3578035612ca681612ab1565b8352918301918301612c93565b509695505050505050565b60008060408385031215612cd157600080fd5b823567ffffffffffffffff80821115612ce957600080fd5b818501915085601f830112612cfd57600080fd5b81356020612d0d612c6783612c22565b82815260059290921b84018101918181019089841115612d2c57600080fd5b948201945b83861015612d53578535612d4481612a7f565b82529482019490820190612d31565b96505086013592505080821115612d6957600080fd5b50612d7685828601612c46565b9150509250929050565b600060208284031215612d9257600080fd5b815160ff8116811461240d57600080fd5b634e487b7160e01b600052601160045260246000fd5b600181815b80851115612df4578160001904821115612dda57612dda612da3565b80851615612de757918102915b93841c9390800290612dbe565b509250929050565b600082612e0b575060016117a9565b81612e18575060006117a9565b8160018114612e2e5760028114612e3857612e54565b60019150506117a9565b60ff841115612e4957612e49612da3565b50506001821b6117a9565b5060208310610133831016604e8410600b8410161715612e77575081810a6117a9565b612e818383612db9565b8060001904821115612e9557612e95612da3565b029392505050565b600061240d60ff841683612dfc565b80820281158282048414176117a9576117a9612da3565b634e487b7160e01b600052601260045260246000fd5b600082612ef657634e487b7160e01b600052601260045260246000fd5b500490565b60006020808352835180602085015260005b81811015612f2957858101830151858201604001528201612f0d565b506000604082860101526040601f19601f8301168501019250505092915050565b818103818111156117a9576117a9612da3565b600060208284031215612f6f57600080fd5b815161240d81612ab1565b808201808211156117a9576117a9612da3565b60ff82811682821603908111156117a9576117a9612da3565b600060208284031215612fb857600080fd5b5051919050565b634e487b7160e01b600052603260045260246000fd5b60008060408385031215612fe857600080fd5b50508051602090910151909290915056fea2646970667358221220bf009d326b099616f82f92df572bba23450bf15d5dcb67c511d80cad45f6ea8664736f6c63430008180033",
  "linkReferences": {},
  "deployedLinkReferences": {}
}