{
  "_format": "hh-sol-artifact-1",
  "contractName": "FSFIConfig",
  "sourceName": "contracts/FSFIConfig.sol",
  "abi": [
    {
      "inputs": [],
      "name": "InvalidInitialization",
      "type": "error"
    },
    {
      "inputs": [],
      "name": "NotInitializing",
      "type": "error"
    },
    {
      "anonymous": false,
      "inputs": [
        {
          "indexed": false,
          "internalType": "uint64",
          "name": "version",
          "type": "uint64"
        }
      ],
      "name": "Initialized",
      "type": "event"
    },
    {
      "inputs": [
        {
          "internalType": "contract IERC20Standard",
          "name": "",
          "type": "address"
        }
      ],
      "name": "aTokens",
      "outputs": [
        {
          "internalType": "contract IERC20Standard",
          "name": "",
          "type": "address"
        }
      ],
      "stateMutability": "view",
      "type": "function"
    },
    {
      "inputs": [],
      "name": "aaveAddressProvider",
      "outputs": [
        {
          "internalType": "contract IPoolAddressesProvider",
          "name": "",
          "type": "address"
        }
      ],
      "stateMutability": "view",
      "type": "function"
    },
    {
      "inputs": [
        {
          "internalType": "contract IERC20Standard[]",
          "name": "array",
          "type": "address[]"
        },
        {
          "internalType": "contract IERC20Standard",
          "name": "el",
          "type": "address"
        }
      ],
      "name": "checkExistElement",
      "outputs": [
        {
          "internalType": "bool",
          "name": "",
          "type": "bool"
        }
      ],
      "stateMutability": "pure",
      "type": "function"
    },
    {
      "inputs": [
        {
          "internalType": "contract IERC20Standard",
          "name": "",
          "type": "address"
        },
        {
          "internalType": "contract IERC20Standard",
          "name": "",
          "type": "address"
        }
      ],
      "name": "collateralToStableCoinFee",
      "outputs": [
        {
          "internalType": "uint24",
          "name": "",
          "type": "uint24"
        }
      ],
      "stateMutability": "view",
      "type": "function"
    },
    {
      "inputs": [
        {
          "internalType": "uint256",
          "name": "",
          "type": "uint256"
        }
      ],
      "name": "collateralTokens",
      "outputs": [
        {
          "internalType": "contract IERC20Standard",
          "name": "",
          "type": "address"
        }
      ],
      "stateMutability": "view",
      "type": "function"
    },
    {
      "inputs": [],
      "name": "earnBorrower",
      "outputs": [
        {
          "internalType": "uint256",
          "name": "",
          "type": "uint256"
        }
      ],
      "stateMutability": "view",
      "type": "function"
    },
    {
      "inputs": [],
      "name": "earnLender",
      "outputs": [
        {
          "internalType": "uint256",
          "name": "",
          "type": "uint256"
        }
      ],
      "stateMutability": "view",
      "type": "function"
    },
    {
      "inputs": [],
      "name": "earnPlatform",
      "outputs": [
        {
          "internalType": "uint256",
          "name": "",
          "type": "uint256"
        }
      ],
      "stateMutability": "view",
      "type": "function"
    },
    {
      "inputs": [],
      "name": "factory",
      "outputs": [
        {
          "internalType": "contract IUniswapV3Factory",
          "name": "",
          "type": "address"
        }
      ],
      "stateMutability": "view",
      "type": "function"
    },
    {
      "inputs": [
        {
          "internalType": "contract IERC20Standard",
          "name": "",
          "type": "address"
        }
      ],
      "name": "fsfiActiveCoins",
      "outputs": [
        {
          "internalType": "bool",
          "name": "",
          "type": "bool"
        }
      ],
      "stateMutability": "view",
      "type": "function"
    },
    {
      "inputs": [
        {
          "internalType": "uint256",
          "name": "",
          "type": "uint256"
        }
      ],
      "name": "fsfiPoolStableCoins",
      "outputs": [
        {
          "internalType": "contract IERC20Standard",
          "name": "",
          "type": "address"
        }
      ],
      "stateMutability": "view",
      "type": "function"
    },
    {
      "inputs": [],
      "name": "getAaveProvider",
      "outputs": [
        {
          "internalType": "contract IPoolAddressesProvider",
          "name": "",
          "type": "address"
        }
      ],
      "stateMutability": "view",
      "type": "function"
    },
    {
      "inputs": [
        {
          "internalType": "contract IERC20Standard",
          "name": "_collateral",
          "type": "address"
        }
      ],
      "name": "getAtoken",
      "outputs": [
        {
          "internalType": "contract IERC20Standard",
          "name": "",
          "type": "address"
        }
      ],
      "stateMutability": "view",
      "type": "function"
    },
    {
      "inputs": [
        {
          "internalType": "contract IERC20Standard",
          "name": "_collateral",
          "type": "address"
        },
        {
          "internalType": "contract IERC20Standard",
          "name": "_stable",
          "type": "address"
        }
      ],
      "name": "getCollateralToStableFee",
      "outputs": [
        {
          "internalType": "uint24",
          "name": "",
          "type": "uint24"
        }
      ],
      "stateMutability": "view",
      "type": "function"
    },
    {
      "inputs": [],
      "name": "getEarnShare",
      "outputs": [
        {
          "internalType": "uint256",
          "name": "",
          "type": "uint256"
        },
        {
          "internalType": "uint256",
          "name": "",
          "type": "uint256"
        },
        {
          "internalType": "uint256",
          "name": "",
          "type": "uint256"
        }
      ],
      "stateMutability": "view",
      "type": "function"
    },
    {
      "inputs": [],
      "name": "getEnableETHNative",
      "outputs": [
        {
          "internalType": "bool",
          "name": "",
          "type": "bool"
        }
      ],
      "stateMutability": "view",
      "type": "function"
    },
    {
      "inputs": [
        {
          "internalType": "contract IERC20Standard",
          "name": "_tokenAddress",
          "type": "address"
        }
      ],
      "name": "getFsfiActiveCoins",
      "outputs": [
        {
          "internalType": "bool",
          "name": "",
          "type": "bool"
        }
      ],
      "stateMutability": "view",
      "type": "function"
    },
    {
      "inputs": [
        {
          "internalType": "contract IERC20Standard",
          "name": "_stableCoin",
          "type": "address"
        },
        {
          "internalType": "bool",
          "name": "isPool",
          "type": "bool"
        }
      ],
      "name": "getLatestPrice",
      "outputs": [
        {
          "internalType": "uint256",
          "name": "",
          "type": "uint256"
        }
      ],
      "stateMutability": "view",
      "type": "function"
    },
    {
      "inputs": [],
      "name": "getPenalty",
      "outputs": [
        {
          "internalType": "uint256",
          "name": "",
          "type": "uint256"
        },
        {
          "internalType": "uint256",
          "name": "",
          "type": "uint256"
        },
        {
          "internalType": "uint256",
          "name": "",
          "type": "uint256"
        }
      ],
      "stateMutability": "view",
      "type": "function"
    },
    {
      "inputs": [],
      "name": "getPlatformAddress",
      "outputs": [
        {
          "internalType": "address",
          "name": "",
          "type": "address"
        },
        {
          "internalType": "address",
          "name": "",
          "type": "address"
        }
      ],
      "stateMutability": "view",
      "type": "function"
    },
    {
      "inputs": [],
      "name": "getSwapRouter",
      "outputs": [
        {
          "internalType": "contract IV3SwapRouter",
          "name": "",
          "type": "address"
        },
        {
          "internalType": "contract IUniswapV3Factory",
          "name": "",
          "type": "address"
        },
        {
          "internalType": "contract IQuoterV2",
          "name": "",
          "type": "address"
        }
      ],
      "stateMutability": "view",
      "type": "function"
    },
    {
      "inputs": [],
      "name": "getThreshold",
      "outputs": [
        {
          "internalType": "uint256",
          "name": "",
          "type": "uint256"
        },
        {
          "internalType": "uint256",
          "name": "",
          "type": "uint256"
        }
      ],
      "stateMutability": "view",
      "type": "function"
    },
    {
      "inputs": [],
      "name": "getWETH",
      "outputs": [
        {
          "internalType": "contract IWETH",
          "name": "",
          "type": "address"
        }
      ],
      "stateMutability": "view",
      "type": "function"
    },
    {
      "inputs": [
        {
          "internalType": "uint256",
          "name": "_maxLTV",
          "type": "uint256"
        },
        {
          "internalType": "uint256",
          "name": "_liquidationThreshold",
          "type": "uint256"
        },
        {
          "internalType": "contract IV3SwapRouter",
          "name": "_swapRouter",
          "type": "address"
        },
        {
          "internalType": "contract IUniswapV3Factory",
          "name": "_factory",
          "type": "address"
        },
        {
          "internalType": "contract IQuoterV2",
          "name": "_quoter",
          "type": "address"
        },
        {
          "internalType": "contract IPoolAddressesProvider",
          "name": "_aaveAddressProvider",
          "type": "address"
        },
        {
          "internalType": "address",
          "name": "_liquidator",
          "type": "address"
        },
        {
          "internalType": "address",
          "name": "_platform",
          "type": "address"
        },
        {
          "internalType": "bool",
          "name": "_isEnableETHNative",
          "type": "bool"
        },
        {
          "internalType": "contract IWETH",
          "name": "_wETH",
          "type": "address"
        }
      ],
      "name": "initialize",
      "outputs": [],
      "stateMutability": "nonpayable",
      "type": "function"
    },
    {
      "inputs": [],
      "name": "liquidationThreshold",
      "outputs": [
        {
          "internalType": "uint256",
          "name": "",
          "type": "uint256"
        }
      ],
      "stateMutability": "view",
      "type": "function"
    },
    {
      "inputs": [],
      "name": "liquidator",
      "outputs": [
        {
          "internalType": "address",
          "name": "",
          "type": "address"
        }
      ],
      "stateMutability": "view",
      "type": "function"
    },
    {
      "inputs": [],
      "name": "maxLTV",
      "outputs": [
        {
          "internalType": "uint256",
          "name": "",
          "type": "uint256"
        }
      ],
      "stateMutability": "view",
      "type": "function"
    },
    {
      "inputs": [],
      "name": "owner",
      "outputs": [
        {
          "internalType": "address",
          "name": "",
          "type": "address"
        }
      ],
      "stateMutability": "view",
      "type": "function"
    },
    {
      "inputs": [],
      "name": "penaltyLender",
      "outputs": [
        {
          "internalType": "uint256",
          "name": "",
          "type": "uint256"
        }
      ],
      "stateMutability": "view",
      "type": "function"
    },
    {
      "inputs": [],
      "name": "penaltyLiquidator",
      "outputs": [
        {
          "internalType": "uint256",
          "name": "",
          "type": "uint256"
        }
      ],
      "stateMutability": "view",
      "type": "function"
    },
    {
      "inputs": [],
      "name": "penaltyPlatform",
      "outputs": [
        {
          "internalType": "uint256",
          "name": "",
          "type": "uint256"
        }
      ],
      "stateMutability": "view",
      "type": "function"
    },
    {
      "inputs": [],
      "name": "platform",
      "outputs": [
        {
          "internalType": "address",
          "name": "",
          "type": "address"
        }
      ],
      "stateMutability": "view",
      "type": "function"
    },
    {
      "inputs": [
        {
          "internalType": "contract IERC20Standard",
          "name": "",
          "type": "address"
        }
      ],
      "name": "priceFeeds",
      "outputs": [
        {
          "internalType": "contract AggregatorV3Interface",
          "name": "",
          "type": "address"
        }
      ],
      "stateMutability": "view",
      "type": "function"
    },
    {
      "inputs": [
        {
          "internalType": "contract IERC20Standard",
          "name": "",
          "type": "address"
        }
      ],
      "name": "pricePoolFeeds",
      "outputs": [
        {
          "internalType": "contract AggregatorV3Interface",
          "name": "",
          "type": "address"
        }
      ],
      "stateMutability": "view",
      "type": "function"
    },
    {
      "inputs": [],
      "name": "quoter",
      "outputs": [
        {
          "internalType": "contract IQuoterV2",
          "name": "",
          "type": "address"
        }
      ],
      "stateMutability": "view",
      "type": "function"
    },
    {
      "inputs": [
        {
          "internalType": "contract IPoolAddressesProvider",
          "name": "_aaveAddressProvider",
          "type": "address"
        }
      ],
      "name": "setAaveProvider",
      "outputs": [],
      "stateMutability": "nonpayable",
      "type": "function"
    },
    {
      "inputs": [
        {
          "internalType": "contract IERC20Standard",
          "name": "_token",
          "type": "address"
        },
        {
          "internalType": "bool",
          "name": "_isActived",
          "type": "bool"
        },
        {
          "internalType": "bool",
          "name": "_isPoolToken",
          "type": "bool"
        }
      ],
      "name": "setActiveToken",
      "outputs": [],
      "stateMutability": "nonpayable",
      "type": "function"
    },
    {
      "inputs": [
        {
          "internalType": "contract IERC20Standard[]",
          "name": "_collateral",
          "type": "address[]"
        },
        {
          "internalType": "contract IERC20Standard[]",
          "name": "_stable",
          "type": "address[]"
        },
        {
          "internalType": "uint24[]",
          "name": "_fee",
          "type": "uint24[]"
        }
      ],
      "name": "setCollateralToStableFee",
      "outputs": [],
      "stateMutability": "nonpayable",
      "type": "function"
    },
    {
      "inputs": [
        {
          "internalType": "contract IERC20Standard[]",
          "name": "_collateralTokens",
          "type": "address[]"
        },
        {
          "internalType": "contract AggregatorV3Interface[]",
          "name": "_collateralAggregators",
          "type": "address[]"
        },
        {
          "internalType": "contract IERC20Standard[]",
          "name": "_aTokens",
          "type": "address[]"
        }
      ],
      "name": "setCollaterals",
      "outputs": [],
      "stateMutability": "nonpayable",
      "type": "function"
    },
    {
      "inputs": [
        {
          "internalType": "uint256",
          "name": "_borrower",
          "type": "uint256"
        },
        {
          "internalType": "uint256",
          "name": "_platform",
          "type": "uint256"
        },
        {
          "internalType": "uint256",
          "name": "_lender",
          "type": "uint256"
        }
      ],
      "name": "setEarnShare",
      "outputs": [],
      "stateMutability": "nonpayable",
      "type": "function"
    },
    {
      "inputs": [
        {
          "internalType": "bool",
          "name": "_isActived",
          "type": "bool"
        }
      ],
      "name": "setEnableETHNative",
      "outputs": [],
      "stateMutability": "nonpayable",
      "type": "function"
    },
    {
      "inputs": [
        {
          "internalType": "uint256",
          "name": "_platform",
          "type": "uint256"
        },
        {
          "internalType": "uint256",
          "name": "_liquidator",
          "type": "uint256"
        },
        {
          "internalType": "uint256",
          "name": "_lender",
          "type": "uint256"
        }
      ],
      "name": "setPenalty",
      "outputs": [],
      "stateMutability": "nonpayable",
      "type": "function"
    },
    {
      "inputs": [
        {
          "internalType": "address",
          "name": "_liquidator",
          "type": "address"
        },
        {
          "internalType": "address",
          "name": "_platform",
          "type": "address"
        }
      ],
      "name": "setPlatformAddress",
      "outputs": [],
      "stateMutability": "nonpayable",
      "type": "function"
    },
    {
      "inputs": [
        {
          "internalType": "contract IERC20Standard[]",
          "name": "_fsfiPoolStableCoin",
          "type": "address[]"
        },
        {
          "internalType": "contract AggregatorV3Interface[]",
          "name": "_poolAggregators",
          "type": "address[]"
        }
      ],
      "name": "setPoolCoins",
      "outputs": [],
      "stateMutability": "nonpayable",
      "type": "function"
    },
    {
      "inputs": [
        {
          "internalType": "contract IV3SwapRouter",
          "name": "_swapRouter",
          "type": "address"
        },
        {
          "internalType": "contract IUniswapV3Factory",
          "name": "_factory",
          "type": "address"
        },
        {
          "internalType": "contract IQuoterV2",
          "name": "_quoter",
          "type": "address"
        }
      ],
      "name": "setSwapRouter",
      "outputs": [],
      "stateMutability": "nonpayable",
      "type": "function"
    },
    {
      "inputs": [
        {
          "internalType": "uint256",
          "name": "_maxLTV",
          "type": "uint256"
        },
        {
          "internalType": "uint256",
          "name": "_liquidationThreshold",
          "type": "uint256"
        }
      ],
      "name": "setThreshold",
      "outputs": [],
      "stateMutability": "nonpayable",
      "type": "function"
    },
    {
      "inputs": [
        {
          "internalType": "contract IWETH",
          "name": "_iWETH",
          "type": "address"
        }
      ],
      "name": "setWETH",
      "outputs": [],
      "stateMutability": "nonpayable",
      "type": "function"
    },
    {
      "inputs": [],
      "name": "wETH",
      "outputs": [
        {
          "internalType": "contract IWETH",
          "name": "",
          "type": "address"
        }
      ],
      "stateMutability": "view",
      "type": "function"
    }
  ],
  "bytecode": "0x608060405234801561001057600080fd5b50611c55806100206000396000f3fe608060405234801561001057600080fd5b50600436106103205760003560e01c80639854db02116101a7578063c6bbd5a7116100ee578063e75235b811610097578063f3cf4ada11610071578063f3cf4ada14610796578063f6597bbb146107a9578063f8f126ff146107b257600080fd5b8063e75235b81461075f578063f24286211461077a578063f384bd051461078d57600080fd5b8063cdaabe41116100c8578063cdaabe411461072d578063d03f6bac14610740578063e56e56db1461075157600080fd5b8063c6bbd5a7146106dd578063c7beae6a146106f0578063cae5f11e1461071c57600080fd5b8063b3bffeaa11610150578063c2dcadab1161012a578063c2dcadab14610675578063c40b97ab1461069a578063c45a0155146106ca57600080fd5b8063b3bffeaa14610623578063b9c3620914610636578063b9f4cacc1461064957600080fd5b8063a1d55f4a11610181578063a1d55f4a146105fe578063a58bab6214610611578063a95d71321461061a57600080fd5b80639854db021461059a578063989397d4146105ac5780639dcb511a146105d557600080fd5b80633c0c45661161026b5780635b769f3c116102145780636cb0ab5e116101ee5780636cb0ab5e14610541578063725c9c49146105545780638da5cb5b1461058757600080fd5b80635b769f3c146105085780635f499ebc1461051b57806364b520971461052e57600080fd5b80634046ebae116102455780634046ebae146104cf5780634bde38c8146104e25780635607c334146104f557600080fd5b80633c0c4566146104775780633e108ad91461049d5780634031234c146104c657600080fd5b806332df398e116102cd57806338ef6717116102a757806338ef6717146104485780633a0720e61461045b5780633a2ad9ae1461046457600080fd5b806332df398e146103da578063365bef00146103e35780633756e3321461043557600080fd5b8063172c48c7116102fe578063172c48c7146103895780631d9eb5d9146103b45780632f544c83146103c757600080fd5b8063101b9d311461032557806310ac5c3c146103415780631451b17714610356575b600080fd5b61032e60085481565b6040519081526020015b60405180910390f35b61035461034f36600461156d565b6107c5565b005b6103796103643660046115b8565b60126020526000908152604090205460ff1681565b6040519015158152602001610338565b61039c6103973660046115dc565b610852565b6040516001600160a01b039091168152602001610338565b6103796103c23660046116d8565b61087c565b6103546103d5366004611792565b6108d7565b61032e60095481565b6104216103f13660046117f6565b6001600160a01b03918216600090815260106020908152604080832093909416825291909152205462ffffff1690565b60405162ffffff9091168152602001610338565b610354610443366004611839565b610a6c565b6103546104563660046115b8565b610d09565b61032e600b5481565b6103546104723660046118f5565b610d70565b600d54600e54604080516001600160a01b03938416815292909116602083015201610338565b61039c6104ab3660046115b8565b6014602052600090815260409020546001600160a01b031681565b61032e60015481565b600d5461039c906001600160a01b031681565b600e5461039c906001600160a01b031681565b61035461050336600461193a565b610f04565b6103546105163660046115b8565b611008565b610354610529366004611a2a565b61106f565b61035461053c366004611a45565b6110ed565b61035461054f366004611acd565b6112de565b600254600354600454604080516001600160a01b0394851681529284166020840152921691810191909152606001610338565b60055461039c906001600160a01b031681565b600e54600160a01b900460ff16610379565b61039c6105ba3660046115b8565b6016602052600090815260409020546001600160a01b031681565b61039c6105e33660046115b8565b6015602052600090815260409020546001600160a01b031681565b61039c61060c3660046115dc565b611331565b61032e60075481565b61032e600a5481565b61032e610631366004611af9565b611341565b610354610644366004611b2e565b611442565b6103796106573660046115b8565b6001600160a01b031660009081526012602052604090205460ff1690565b600b54600a546009545b60408051938452602084019290925290820152606001610338565b6104216106a83660046117f6565b601060209081526000928352604080842090915290825290205462ffffff1681565b60035461039c906001600160a01b031681565b60045461039c906001600160a01b031681565b61039c6106fe3660046115b8565b6001600160a01b039081166000908152601460205260409020541690565b600f546001600160a01b031661039c565b600c5461039c906001600160a01b031681565b600c546001600160a01b031661039c565b60085460075460065461067f565b60005460015460408051928352602083019190915201610338565b600f5461039c906001600160a01b031681565b61032e60005481565b6103546107a4366004611acd565b611492565b61032e60065481565b6103546107c03660046117f6565b6114e2565b6005546040805180820190915260018152601960f91b6020820152906001600160a01b031633146108125760405162461bcd60e51b81526004016108099190611b50565b60405180910390fd5b50600280546001600160a01b039485166001600160a01b031991821617909155600380549385169382169390931790925560048054919093169116179055565b6013818154811061086257600080fd5b6000918252602090912001546001600160a01b0316905081565b600080805b84518110156108cd57836001600160a01b03168582815181106108a6576108a6611b9f565b60200260200101516001600160a01b0316036108c557600191506108cd565b600101610881565b5090505b92915050565b6005546040805180820190915260018152601960f91b6020820152906001600160a01b0316331461091b5760405162461bcd60e51b81526004016108099190611b50565b5060005b8251811015610a6757600083828151811061093c5761093c611b9f565b602002602001015190506109aa601180548060200260200160405190810160405280929190818152602001828054801561099f57602002820191906000526020600020905b81546001600160a01b03168152600190910190602001808311610981575b50505050508261087c565b15156000036109ff57601180546001810182556000919091527f31ecc21a745e3968a04e9570e4425bc18fa8019c68028196b546d1669c200c680180546001600160a01b0319166001600160a01b0383161790555b828281518110610a1157610a11611b9f565b6020908102919091018101516001600160a01b03928316600090815260168352604080822080546001600160a01b0319169590931694909417909155601290915220805460ff191660019081179091550161091f565b505050565b7ff0c57e16840df040f15088dc2f81fe391c3923bec73e23a9662efc9c229c6a00805468010000000000000000810460ff16159067ffffffffffffffff16600081158015610ab75750825b905060008267ffffffffffffffff166001148015610ad45750303b155b905081158015610ae2575080155b15610b19576040517ff92ee8a900000000000000000000000000000000000000000000000000000000815260040160405180910390fd5b845467ffffffffffffffff191660011785558315610b4d57845468ff00000000000000001916680100000000000000001785555b8e6000819055508d6001819055508c600260006101000a8154816001600160a01b0302191690836001600160a01b031602179055508b600360006101000a8154816001600160a01b0302191690836001600160a01b031602179055508a600460006101000a8154816001600160a01b0302191690836001600160a01b0316021790555089600c60006101000a8154816001600160a01b0302191690836001600160a01b0316021790555088600d60006101000a8154816001600160a01b0302191690836001600160a01b0316021790555087600e60006101000a8154816001600160a01b0302191690836001600160a01b0316021790555086600e60146101000a81548160ff02191690831515021790555085600f60006101000a8154816001600160a01b0302191690836001600160a01b0316021790555033600560006101000a8154816001600160a01b0302191690836001600160a01b031602179055508315610cf857845468ff000000000000000019168555604051600181527fc7f505b2f371ae2175ee4913f4499e1f2633a7b5936321eed1cdaeb6115181d29060200160405180910390a15b505050505050505050505050505050565b6005546040805180820190915260018152601960f91b6020820152906001600160a01b03163314610d4d5760405162461bcd60e51b81526004016108099190611b50565b50600c80546001600160a01b0319166001600160a01b0392909216919091179055565b6005546040805180820190915260018152601960f91b6020820152906001600160a01b03163314610db45760405162461bcd60e51b81526004016108099190611b50565b508015610ea257610e1f6011805480602002602001604051908101604052809291908181526020018280548015610e1457602002820191906000526020600020905b81546001600160a01b03168152600190910190602001808311610df6575b50505050508461087c565b6040805180820190915260018082527f350000000000000000000000000000000000000000000000000000000000000060208301529091151514610e765760405162461bcd60e51b81526004016108099190611b50565b506001600160a01b0383166000908152601260205260409020805483151560ff19909116179055505050565b610e1f6013805480602002602001604051908101604052809291908181526020018280548015610e14576020028201919060005260206000209081546001600160a01b03168152600190910190602001808311610df65750505050508461087c565b6005546040805180820190915260018152601960f91b6020820152906001600160a01b03163314610f485760405162461bcd60e51b81526004016108099190611b50565b5060005b835181101561100257818181518110610f6757610f67611b9f565b602002602001015160106000868481518110610f8557610f85611b9f565b60200260200101516001600160a01b03166001600160a01b031681526020019081526020016000206000858481518110610fc157610fc1611b9f565b6020908102919091018101516001600160a01b03168252810191909152604001600020805462ffffff191662ffffff92909216919091179055600101610f4c565b50505050565b6005546040805180820190915260018152601960f91b6020820152906001600160a01b0316331461104c5760405162461bcd60e51b81526004016108099190611b50565b50600f80546001600160a01b0319166001600160a01b0392909216919091179055565b6005546040805180820190915260018152601960f91b6020820152906001600160a01b031633146110b35760405162461bcd60e51b81526004016108099190611b50565b50600e8054911515600160a01b027fffffffffffffffffffffff00ffffffffffffffffffffffffffffffffffffffff909216919091179055565b6005546040805180820190915260018152601960f91b6020820152906001600160a01b031633146111315760405162461bcd60e51b81526004016108099190611b50565b5060005b835181101561100257600084828151811061115257611152611b9f565b602002602001015190506111be601380548060200260200160405190810160405280929190818152602001828054801561099f576020028201919060005260206000209081546001600160a01b031681526001909101906020018083116109815750505050508261087c565b151560000361121357601380546001810182556000919091527f66de8ffda797e3de9c05e8fc57b3bf0ec28a930d40b0d285d93c06501cf6a0900180546001600160a01b0319166001600160a01b0383161790555b83828151811061122557611225611b9f565b602002602001015160156000836001600160a01b03166001600160a01b0316815260200190815260200160002060006101000a8154816001600160a01b0302191690836001600160a01b0316021790555082828151811061128857611288611b9f565b6020908102919091018101516001600160a01b03928316600090815260148352604080822080546001600160a01b0319169590931694909417909155601290915220805460ff1916600190811790915501611135565b6005546040805180820190915260018152601960f91b6020820152906001600160a01b031633146113225760405162461bcd60e51b81526004016108099190611b50565b50600b55600a91909155600955565b6011818154811061086257600080fd5b600081151581036113e2576001600160a01b03808416600090815260156020526040808220548151633fabe5a360e21b8152915192938493849384938493169163feaf968c9160048082019260a0929091908290030181865afa1580156113ac573d6000803e3d6000fd5b505050506040513d601f19601f820116820180604052508101906113d09190611bcf565b509198506108d1975050505050505050565b6001600160a01b03808416600090815260166020526040808220548151633fabe5a360e21b8152915192938493849384938493169163feaf968c9160048082019260a0929091908290030181865afa1580156113ac573d6000803e3d6000fd5b6005546040805180820190915260018152601960f91b6020820152906001600160a01b031633146114865760405162461bcd60e51b81526004016108099190611b50565b50600091909155600155565b6005546040805180820190915260018152601960f91b6020820152906001600160a01b031633146114d65760405162461bcd60e51b81526004016108099190611b50565b50600855600755600655565b6005546040805180820190915260018152601960f91b6020820152906001600160a01b031633146115265760405162461bcd60e51b81526004016108099190611b50565b50600d80546001600160a01b039384166001600160a01b031991821617909155600e8054929093169116179055565b6001600160a01b038116811461156a57600080fd5b50565b60008060006060848603121561158257600080fd5b833561158d81611555565b9250602084013561159d81611555565b915060408401356115ad81611555565b809150509250925092565b6000602082840312156115ca57600080fd5b81356115d581611555565b9392505050565b6000602082840312156115ee57600080fd5b5035919050565b634e487b7160e01b600052604160045260246000fd5b604051601f8201601f1916810167ffffffffffffffff81118282101715611634576116346115f5565b604052919050565b600067ffffffffffffffff821115611656576116566115f5565b5060051b60200190565b600082601f83011261167157600080fd5b813560206116866116818361163c565b61160b565b8083825260208201915060208460051b8701019350868411156116a857600080fd5b602086015b848110156116cd5780356116c081611555565b83529183019183016116ad565b509695505050505050565b600080604083850312156116eb57600080fd5b823567ffffffffffffffff81111561170257600080fd5b61170e85828601611660565b925050602083013561171f81611555565b809150509250929050565b600082601f83011261173b57600080fd5b8135602061174b6116818361163c565b8083825260208201915060208460051b87010193508684111561176d57600080fd5b602086015b848110156116cd57803561178581611555565b8352918301918301611772565b600080604083850312156117a557600080fd5b823567ffffffffffffffff808211156117bd57600080fd5b6117c986838701611660565b935060208501359150808211156117df57600080fd5b506117ec8582860161172a565b9150509250929050565b6000806040838503121561180957600080fd5b823561181481611555565b9150602083013561171f81611555565b8035801515811461183457600080fd5b919050565b6000806000806000806000806000806101408b8d03121561185957600080fd5b8a35995060208b0135985060408b013561187281611555565b975060608b013561188281611555565b965060808b013561189281611555565b955060a08b01356118a281611555565b945060c08b01356118b281611555565b935060e08b01356118c281611555565b92506118d16101008c01611824565b91506101208b01356118e281611555565b809150509295989b9194979a5092959850565b60008060006060848603121561190a57600080fd5b833561191581611555565b925061192360208501611824565b915061193160408501611824565b90509250925092565b60008060006060848603121561194f57600080fd5b833567ffffffffffffffff8082111561196757600080fd5b61197387838801611660565b945060209150818601358181111561198a57600080fd5b61199688828901611660565b9450506040860135818111156119ab57600080fd5b86019050601f810187136119be57600080fd5b80356119cc6116818261163c565b81815260059190911b820183019083810190898311156119eb57600080fd5b928401925b82841015611a1b57833562ffffff81168114611a0c5760008081fd5b825292840192908401906119f0565b80955050505050509250925092565b600060208284031215611a3c57600080fd5b6115d582611824565b600080600060608486031215611a5a57600080fd5b833567ffffffffffffffff80821115611a7257600080fd5b611a7e87838801611660565b94506020860135915080821115611a9457600080fd5b611aa08783880161172a565b93506040860135915080821115611ab657600080fd5b50611ac386828701611660565b9150509250925092565b600080600060608486031215611ae257600080fd5b505081359360208301359350604090920135919050565b60008060408385031215611b0c57600080fd5b8235611b1781611555565b9150611b2560208401611824565b90509250929050565b60008060408385031215611b4157600080fd5b50508035926020909101359150565b60006020808352835180602085015260005b81811015611b7e57858101830151858201604001528201611b62565b506000604082860101526040601f19601f8301168501019250505092915050565b634e487b7160e01b600052603260045260246000fd5b805169ffffffffffffffffffff8116811461183457600080fd5b600080600080600060a08688031215611be757600080fd5b611bf086611bb5565b9450602086015193506040860151925060608601519150611c1360808701611bb5565b9050929550929590935056fea26469706673582212203ec8c5f4a12c8c8a0c2ba2e7c44646980e8c89e16d0c568229b811182326736064736f6c63430008180033",
  "linkReferences": {},
  "deployedLinkReferences": {}
}