{
  "_format": "hh-sol-artifact-1",
  "contractName": "FSFILoan",
  "sourceName": "contracts/FSFILoan.sol",
  "abi": [
    {
      "inputs": [],
      "stateMutability": "nonpayable",
      "type": "constructor"
    },
    {
      "inputs": [],
      "name": "InvalidInitialization",
      "type": "error"
    },
    {
      "inputs": [],
      "name": "NotInitializing",
      "type": "error"
    },
    {
      "anonymous": false,
      "inputs": [
        {
          "indexed": false,
          "internalType": "uint64",
          "name": "version",
          "type": "uint64"
        }
      ],
      "name": "Initialized",
      "type": "event"
    },
    {
      "anonymous": false,
      "inputs": [
        {
          "indexed": true,
          "internalType": "address",
          "name": "onBehalfOf",
          "type": "address"
        },
        {
          "indexed": true,
          "internalType": "address",
          "name": "_token",
          "type": "address"
        },
        {
          "indexed": false,
          "internalType": "uint256",
          "name": "_amount",
          "type": "uint256"
        }
      ],
      "name": "LiquiditySupplied",
      "type": "event"
    },
    {
      "anonymous": false,
      "inputs": [
        {
          "indexed": true,
          "internalType": "address",
          "name": "to",
          "type": "address"
        },
        {
          "indexed": true,
          "internalType": "address",
          "name": "_token",
          "type": "address"
        },
        {
          "indexed": false,
          "internalType": "uint256",
          "name": "_amount",
          "type": "uint256"
        }
      ],
      "name": "LiquidityWithdrawn",
      "type": "event"
    },
    {
      "inputs": [
        {
          "internalType": "uint256",
          "name": "_currentDebt",
          "type": "uint256"
        },
        {
          "internalType": "uint256",
          "name": "_amountOut",
          "type": "uint256"
        }
      ],
      "name": "calculateLiquidation",
      "outputs": [
        {
          "internalType": "uint256",
          "name": "",
          "type": "uint256"
        },
        {
          "internalType": "uint256",
          "name": "",
          "type": "uint256"
        },
        {
          "internalType": "uint256",
          "name": "",
          "type": "uint256"
        },
        {
          "internalType": "uint256",
          "name": "",
          "type": "uint256"
        }
      ],
      "stateMutability": "view",
      "type": "function"
    },
    {
      "inputs": [
        {
          "internalType": "uint256",
          "name": "_currentDebt",
          "type": "uint256"
        }
      ],
      "name": "calculateSwap",
      "outputs": [
        {
          "internalType": "uint256",
          "name": "",
          "type": "uint256"
        },
        {
          "internalType": "uint256",
          "name": "",
          "type": "uint256"
        }
      ],
      "stateMutability": "nonpayable",
      "type": "function"
    },
    {
      "inputs": [],
      "name": "closeLoan",
      "outputs": [
        {
          "internalType": "uint256",
          "name": "",
          "type": "uint256"
        },
        {
          "internalType": "uint256",
          "name": "",
          "type": "uint256"
        }
      ],
      "stateMutability": "nonpayable",
      "type": "function"
    },
    {
      "inputs": [],
      "name": "collateralAmount",
      "outputs": [
        {
          "internalType": "uint256",
          "name": "",
          "type": "uint256"
        }
      ],
      "stateMutability": "view",
      "type": "function"
    },
    {
      "inputs": [],
      "name": "collateralToken",
      "outputs": [
        {
          "internalType": "contract IERC20Standard",
          "name": "",
          "type": "address"
        }
      ],
      "stateMutability": "view",
      "type": "function"
    },
    {
      "inputs": [],
      "name": "feeTier",
      "outputs": [
        {
          "internalType": "uint24",
          "name": "",
          "type": "uint24"
        }
      ],
      "stateMutability": "view",
      "type": "function"
    },
    {
      "inputs": [],
      "name": "fsfi",
      "outputs": [
        {
          "internalType": "address",
          "name": "",
          "type": "address"
        }
      ],
      "stateMutability": "view",
      "type": "function"
    },
    {
      "inputs": [],
      "name": "getCollateralAmount",
      "outputs": [
        {
          "internalType": "uint256",
          "name": "",
          "type": "uint256"
        }
      ],
      "stateMutability": "view",
      "type": "function"
    },
    {
      "inputs": [],
      "name": "getCollateralToken",
      "outputs": [
        {
          "internalType": "contract IERC20Standard",
          "name": "",
          "type": "address"
        }
      ],
      "stateMutability": "view",
      "type": "function"
    },
    {
      "inputs": [
        {
          "internalType": "uint256",
          "name": "currentDebt",
          "type": "uint256"
        },
        {
          "internalType": "uint256",
          "name": "addCollateral",
          "type": "uint256"
        }
      ],
      "name": "getHealthFactor",
      "outputs": [
        {
          "internalType": "uint256",
          "name": "",
          "type": "uint256"
        }
      ],
      "stateMutability": "view",
      "type": "function"
    },
    {
      "inputs": [],
      "name": "getIsYeild",
      "outputs": [
        {
          "internalType": "bool",
          "name": "",
          "type": "bool"
        }
      ],
      "stateMutability": "view",
      "type": "function"
    },
    {
      "inputs": [],
      "name": "getLoanInfo",
      "outputs": [
        {
          "components": [
            {
              "internalType": "uint256",
              "name": "loanId",
              "type": "uint256"
            },
            {
              "internalType": "uint256",
              "name": "amount",
              "type": "uint256"
            },
            {
              "internalType": "bool",
              "name": "isClosed",
              "type": "bool"
            },
            {
              "internalType": "address",
              "name": "borrower",
              "type": "address"
            },
            {
              "internalType": "bool",
              "name": "isLiquidated",
              "type": "bool"
            },
            {
              "internalType": "contract IERC20Standard",
              "name": "stableCoin",
              "type": "address"
            },
            {
              "internalType": "bool",
              "name": "isFinalty",
              "type": "bool"
            },
            {
              "internalType": "bool",
              "name": "isFiat",
              "type": "bool"
            },
            {
              "internalType": "bytes12",
              "name": "encryptusId",
              "type": "bytes12"
            },
            {
              "internalType": "uint256",
              "name": "closedAmount",
              "type": "uint256"
            }
          ],
          "internalType": "struct DataTypes.Loan",
          "name": "",
          "type": "tuple"
        }
      ],
      "stateMutability": "view",
      "type": "function"
    },
    {
      "inputs": [
        {
          "internalType": "address",
          "name": "user",
          "type": "address"
        }
      ],
      "name": "getUserAccountData",
      "outputs": [
        {
          "internalType": "uint256",
          "name": "totalCollateralBase",
          "type": "uint256"
        },
        {
          "internalType": "uint256",
          "name": "totalDebtBase",
          "type": "uint256"
        },
        {
          "internalType": "uint256",
          "name": "availableBorrowsBase",
          "type": "uint256"
        },
        {
          "internalType": "uint256",
          "name": "currentLiquidationThreshold",
          "type": "uint256"
        },
        {
          "internalType": "uint256",
          "name": "ltv",
          "type": "uint256"
        },
        {
          "internalType": "uint256",
          "name": "healthFactor",
          "type": "uint256"
        }
      ],
      "stateMutability": "view",
      "type": "function"
    },
    {
      "inputs": [
        {
          "internalType": "uint256",
          "name": "_earnBorrower",
          "type": "uint256"
        }
      ],
      "name": "getYieldEarned",
      "outputs": [
        {
          "internalType": "uint256",
          "name": "",
          "type": "uint256"
        }
      ],
      "stateMutability": "view",
      "type": "function"
    },
    {
      "inputs": [],
      "name": "iFSFIConfig",
      "outputs": [
        {
          "internalType": "contract IFSFIConfig",
          "name": "",
          "type": "address"
        }
      ],
      "stateMutability": "view",
      "type": "function"
    },
    {
      "inputs": [],
      "name": "initLoan",
      "outputs": [
        {
          "internalType": "uint256",
          "name": "loanId",
          "type": "uint256"
        },
        {
          "internalType": "uint256",
          "name": "amount",
          "type": "uint256"
        },
        {
          "internalType": "bool",
          "name": "isClosed",
          "type": "bool"
        },
        {
          "internalType": "address",
          "name": "borrower",
          "type": "address"
        },
        {
          "internalType": "bool",
          "name": "isLiquidated",
          "type": "bool"
        },
        {
          "internalType": "contract IERC20Standard",
          "name": "stableCoin",
          "type": "address"
        },
        {
          "internalType": "bool",
          "name": "isFinalty",
          "type": "bool"
        },
        {
          "internalType": "bool",
          "name": "isFiat",
          "type": "bool"
        },
        {
          "internalType": "bytes12",
          "name": "encryptusId",
          "type": "bytes12"
        },
        {
          "internalType": "uint256",
          "name": "closedAmount",
          "type": "uint256"
        }
      ],
      "stateMutability": "view",
      "type": "function"
    },
    {
      "inputs": [
        {
          "components": [
            {
              "internalType": "uint256",
              "name": "loanId",
              "type": "uint256"
            },
            {
              "internalType": "uint256",
              "name": "amount",
              "type": "uint256"
            },
            {
              "internalType": "bool",
              "name": "isClosed",
              "type": "bool"
            },
            {
              "internalType": "address",
              "name": "borrower",
              "type": "address"
            },
            {
              "internalType": "bool",
              "name": "isLiquidated",
              "type": "bool"
            },
            {
              "internalType": "contract IERC20Standard",
              "name": "stableCoin",
              "type": "address"
            },
            {
              "internalType": "bool",
              "name": "isFinalty",
              "type": "bool"
            },
            {
              "internalType": "bool",
              "name": "isFiat",
              "type": "bool"
            },
            {
              "internalType": "bytes12",
              "name": "encryptusId",
              "type": "bytes12"
            },
            {
              "internalType": "uint256",
              "name": "closedAmount",
              "type": "uint256"
            }
          ],
          "internalType": "struct DataTypes.Loan",
          "name": "_loan",
          "type": "tuple"
        },
        {
          "internalType": "contract IERC20Standard",
          "name": "_collateralToken",
          "type": "address"
        },
        {
          "internalType": "contract IFSFIConfig",
          "name": "_iFSFIConfig",
          "type": "address"
        }
      ],
      "name": "initialize",
      "outputs": [],
      "stateMutability": "nonpayable",
      "type": "function"
    },
    {
      "inputs": [],
      "name": "isStakeAave",
      "outputs": [
        {
          "internalType": "bool",
          "name": "",
          "type": "bool"
        }
      ],
      "stateMutability": "view",
      "type": "function"
    },
    {
      "inputs": [
        {
          "internalType": "uint256",
          "name": "_currentDebt",
          "type": "uint256"
        }
      ],
      "name": "liquidate",
      "outputs": [
        {
          "internalType": "uint256",
          "name": "",
          "type": "uint256"
        },
        {
          "internalType": "uint256",
          "name": "",
          "type": "uint256"
        },
        {
          "internalType": "uint256",
          "name": "",
          "type": "uint256"
        },
        {
          "internalType": "uint256",
          "name": "",
          "type": "uint256"
        }
      ],
      "stateMutability": "nonpayable",
      "type": "function"
    },
    {
      "inputs": [],
      "name": "owner",
      "outputs": [
        {
          "internalType": "address",
          "name": "",
          "type": "address"
        }
      ],
      "stateMutability": "view",
      "type": "function"
    },
    {
      "inputs": [],
      "name": "platform",
      "outputs": [
        {
          "internalType": "address",
          "name": "",
          "type": "address"
        }
      ],
      "stateMutability": "view",
      "type": "function"
    },
    {
      "inputs": [
        {
          "internalType": "address",
          "name": "_fsfi",
          "type": "address"
        }
      ],
      "name": "setFSFI",
      "outputs": [],
      "stateMutability": "nonpayable",
      "type": "function"
    },
    {
      "inputs": [
        {
          "internalType": "uint24",
          "name": "_uniFee",
          "type": "uint24"
        }
      ],
      "name": "setUniFee",
      "outputs": [],
      "stateMutability": "nonpayable",
      "type": "function"
    },
    {
      "inputs": [],
      "name": "shareBorrower",
      "outputs": [
        {
          "internalType": "uint256",
          "name": "",
          "type": "uint256"
        }
      ],
      "stateMutability": "view",
      "type": "function"
    },
    {
      "inputs": [],
      "name": "shareLender",
      "outputs": [
        {
          "internalType": "uint256",
          "name": "",
          "type": "uint256"
        }
      ],
      "stateMutability": "view",
      "type": "function"
    },
    {
      "inputs": [],
      "name": "sharePlatform",
      "outputs": [
        {
          "internalType": "uint256",
          "name": "",
          "type": "uint256"
        }
      ],
      "stateMutability": "view",
      "type": "function"
    },
    {
      "inputs": [],
      "name": "supplyLiquidity",
      "outputs": [],
      "stateMutability": "nonpayable",
      "type": "function"
    },
    {
      "inputs": [
        {
          "internalType": "uint256",
          "name": "amount",
          "type": "uint256"
        }
      ],
      "name": "updateCollateral",
      "outputs": [],
      "stateMutability": "nonpayable",
      "type": "function"
    },
    {
      "inputs": [
        {
          "internalType": "address",
          "name": "_receiver",
          "type": "address"
        },
        {
          "internalType": "bool",
          "name": "_isETH",
          "type": "bool"
        }
      ],
      "name": "withdrawAllCollateral",
      "outputs": [],
      "stateMutability": "nonpayable",
      "type": "function"
    },
    {
      "inputs": [
        {
          "internalType": "uint256",
          "name": "_earnPlatform",
          "type": "uint256"
        },
        {
          "internalType": "uint256",
          "name": "_earnBorrower",
          "type": "uint256"
        },
        {
          "internalType": "uint256",
          "name": "_earnLender",
          "type": "uint256"
        }
      ],
      "name": "withdrawLiquidity",
      "outputs": [],
      "stateMutability": "nonpayable",
      "type": "function"
    },
    {
      "stateMutability": "payable",
      "type": "receive"
    }
  ],
  "bytecode": "0x60806040526000805462ffffff60a81b191661017760ab1b17905534801561002657600080fd5b50613b89806100366000396000f3fe6080604052600436106101d15760003560e01c80635d3e2fa1116100f7578063894059c611610095578063964236631161006457806396423663146106f5578063b2016bd414610713578063bf92857c14610733578063d22f2c3d1461078057600080fd5b8063894059c61461067f5780638da5cb5b1461069f57806392d09ceb146106bf57806394990c2f146106d557600080fd5b806372f5d98a116100d157806372f5d98a14610548578063792f436f1461057f5780637ce67d6014610595578063805a288f1461065f57600080fd5b80635d3e2fa1146103fa5780636721de261461050857806369fa97c01461052857600080fd5b8063288cc89e1161016f578063415f12401161013e578063415f12401461035a5780634bde38c81461039a5780634d2c872a146103ba57806358b275d7146103da57600080fd5b8063288cc89e146102ef57806331409fe114610305578063315deeaa146103255780633666eefa1461033a57600080fd5b806311256603116101ab578063112566031461023d578063134933da1461026e5780631c783def146102a6578063232fa733146102c557600080fd5b806305b57c0b146101dd57806307a6bf6914610206578063102cb82e1461021d57600080fd5b366101d857005b600080fd5b3480156101e957600080fd5b506101f3600d5481565b6040519081526020015b60405180910390f35b34801561021257600080fd5b5061021b6107a0565b005b34801561022957600080fd5b5061021b610238366004613455565b610af1565b34801561024957600080fd5b5060005461025e90600160a01b900460ff1681565b60405190151581526020016101fd565b34801561027a57600080fd5b5060095461028e906001600160a01b031681565b6040516001600160a01b0390911681526020016101fd565b3480156102b257600080fd5b50600054600160a01b900460ff1661025e565b3480156102d157600080fd5b506102da610ebc565b604080519283526020830191909152016101fd565b3480156102fb57600080fd5b506101f3600b5481565b34801561031157600080fd5b5061021b6103203660046134de565b6113e4565b34801561033157600080fd5b506001546101f3565b34801561034657600080fd5b506102da6103553660046135ca565b6116ba565b34801561036657600080fd5b5061037a6103753660046135ca565b611873565b6040805194855260208501939093529183015260608201526080016101fd565b3480156103a657600080fd5b50600a5461028e906001600160a01b031681565b3480156103c657600080fd5b506101f36103d53660046135e3565b611cb7565b3480156103e657600080fd5b5061037a6103f53660046135e3565b611fd4565b34801561040657600080fd5b506104fb6040805161014081018252600080825260208201819052918101829052606081018290526080810182905260a0810182905260c0810182905260e0810182905261010081018290526101208101919091525060408051610140810182526003548152600454602082015260055460ff8082161515938301939093526001600160a01b0361010080830482166060850152600160a81b9283900485161515608085015260065491821660a080860191909152600160a01b83048616151560c086015292909104909316151560e08301526007546001600160a01b0319911b169181019190915260085461012082015290565b6040516101fd9190613605565b34801561051457600080fd5b5061021b6105233660046135ca565b6121db565b34801561053457600080fd5b506101f36105433660046135ca565b6122d3565b34801561055457600080fd5b5060005461056b90600160a81b900462ffffff1681565b60405162ffffff90911681526020016101fd565b34801561058b57600080fd5b506101f3600c5481565b3480156105a157600080fd5b506003546004546005546006546007546008546105f795949360ff808216946001600160a01b036101008404811695600160a81b9485900484169591831694600160a01b840485169493049092169160a01b908a565b604080519a8b5260208b0199909952961515978901979097526001600160a01b0394851660608901529215156080880152921660a086015290151560c0850152151560e08401526001600160a01b0319909116610100830152610120820152610140016101fd565b34801561066b57600080fd5b5061021b61067a3660046136da565b6124eb565b34801561068b57600080fd5b5061021b61069a3660046136fe565b612574565b3480156106ab57600080fd5b5060005461028e906001600160a01b031681565b3480156106cb57600080fd5b506101f360015481565b3480156106e157600080fd5b5061021b6106f036600461372a565b6129cc565b34801561070157600080fd5b506002546001600160a01b031661028e565b34801561071f57600080fd5b5060025461028e906001600160a01b031681565b34801561073f57600080fd5b5061075361074e36600461372a565b612a33565b604080519687526020870195909552938501929092526060840152608083015260a082015260c0016101fd565b34801561078c57600080fd5b50600e5461028e906001600160a01b031681565b6000546040805180820190915260018152601960f91b6020820152906001600160a01b031633146107ed5760405162461bcd60e51b81526004016107e4919061376b565b60405180910390fd5b506002546040516370a0823160e01b81523060048201526001600160a01b039091169060009082906370a0823190602401602060405180830381865afa15801561083b573d6000803e3d6000fd5b505050506040513d601f19601f8201168201806040525081019061085f919061379e565b90506000811160405180604001604052806002815260200161031360f41b8152509061089e5760405162461bcd60e51b81526004016107e4919061376b565b506000309050600080600e60009054906101000a90046001600160a01b03166001600160a01b031663d03f6bac6040518163ffffffff1660e01b8152600401602060405180830381865afa1580156108fa573d6000803e3d6000fd5b505050506040513d601f19601f8201168201806040525081019061091e91906137b7565b90506000816001600160a01b031663026b1d5f6040518163ffffffff1660e01b8152600401602060405180830381865afa158015610960573d6000803e3d6000fd5b505050506040513d601f19601f8201168201806040525081019061098491906137b7565b60405163095ea7b360e01b81526001600160a01b038083166004830152602482018890529192509087169063095ea7b3906044016020604051808303816000875af11580156109d7573d6000803e3d6000fd5b505050506040513d601f19601f820116820180604052508101906109fb91906137d4565b506040517f617ba0370000000000000000000000000000000000000000000000000000000081526001600160a01b03878116600483015260248201879052858116604483015261ffff8516606483015282169063617ba03790608401600060405180830381600087803b158015610a7157600080fd5b505af1158015610a85573d6000803e3d6000fd5b50505050856001600160a01b0316846001600160a01b03167f51a2b359618aeb0bcc2a495a6667c0bdbfddc3bb27eb0dd5b8e3b33a4c15865f87604051610ace91815260200190565b60405180910390a350506000805460ff60a01b1916600160a01b17905550505050565b6000546040805180820190915260018152601960f91b6020820152906001600160a01b03163314610b355760405162461bcd60e51b81526004016107e4919061376b565b5060055460ff1615156001148015610b575750600654600160a01b900460ff16155b6040518060400160405280600281526020017f313200000000000000000000000000000000000000000000000000000000000081525090610bab5760405162461bcd60e51b81526004016107e4919061376b565b508015610da657600e54604080517fcae5f11e00000000000000000000000000000000000000000000000000000000815290516000926001600160a01b03169163cae5f11e9160048083019260209291908290030181865afa158015610c15573d6000803e3d6000fd5b505050506040513d601f19601f82011682018060405250810190610c3991906137b7565b6002546040516370a0823160e01b81523060048201529192506001600160a01b0380841692632e1a7d4d9291909116906370a0823190602401602060405180830381865afa158015610c8f573d6000803e3d6000fd5b505050506040513d601f19601f82011682018060405250810190610cb3919061379e565b6040518263ffffffff1660e01b8152600401610cd191815260200190565b600060405180830381600087803b158015610ceb57600080fd5b505af1158015610cff573d6000803e3d6000fd5b50506002546040516370a0823160e01b81523060048201526001600160a01b0387811694506108fc9350909116906370a0823190602401602060405180830381865afa158015610d53573d6000803e3d6000fd5b505050506040513d601f19601f82011682018060405250810190610d77919061379e565b6040518115909202916000818181858888f19350505050158015610d9f573d6000803e3d6000fd5b5050610ea5565b6002546040516370a0823160e01b81523060048201526001600160a01b039091169063a9059cbb90849083906370a0823190602401602060405180830381865afa158015610df8573d6000803e3d6000fd5b505050506040513d601f19601f82011682018060405250810190610e1c919061379e565b6040517fffffffff0000000000000000000000000000000000000000000000000000000060e085901b1681526001600160a01b03909216600483015260248201526044016020604051808303816000875af1158015610e7f573d6000803e3d6000fd5b505050506040513d601f19601f82011682018060405250810190610ea391906137d4565b505b50506006805460ff60a01b1916600160a01b179055565b600080546040805180820190915260018152601960f91b602082015282916001600160a01b03163314610f025760405162461bcd60e51b81526004016107e4919061376b565b506000806000600e60009054906101000a90046001600160a01b03166001600160a01b031663725c9c496040518163ffffffff1660e01b8152600401606060405180830381865afa158015610f5b573d6000803e3d6000fd5b505050506040513d601f19601f82011682018060405250810190610f7f91906137f1565b9250925092506000806000600e60009054906101000a90046001600160a01b03166001600160a01b031663c2dcadab6040518163ffffffff1660e01b8152600401606060405180830381865afa158015610fdd573d6000803e3d6000fd5b505050506040513d601f19601f82011682018060405250810190611001919061383e565b6005805460ff191660011790556004546008556000549295509093509150600160a01b900460ff161561122057600e546002546040516363df573560e11b81526001600160a01b039182166004820152600092919091169063c7beae6a90602401602060405180830381865afa15801561107f573d6000803e3d6000fd5b505050506040513d601f19601f820116820180604052508101906110a391906137b7565b9050806001600160a01b031663313ce5676040518163ffffffff1660e01b8152600401602060405180830381865afa1580156110e3573d6000803e3d6000fd5b505050506040513d601f19601f82011682018060405250810190611107919061386c565b61111290600a613989565b600260009054906101000a90046001600160a01b03166001600160a01b031663313ce5676040518163ffffffff1660e01b8152600401602060405180830381865afa158015611165573d6000803e3d6000fd5b505050506040513d601f19601f82011682018060405250810190611189919061386c565b61119490600a613989565b6040516370a0823160e01b81523060048201526001600160a01b038416906370a0823190602401602060405180830381865afa1580156111d8573d6000803e3d6000fd5b505050506040513d601f19601f820116820180604052508101906111fc919061379e565b6112069190613998565b61121091906139af565b60085561121e828486612574565b505b6000600b54600c5461123291906139d1565b11156113d257600254600b54600c546001600160a01b039092169163095ea7b391899161125f91906139d1565b6040517fffffffff0000000000000000000000000000000000000000000000000000000060e085901b1681526001600160a01b03909216600483015260248201526044016020604051808303816000875af11580156112c2573d6000803e3d6000fd5b505050506040513d601f19601f820116820180604052508101906112e691906137d4565b506000611314600b54600c546112fc91906139d1565b6006546002546001600160a01b039182169116612bb8565b60065460095460405163095ea7b360e01b81526001600160a01b03918216600482015260248101849052929350169063095ea7b3906044016020604051808303816000875af115801561136b573d6000803e3d6000fd5b505050506040513d601f19601f8201168201806040525081019061138f91906137d4565b50600061139c83866139d1565b6113a68387613998565b6113b091906139af565b905060006113be82846139e4565b919a509098506113e0975050505050505050565b600080975097505050505050505b9091565b7ff0c57e16840df040f15088dc2f81fe391c3923bec73e23a9662efc9c229c6a00805468010000000000000000810460ff16159067ffffffffffffffff1660008115801561142f5750825b905060008267ffffffffffffffff16600114801561144c5750303b155b90508115801561145a575080155b15611491576040517ff92ee8a900000000000000000000000000000000000000000000000000000000815260040160405180910390fd5b845467ffffffffffffffff1916600117855583156114c557845468ff00000000000000001916680100000000000000001785555b336000806101000a8154816001600160a01b0302191690836001600160a01b0316021790555085600e60006101000a8154816001600160a01b0302191690836001600160a01b03160217905550876003600082015181600001556020820151816001015560408201518160020160006101000a81548160ff02191690831515021790555060608201518160020160016101000a8154816001600160a01b0302191690836001600160a01b0316021790555060808201518160020160156101000a81548160ff02191690831515021790555060a08201518160030160006101000a8154816001600160a01b0302191690836001600160a01b0316021790555060c08201518160030160146101000a81548160ff02191690831515021790555060e08201518160030160156101000a81548160ff0219169083151502179055506101008201518160040160006101000a8154816bffffffffffffffffffffffff021916908360a01c0217905550610120820151816005015590505086600260006101000a8154816001600160a01b0302191690836001600160a01b0316021790555083156116b057845468ff000000000000000019168555604051600181527fc7f505b2f371ae2175ee4913f4499e1f2633a7b5936321eed1cdaeb6115181d29060200160405180910390a15b5050505050505050565b6000806000806000600e60009054906101000a90046001600160a01b03166001600160a01b031663e56e56db6040518163ffffffff1660e01b8152600401606060405180830381865afa158015611715573d6000803e3d6000fd5b505050506040513d601f19601f82011682018060405250810190611739919061383e565b9194509250905060008161174d84866139d1565b61175791906139d1565b9050600080600b54600c5461176c91906139d1565b11156117a05761179d600b54600c5461178591906139d1565b6002546006546001600160a01b039182169116612e0b565b90505b60006127106117af848b613998565b6117b991906139af565b90506000826117c8838c6139d1565b6117d291906139d1565b6002546040516370a0823160e01b81523060048201529192506000916118629184916001600160a01b03909116906370a0823190602401602060405180830381865afa158015611826573d6000803e3d6000fd5b505050506040513d601f19601f8201168201806040525081019061184a919061379e565b6006546002546001600160a01b03918216911661307e565b9b939a509298505050505050505050565b600080546040805180820190915260018152601960f91b60208201528291829182916001600160a01b031633146118bd5760405162461bcd60e51b81526004016107e4919061376b565b5060646118cb866000611cb7565b106040518060400160405280600281526020017f3131000000000000000000000000000000000000000000000000000000000000815250906119205760405162461bcd60e51b81526004016107e4919061376b565b5060048054600855600e54604080517fc2dcadab0000000000000000000000000000000000000000000000000000000081529051600093849384936001600160a01b039091169263c2dcadab928281019260609291908290030181865afa15801561198f573d6000803e3d6000fd5b505050506040513d601f19601f820116820180604052508101906119b3919061383e565b6000549295509093509150600160a01b900460ff1615611bbf57600e546002546040516363df573560e11b81526001600160a01b039182166004820152600092919091169063c7beae6a90602401602060405180830381865afa158015611a1e573d6000803e3d6000fd5b505050506040513d601f19601f82011682018060405250810190611a4291906137b7565b9050806001600160a01b031663313ce5676040518163ffffffff1660e01b8152600401602060405180830381865afa158015611a82573d6000803e3d6000fd5b505050506040513d601f19601f82011682018060405250810190611aa6919061386c565b611ab190600a613989565b600260009054906101000a90046001600160a01b03166001600160a01b031663313ce5676040518163ffffffff1660e01b8152600401602060405180830381865afa158015611b04573d6000803e3d6000fd5b505050506040513d601f19601f82011682018060405250810190611b28919061386c565b611b3390600a613989565b6040516370a0823160e01b81523060048201526001600160a01b038416906370a0823190602401602060405180830381865afa158015611b77573d6000803e3d6000fd5b505050506040513d601f19601f82011682018060405250810190611b9b919061379e565b611ba59190613998565b611baf91906139af565b600855611bbd828486612574565b505b600080611bcb8a6116ba565b91509150600080600080611bdf8e86611fd4565b600580547fffffffffffffffffffff00ffffffffffffffffffffffffffffffffffffffff0016750100000000000000000000000000000000000000000117905560065460095460405163095ea7b360e01b81526001600160a01b039182166004820152602481018d90529599509397509195509350169063095ea7b3906044016020604051808303816000875af1158015611c7e573d6000803e3d6000fd5b505050506040513d601f19601f82011682018060405250810190611ca291906137d4565b50929d919c509a509098509650505050505050565b600e546006546040516359dfff5560e11b81526001600160a01b039182166004820152600160248201526000928392169063b3bffeaa90604401602060405180830381865afa158015611d0e573d6000803e3d6000fd5b505050506040513d601f19601f82011682018060405250810190611d32919061379e565b905060008084600154611d4591906139d1565b6002549091506001600160a01b03168115611f0557600e546040516359dfff5560e11b81526001600160a01b03838116600483015260006024830181905292169063b3bffeaa90604401602060405180830381865afa158015611dac573d6000803e3d6000fd5b505050506040513d601f19601f82011682018060405250810190611dd0919061379e565b600e54604080517fe75235b8000000000000000000000000000000000000000000000000000000008152815193945060009384936001600160a01b03169263e75235b892600480820193918290030181865afa158015611e34573d6000803e3d6000fd5b505050506040513d601f19601f82011682018060405250810190611e5891906139f7565b91509150836001600160a01b031663313ce5676040518163ffffffff1660e01b8152600401602060405180830381865afa158015611e9a573d6000803e3d6000fd5b505050506040513d601f19601f82011682018060405250810190611ebe919061386c565b611ec990600a613989565b61271082611ed78689613998565b611ee19190613998565b611eeb91906139af565b611ef591906139af565b611eff90876139d1565b95505050505b600654604080517f313ce56700000000000000000000000000000000000000000000000000000000815290516000926001600160a01b03169163313ce5679160048083019260209291908290030181865afa158015611f68573d6000803e3d6000fd5b505050506040513d601f19601f82011682018060405250810190611f8c919061386c565b611f9790600a613989565b611fa1868a613998565b611fab91906139af565b9050600081611fbb866064613998565b611fc591906139af565b96505050505050505b92915050565b6000806000806000806000806000600e60009054906101000a90046001600160a01b03166001600160a01b031663c2dcadab6040518163ffffffff1660e01b8152600401606060405180830381865afa158015612035573d6000803e3d6000fd5b505050506040513d601f19601f82011682018060405250810190612059919061383e565b600e54604080517fe56e56db0000000000000000000000000000000000000000000000000000000081529051949950919750600096508695508594506001600160a01b03169263e56e56db925060048083019260609291908290030181865afa1580156120ca573d6000803e3d6000fd5b505050506040513d601f19601f820116820180604052508101906120ee919061383e565b9194509250905060008161210284866139d1565b61210c91906139d1565b9050600061271061211d838f613998565b61212791906139af565b90506000826121368584613998565b61214091906139af565b9050600061214e888a6139d1565b898f61215a9190613998565b61216491906139af565b90506000818f61217491906139e4565b9050846121818986613998565b61218b91906139af565b8261219683866139d1565b85886121a28d8a613998565b6121ac91906139af565b6121b690896139e4565b6121c091906139e4565b9d509d509d509d505050505050505050505092959194509250565b6000546040805180820190915260018152601960f91b6020820152906001600160a01b0316331461221f5760405162461bcd60e51b81526004016107e4919061376b565b50806001600082825461223291906139d1565b90915550506002546009546040517f23b872dd0000000000000000000000000000000000000000000000000000000081526001600160a01b039182166004820152306024820152604481018490529116906323b872dd906064016020604051808303816000875af11580156122ab573d6000803e3d6000fd5b505050506040513d601f19601f820116820180604052508101906122cf91906137d4565b5050565b600e546002546040516363df573560e11b81526001600160a01b0391821660048201526000928392169063c7beae6a90602401602060405180830381865afa158015612323573d6000803e3d6000fd5b505050506040513d601f19601f8201168201806040525081019061234791906137b7565b6040516370a0823160e01b81523060048201529091506000906001600160a01b038316906370a0823190602401602060405180830381865afa158015612391573d6000803e3d6000fd5b505050506040513d601f19601f820116820180604052508101906123b5919061379e565b90506000600154836001600160a01b031663313ce5676040518163ffffffff1660e01b8152600401602060405180830381865afa1580156123fa573d6000803e3d6000fd5b505050506040513d601f19601f8201168201806040525081019061241e919061386c565b61242990600a613989565b600260009054906101000a90046001600160a01b03166001600160a01b031663313ce5676040518163ffffffff1660e01b8152600401602060405180830381865afa15801561247c573d6000803e3d6000fd5b505050506040513d601f19601f820116820180604052508101906124a0919061386c565b6124ab90600a613989565b6124b59085613998565b6124bf91906139af565b6124c991906139e4565b90506127106124d88683613998565b6124e291906139af565b95945050505050565b6000546040805180820190915260018152601960f91b6020820152906001600160a01b0316331461252f5760405162461bcd60e51b81526004016107e4919061376b565b5062ffffff81161561257157600080547fffffffffffffffff000000ffffffffffffffffffffffffffffffffffffffffff16600160a81b62ffffff8416021790555b50565b6000546040805180820190915260018152601960f91b6020820152906001600160a01b031633146125b85760405162461bcd60e51b81526004016107e4919061376b565b50600254600e546040516363df573560e11b81526001600160a01b039283166004820181905292600092169063c7beae6a90602401602060405180830381865afa15801561260a573d6000803e3d6000fd5b505050506040513d601f19601f8201168201806040525081019061262e91906137b7565b6040516370a0823160e01b81523060048201529091506000906001600160a01b038316906370a0823190602401602060405180830381865afa158015612678573d6000803e3d6000fd5b505050506040513d601f19601f8201168201806040525081019061269c919061379e565b90506000811160405180604001604052806002815260200161031360f41b815250906126db5760405162461bcd60e51b81526004016107e4919061376b565b50600e54604080517fd03f6bac00000000000000000000000000000000000000000000000000000000815290516000926001600160a01b03169163d03f6bac9160048083019260209291908290030181865afa15801561273f573d6000803e3d6000fd5b505050506040513d601f19601f8201168201806040525081019061276391906137b7565b90506000816001600160a01b031663026b1d5f6040518163ffffffff1660e01b8152600401602060405180830381865afa1580156127a5573d6000803e3d6000fd5b505050506040513d601f19601f820116820180604052508101906127c991906137b7565b6040517f69328dec0000000000000000000000000000000000000000000000000000000081526001600160a01b03878116600483015260248201869052306044830152919250908216906369328dec906064016020604051808303816000875af115801561283b573d6000803e3d6000fd5b505050506040513d601f19601f8201168201806040525081019061285f919061379e565b506040518381526001600160a01b0386169030907f83aa598dd3e269af677698c6847b3ba594a67d286a771d01099aafa911a91b649060200160405180910390a36000805460ff60a01b191681556002546040516370a0823160e01b81523060048201526001600160a01b03909116906370a0823190602401602060405180830381865afa1580156128f5573d6000803e3d6000fd5b505050506040513d601f19601f82011682018060405250810190612919919061379e565b905060006001548261292b91906139e4565b11156129c157612710886001548361294391906139e4565b61294d9190613998565b61295791906139af565b600d5561296489886139d1565b89600d546001548461297691906139e4565b61298091906139e4565b61298a9190613998565b61299491906139af565b600b819055600d546001546129a990846139e4565b6129b391906139e4565b6129bd91906139e4565b600c555b505050505050505050565b6000546040805180820190915260018152601960f91b6020820152906001600160a01b03163314612a105760405162461bcd60e51b81526004016107e4919061376b565b50600980546001600160a01b0319166001600160a01b0392909216919091179055565b6000806000806000806000600e60009054906101000a90046001600160a01b03166001600160a01b031663d03f6bac6040518163ffffffff1660e01b8152600401602060405180830381865afa158015612a91573d6000803e3d6000fd5b505050506040513d601f19601f82011682018060405250810190612ab591906137b7565b90506000816001600160a01b031663026b1d5f6040518163ffffffff1660e01b8152600401602060405180830381865afa158015612af7573d6000803e3d6000fd5b505050506040513d601f19601f82011682018060405250810190612b1b91906137b7565b6040517fbf92857c0000000000000000000000000000000000000000000000000000000081526001600160a01b038b811660048301529192509082169063bf92857c9060240160c060405180830381865afa158015612b7e573d6000803e3d6000fd5b505050506040513d601f19601f82011682018060405250810190612ba29190613a1b565b949e939d50919b50995097509095509350505050565b600080600080600e60009054906101000a90046001600160a01b03166001600160a01b031663725c9c496040518163ffffffff1660e01b8152600401606060405180830381865afa158015612c11573d6000803e3d6000fd5b505050506040513d601f19601f82011682018060405250810190612c3591906137f1565b925092509250612c468584896132e7565b60008054604051630b4c774160e11b81526001600160a01b0388811660048301528981166024830152600160a81b90920462ffffff16604482015290841690631698ee8290606401602060405180830381865afa158015612cab573d6000803e3d6000fd5b505050506040513d601f19601f82011682018060405250810190612ccf91906137b7565b90506000816001600160a01b031663ddca3f436040518163ffffffff1660e01b8152600401602060405180830381865afa158015612d11573d6000803e3d6000fd5b505050506040513d601f19601f82011682018060405250810190612d359190613a65565b6040805160e0810182526001600160a01b03808b1682528b8116602083015262ffffff841682840152306060830152608082018d9052600060a0830181905260c083015291517f04e45aaf00000000000000000000000000000000000000000000000000000000815292935091908716906304e45aaf90612dba908490600401613a82565b6020604051808303816000875af1158015612dd9573d6000803e3d6000fd5b505050506040513d601f19601f82011682018060405250810190612dfd919061379e565b9a9950505050505050505050565b600080600080600e60009054906101000a90046001600160a01b03166001600160a01b031663725c9c496040518163ffffffff1660e01b8152600401606060405180830381865afa158015612e64573d6000803e3d6000fd5b505050506040513d601f19601f82011682018060405250810190612e8891906137f1565b60008054604051630b4c774160e11b81526001600160a01b038b811660048301528c81166024830152600160a81b90920462ffffff1660448201529497509295509093509190841690631698ee8290606401602060405180830381865afa158015612ef7573d6000803e3d6000fd5b505050506040513d601f19601f82011682018060405250810190612f1b91906137b7565b90506000816001600160a01b031663ddca3f436040518163ffffffff1660e01b8152600401602060405180830381865afa158015612f5d573d6000803e3d6000fd5b505050506040513d601f19601f82011682018060405250810190612f819190613a65565b6040805160a0810182526001600160a01b03808b1682528b8116602083019081528284018e815262ffffff8087166060860190815260006080870181815297517fc6a5026a0000000000000000000000000000000000000000000000000000000081528751871660048201529451861660248601529251604485015251166064830152935182166084820152939450909282918291829189169063c6a5026a9060a4016080604051808303816000875af1158015613043573d6000803e3d6000fd5b505050506040513d601f19601f820116820180604052508101906130679190613ae5565b50919c505050505050505050505050509392505050565b600080600080600e60009054906101000a90046001600160a01b03166001600160a01b031663725c9c496040518163ffffffff1660e01b8152600401606060405180830381865afa1580156130d7573d6000803e3d6000fd5b505050506040513d601f19601f820116820180604052508101906130fb91906137f1565b92509250925061310c8584896132e7565b60008054604051630b4c774160e11b81526001600160a01b0388811660048301528981166024830152600160a81b90920462ffffff16604482015290841690631698ee8290606401602060405180830381865afa158015613171573d6000803e3d6000fd5b505050506040513d601f19601f8201168201806040525081019061319591906137b7565b90506000816001600160a01b031663ddca3f436040518163ffffffff1660e01b8152600401602060405180830381865afa1580156131d7573d6000803e3d6000fd5b505050506040513d601f19601f820116820180604052508101906131fb9190613a65565b6040805160e0810182526001600160a01b03808b1682528b8116602083015262ffffff841682840152306060830152608082018e905260a082018d9052600060c083015291517f5023b4df0000000000000000000000000000000000000000000000000000000081529293509190871690635023b4df90613280908490600401613a82565b6020604051808303816000875af115801561329f573d6000803e3d6000fd5b505050506040513d601f19601f820116820180604052508101906132c3919061379e565b9650898710156132d9576132d9888760006132e7565b505050505050949350505050565b604080516001600160a01b038481166024830152604480830185905283518084039091018152606490920183526020820180517bffffffffffffffffffffffffffffffffffffffffffffffffffffffff1663095ea7b360e01b17905291516000928392908716916133589190613b37565b6000604051808303816000865af19150503d8060008114613395576040519150601f19603f3d011682016040523d82523d6000602084013e61339a565b606091505b50915091508180156133c45750805115806133c45750808060200190518101906133c491906137d4565b6134105760405162461bcd60e51b815260206004820152600260248201527f534100000000000000000000000000000000000000000000000000000000000060448201526064016107e4565b5050505050565b6001600160a01b038116811461257157600080fd5b803561343781613417565b919050565b801515811461257157600080fd5b80356134378161343c565b6000806040838503121561346857600080fd5b823561347381613417565b915060208301356134838161343c565b809150509250929050565b604051610140810167ffffffffffffffff811182821017156134c057634e487b7160e01b600052604160045260246000fd5b60405290565b80356001600160a01b03198116811461343757600080fd5b60008060008385036101808112156134f557600080fd5b6101408082121561350557600080fd5b61350d61348e565b915085358252602086013560208301526135296040870161344a565b604083015261353a6060870161342c565b606083015261354b6080870161344a565b608083015261355c60a0870161342c565b60a083015261356d60c0870161344a565b60c083015261357e60e0870161344a565b60e08301526101006135918188016134c6565b81840152506101208087013581840152508194506135b081870161342c565b935050506135c1610160850161342c565b90509250925092565b6000602082840312156135dc57600080fd5b5035919050565b600080604083850312156135f657600080fd5b50508035926020909101359150565b6000610140820190508251825260208301516020830152604083015161362f604084018215159052565b50606083015161364a60608401826001600160a01b03169052565b50608083015161365e608084018215159052565b5060a083015161367960a08401826001600160a01b03169052565b5060c083015161368d60c084018215159052565b5060e08301516136a160e084018215159052565b50610100838101516001600160a01b0319811684830152505061012092830151919092015290565b62ffffff8116811461257157600080fd5b6000602082840312156136ec57600080fd5b81356136f7816136c9565b9392505050565b60008060006060848603121561371357600080fd5b505081359360208301359350604090920135919050565b60006020828403121561373c57600080fd5b81356136f781613417565b60005b8381101561376257818101518382015260200161374a565b50506000910152565b602081526000825180602084015261378a816040850160208701613747565b601f01601f19169190910160400192915050565b6000602082840312156137b057600080fd5b5051919050565b6000602082840312156137c957600080fd5b81516136f781613417565b6000602082840312156137e657600080fd5b81516136f78161343c565b60008060006060848603121561380657600080fd5b835161381181613417565b602085015190935061382281613417565b604085015190925061383381613417565b809150509250925092565b60008060006060848603121561385357600080fd5b8351925060208401519150604084015190509250925092565b60006020828403121561387e57600080fd5b815160ff811681146136f757600080fd5b634e487b7160e01b600052601160045260246000fd5b600181815b808511156138e05781600019048211156138c6576138c661388f565b808516156138d357918102915b93841c93908002906138aa565b509250929050565b6000826138f757506001611fce565b8161390457506000611fce565b816001811461391a576002811461392457613940565b6001915050611fce565b60ff8411156139355761393561388f565b50506001821b611fce565b5060208310610133831016604e8410600b8410161715613963575081810a611fce565b61396d83836138a5565b80600019048211156139815761398161388f565b029392505050565b60006136f760ff8416836138e8565b8082028115828204841417611fce57611fce61388f565b6000826139cc57634e487b7160e01b600052601260045260246000fd5b500490565b80820180821115611fce57611fce61388f565b81810381811115611fce57611fce61388f565b60008060408385031215613a0a57600080fd5b505080516020909101519092909150565b60008060008060008060c08789031215613a3457600080fd5b865195506020870151945060408701519350606087015192506080870151915060a087015190509295509295509295565b600060208284031215613a7757600080fd5b81516136f7816136c9565b60e08101611fce82846001600160a01b0380825116835280602083015116602084015262ffffff60408301511660408401528060608301511660608401526080820151608084015260a082015160a08401528060c08301511660c0840152505050565b60008060008060808587031215613afb57600080fd5b845193506020850151613b0d81613417565b604086015190935063ffffffff81168114613b2757600080fd5b6060959095015193969295505050565b60008251613b49818460208701613747565b919091019291505056fea2646970667358221220fc412d78cd65cf4bf7186eea4c7ef0e11070fc25904787eb9e76aa1b01bb112364736f6c63430008180033",
  "linkReferences": {},
  "deployedLinkReferences": {}
}