{
  "_format": "hh-sol-artifact-1",
  "contractName": "DefaultReserveInterestRateStrategy",
  "sourceName": "contracts/DefaultReserveInterestRateStrategy.sol",
  "abi": [
    {
      "inputs": [
        {
          "internalType": "uint256",
          "name": "optimalUsageRatio",
          "type": "uint256"
        },
        {
          "internalType": "uint256",
          "name": "baseVariableBorrowRate",
          "type": "uint256"
        },
        {
          "internalType": "uint256",
          "name": "variableRateSlope1",
          "type": "uint256"
        },
        {
          "internalType": "uint256",
          "name": "variableRateSlope2",
          "type": "uint256"
        }
      ],
      "stateMutability": "nonpayable",
      "type": "constructor"
    },
    {
      "inputs": [],
      "name": "MAX_EXCESS_USAGE_RATIO",
      "outputs": [
        {
          "internalType": "uint256",
          "name": "",
          "type": "uint256"
        }
      ],
      "stateMutability": "view",
      "type": "function"
    },
    {
      "inputs": [],
      "name": "OPTIMAL_USAGE_RATIO",
      "outputs": [
        {
          "internalType": "uint256",
          "name": "",
          "type": "uint256"
        }
      ],
      "stateMutability": "view",
      "type": "function"
    },
    {
      "inputs": [
        {
          "components": [
            {
              "internalType": "uint256",
              "name": "liquidityAdded",
              "type": "uint256"
            },
            {
              "internalType": "uint256",
              "name": "liquidityTaken",
              "type": "uint256"
            },
            {
              "internalType": "uint256",
              "name": "totalVariableDebt",
              "type": "uint256"
            },
            {
              "internalType": "uint256",
              "name": "totalLiquidity",
              "type": "uint256"
            }
          ],
          "internalType": "struct DataTypes.CalculateInterestRatesParams",
          "name": "params",
          "type": "tuple"
        }
      ],
      "name": "calculateInterestRates",
      "outputs": [
        {
          "internalType": "uint256",
          "name": "",
          "type": "uint256"
        },
        {
          "internalType": "uint256",
          "name": "",
          "type": "uint256"
        }
      ],
      "stateMutability": "view",
      "type": "function"
    },
    {
      "inputs": [],
      "name": "getBaseVariableBorrowRate",
      "outputs": [
        {
          "internalType": "uint256",
          "name": "",
          "type": "uint256"
        }
      ],
      "stateMutability": "view",
      "type": "function"
    },
    {
      "inputs": [],
      "name": "getMaxVariableBorrowRate",
      "outputs": [
        {
          "internalType": "uint256",
          "name": "",
          "type": "uint256"
        }
      ],
      "stateMutability": "view",
      "type": "function"
    },
    {
      "inputs": [],
      "name": "getVariableRateSlope1",
      "outputs": [
        {
          "internalType": "uint256",
          "name": "",
          "type": "uint256"
        }
      ],
      "stateMutability": "view",
      "type": "function"
    },
    {
      "inputs": [],
      "name": "getVariableRateSlope2",
      "outputs": [
        {
          "internalType": "uint256",
          "name": "",
          "type": "uint256"
        }
      ],
      "stateMutability": "view",
      "type": "function"
    }
  ],
  "bytecode": "0x61012060405234801561001157600080fd5b506040516107d43803806107d4833981016040819052610030916100b3565b836b033b2e3c9fd0803ce80000001015604051806040016040528060018152602001603160f81b815250906100815760405162461bcd60e51b815260040161007891906100e9565b60405180910390fd5b50608084905261009d846b033b2e3c9fd0803ce8000000610138565b60a05260c09290925260e052610100525061015f565b600080600080608085870312156100c957600080fd5b505082516020840151604085015160609095015191969095509092509050565b60006020808352835180602085015260005b81811015610117578581018301518582016040015282016100fb565b506000604082860101526040601f19601f8301168501019250505092915050565b8181038181111561015957634e487b7160e01b600052601160045260246000fd5b92915050565b60805160a05160c05160e051610100516105e76101ed6000396000818161015d015281816102f8015261040001526000818160840152818161032301528181610390015261042401526000818160b9015281816101da0152610445015260008181610139015261029c01526000818160e20152818161026b015281816102bd015261036701526105e76000f3fe608060405234801561001057600080fd5b506004361061007d5760003560e01c806356eaf2641161005b57806356eaf2641461010457806380031e371461012c578063a9c622f814610134578063f42024091461015b57600080fd5b80630b3429a21461008257806334762ca5146100b757806354c365c6146100dd575b600080fd5b7f00000000000000000000000000000000000000000000000000000000000000005b6040519081526020015b60405180910390f35b7f00000000000000000000000000000000000000000000000000000000000000006100a4565b6100a47f000000000000000000000000000000000000000000000000000000000000000081565b6101176101123660046104fb565b610181565b604080519283526020830191909152016100ae565b6100a46103fc565b6100a47f000000000000000000000000000000000000000000000000000000000000000081565b7f00000000000000000000000000000000000000000000000000000000000000006100a4565b6000806101c46040518060e00160405280600081526020016000815260200160008152602001600081526020016000815260200160008152602001600081525090565b60408085015160208301819052600060608401527f000000000000000000000000000000000000000000000000000000000000000091830191909152156102695760208401518451606086015161021b9190610585565b610225919061059e565b808252602082015161023691610585565b60c08201819052602082015161024b91610478565b608082015260c0810151602082015161026391610478565b60a08201525b7f0000000000000000000000000000000000000000000000000000000000000000816080015111156103625760006102f17f00000000000000000000000000000000000000000000000000000000000000007f000000000000000000000000000000000000000000000000000000000000000084608001516102eb919061059e565b90610478565b905061031d7f0000000000000000000000000000000000000000000000000000000000000000826104b7565b610347907f0000000000000000000000000000000000000000000000000000000000000000610585565b826040018181516103589190610585565b9052506103d29050565b6103bd7f00000000000000000000000000000000000000000000000000000000000000006102eb83608001517f00000000000000000000000000000000000000000000000000000000000000006104b790919063ffffffff16565b816040018181516103ce9190610585565b9052505b60a081015160408201516103e5916104b7565b606082018190526040909101519094909350915050565b60007f00000000000000000000000000000000000000000000000000000000000000006104697f00000000000000000000000000000000000000000000000000000000000000007f0000000000000000000000000000000000000000000000000000000000000000610585565b6104739190610585565b905090565b600081156b033b2e3c9fd0803ce80000006002840419048411171561049c57600080fd5b506b033b2e3c9fd0803ce80000009190910260028204010490565b600081156b019d971e4fe8401e7400000019839004841115176104d957600080fd5b506b033b2e3c9fd0803ce800000091026b019d971e4fe8401e74000000010490565b60006080828403121561050d57600080fd5b6040516080810181811067ffffffffffffffff8211171561053e57634e487b7160e01b600052604160045260246000fd5b8060405250823581526020830135602082015260408301356040820152606083013560608201528091505092915050565b634e487b7160e01b600052601160045260246000fd5b808201808211156105985761059861056f565b92915050565b818103818111156105985761059861056f56fea2646970667358221220e46d91d7d5508b14ecadebe252e7c5ab5f1d008e50aa703beb5b193e9edcc43c64736f6c63430008180033",
  "linkReferences": {},
  "deployedLinkReferences": {}
}