{
  "_format": "hh-sol-artifact-1",
  "contractName": "FSFILoan",
  "sourceName": "contracts/FSFILoan.sol",
  "abi": [
    {
      "inputs": [],
      "stateMutability": "nonpayable",
      "type": "constructor"
    },
    {
      "inputs": [],
      "name": "InvalidInitialization",
      "type": "error"
    },
    {
      "inputs": [],
      "name": "NotInitializing",
      "type": "error"
    },
    {
      "anonymous": false,
      "inputs": [
        {
          "indexed": false,
          "internalType": "uint64",
          "name": "version",
          "type": "uint64"
        }
      ],
      "name": "Initialized",
      "type": "event"
    },
    {
      "anonymous": false,
      "inputs": [
        {
          "indexed": true,
          "internalType": "address",
          "name": "onBehalfOf",
          "type": "address"
        },
        {
          "indexed": true,
          "internalType": "address",
          "name": "_token",
          "type": "address"
        },
        {
          "indexed": false,
          "internalType": "uint256",
          "name": "_amount",
          "type": "uint256"
        }
      ],
      "name": "LiquiditySupplied",
      "type": "event"
    },
    {
      "anonymous": false,
      "inputs": [
        {
          "indexed": true,
          "internalType": "address",
          "name": "to",
          "type": "address"
        },
        {
          "indexed": true,
          "internalType": "address",
          "name": "_token",
          "type": "address"
        },
        {
          "indexed": false,
          "internalType": "uint256",
          "name": "_amount",
          "type": "uint256"
        }
      ],
      "name": "LiquidityWithdrawn",
      "type": "event"
    },
    {
      "inputs": [
        {
          "internalType": "uint256",
          "name": "_currentDebt",
          "type": "uint256"
        },
        {
          "internalType": "uint256",
          "name": "_amountOut",
          "type": "uint256"
        }
      ],
      "name": "calculateLiquidation",
      "outputs": [
        {
          "internalType": "uint256",
          "name": "",
          "type": "uint256"
        },
        {
          "internalType": "uint256",
          "name": "",
          "type": "uint256"
        },
        {
          "internalType": "uint256",
          "name": "",
          "type": "uint256"
        },
        {
          "internalType": "uint256",
          "name": "",
          "type": "uint256"
        }
      ],
      "stateMutability": "view",
      "type": "function"
    },
    {
      "inputs": [
        {
          "internalType": "uint256",
          "name": "_currentDebt",
          "type": "uint256"
        }
      ],
      "name": "calculateSwap",
      "outputs": [
        {
          "internalType": "uint256",
          "name": "",
          "type": "uint256"
        },
        {
          "internalType": "uint256",
          "name": "",
          "type": "uint256"
        }
      ],
      "stateMutability": "nonpayable",
      "type": "function"
    },
    {
      "inputs": [],
      "name": "closeLoan",
      "outputs": [
        {
          "internalType": "uint256",
          "name": "",
          "type": "uint256"
        },
        {
          "internalType": "uint256",
          "name": "",
          "type": "uint256"
        }
      ],
      "stateMutability": "nonpayable",
      "type": "function"
    },
    {
      "inputs": [],
      "name": "collateralAmount",
      "outputs": [
        {
          "internalType": "uint256",
          "name": "",
          "type": "uint256"
        }
      ],
      "stateMutability": "view",
      "type": "function"
    },
    {
      "inputs": [],
      "name": "collateralToken",
      "outputs": [
        {
          "internalType": "contract IERC20Standard",
          "name": "",
          "type": "address"
        }
      ],
      "stateMutability": "view",
      "type": "function"
    },
    {
      "inputs": [],
      "name": "feeTier",
      "outputs": [
        {
          "internalType": "uint24",
          "name": "",
          "type": "uint24"
        }
      ],
      "stateMutability": "view",
      "type": "function"
    },
    {
      "inputs": [],
      "name": "fsfi",
      "outputs": [
        {
          "internalType": "address",
          "name": "",
          "type": "address"
        }
      ],
      "stateMutability": "view",
      "type": "function"
    },
    {
      "inputs": [],
      "name": "getCollateralAmount",
      "outputs": [
        {
          "internalType": "uint256",
          "name": "",
          "type": "uint256"
        }
      ],
      "stateMutability": "view",
      "type": "function"
    },
    {
      "inputs": [],
      "name": "getCollateralToken",
      "outputs": [
        {
          "internalType": "contract IERC20Standard",
          "name": "",
          "type": "address"
        }
      ],
      "stateMutability": "view",
      "type": "function"
    },
    {
      "inputs": [
        {
          "internalType": "uint256",
          "name": "currentDebt",
          "type": "uint256"
        },
        {
          "internalType": "uint256",
          "name": "addCollateral",
          "type": "uint256"
        }
      ],
      "name": "getHealthFactor",
      "outputs": [
        {
          "internalType": "uint256",
          "name": "",
          "type": "uint256"
        }
      ],
      "stateMutability": "view",
      "type": "function"
    },
    {
      "inputs": [],
      "name": "getIsYeild",
      "outputs": [
        {
          "internalType": "bool",
          "name": "",
          "type": "bool"
        }
      ],
      "stateMutability": "view",
      "type": "function"
    },
    {
      "inputs": [],
      "name": "getLoanInfo",
      "outputs": [
        {
          "components": [
            {
              "internalType": "uint256",
              "name": "loanId",
              "type": "uint256"
            },
            {
              "internalType": "uint256",
              "name": "amount",
              "type": "uint256"
            },
            {
              "internalType": "bool",
              "name": "isClosed",
              "type": "bool"
            },
            {
              "internalType": "address",
              "name": "borrower",
              "type": "address"
            },
            {
              "internalType": "bool",
              "name": "isLiquidated",
              "type": "bool"
            },
            {
              "internalType": "contract IERC20Standard",
              "name": "stableCoin",
              "type": "address"
            },
            {
              "internalType": "bool",
              "name": "isFinalty",
              "type": "bool"
            },
            {
              "internalType": "bool",
              "name": "isFiat",
              "type": "bool"
            },
            {
              "internalType": "uint256",
              "name": "closedAmount",
              "type": "uint256"
            }
          ],
          "internalType": "struct DataTypes.Loan",
          "name": "",
          "type": "tuple"
        }
      ],
      "stateMutability": "view",
      "type": "function"
    },
    {
      "inputs": [
        {
          "internalType": "address",
          "name": "user",
          "type": "address"
        }
      ],
      "name": "getUserAccountData",
      "outputs": [
        {
          "internalType": "uint256",
          "name": "totalCollateralBase",
          "type": "uint256"
        },
        {
          "internalType": "uint256",
          "name": "totalDebtBase",
          "type": "uint256"
        },
        {
          "internalType": "uint256",
          "name": "availableBorrowsBase",
          "type": "uint256"
        },
        {
          "internalType": "uint256",
          "name": "currentLiquidationThreshold",
          "type": "uint256"
        },
        {
          "internalType": "uint256",
          "name": "ltv",
          "type": "uint256"
        },
        {
          "internalType": "uint256",
          "name": "healthFactor",
          "type": "uint256"
        }
      ],
      "stateMutability": "view",
      "type": "function"
    },
    {
      "inputs": [
        {
          "internalType": "uint256",
          "name": "_earnBorrower",
          "type": "uint256"
        }
      ],
      "name": "getYieldEarned",
      "outputs": [
        {
          "internalType": "uint256",
          "name": "",
          "type": "uint256"
        }
      ],
      "stateMutability": "view",
      "type": "function"
    },
    {
      "inputs": [],
      "name": "iFSFIConfig",
      "outputs": [
        {
          "internalType": "contract IFSFIConfig",
          "name": "",
          "type": "address"
        }
      ],
      "stateMutability": "view",
      "type": "function"
    },
    {
      "inputs": [],
      "name": "initLoan",
      "outputs": [
        {
          "internalType": "uint256",
          "name": "loanId",
          "type": "uint256"
        },
        {
          "internalType": "uint256",
          "name": "amount",
          "type": "uint256"
        },
        {
          "internalType": "bool",
          "name": "isClosed",
          "type": "bool"
        },
        {
          "internalType": "address",
          "name": "borrower",
          "type": "address"
        },
        {
          "internalType": "bool",
          "name": "isLiquidated",
          "type": "bool"
        },
        {
          "internalType": "contract IERC20Standard",
          "name": "stableCoin",
          "type": "address"
        },
        {
          "internalType": "bool",
          "name": "isFinalty",
          "type": "bool"
        },
        {
          "internalType": "bool",
          "name": "isFiat",
          "type": "bool"
        },
        {
          "internalType": "uint256",
          "name": "closedAmount",
          "type": "uint256"
        }
      ],
      "stateMutability": "view",
      "type": "function"
    },
    {
      "inputs": [
        {
          "components": [
            {
              "internalType": "uint256",
              "name": "loanId",
              "type": "uint256"
            },
            {
              "internalType": "uint256",
              "name": "amount",
              "type": "uint256"
            },
            {
              "internalType": "bool",
              "name": "isClosed",
              "type": "bool"
            },
            {
              "internalType": "address",
              "name": "borrower",
              "type": "address"
            },
            {
              "internalType": "bool",
              "name": "isLiquidated",
              "type": "bool"
            },
            {
              "internalType": "contract IERC20Standard",
              "name": "stableCoin",
              "type": "address"
            },
            {
              "internalType": "bool",
              "name": "isFinalty",
              "type": "bool"
            },
            {
              "internalType": "bool",
              "name": "isFiat",
              "type": "bool"
            },
            {
              "internalType": "uint256",
              "name": "closedAmount",
              "type": "uint256"
            }
          ],
          "internalType": "struct DataTypes.Loan",
          "name": "_loan",
          "type": "tuple"
        },
        {
          "internalType": "contract IERC20Standard",
          "name": "_collateralToken",
          "type": "address"
        },
        {
          "internalType": "contract IFSFIConfig",
          "name": "_iFSFIConfig",
          "type": "address"
        }
      ],
      "name": "initialize",
      "outputs": [],
      "stateMutability": "nonpayable",
      "type": "function"
    },
    {
      "inputs": [],
      "name": "isStakeAave",
      "outputs": [
        {
          "internalType": "bool",
          "name": "",
          "type": "bool"
        }
      ],
      "stateMutability": "view",
      "type": "function"
    },
    {
      "inputs": [
        {
          "internalType": "uint256",
          "name": "_currentDebt",
          "type": "uint256"
        }
      ],
      "name": "liquidate",
      "outputs": [
        {
          "internalType": "uint256",
          "name": "",
          "type": "uint256"
        },
        {
          "internalType": "uint256",
          "name": "",
          "type": "uint256"
        },
        {
          "internalType": "uint256",
          "name": "",
          "type": "uint256"
        },
        {
          "internalType": "uint256",
          "name": "",
          "type": "uint256"
        }
      ],
      "stateMutability": "nonpayable",
      "type": "function"
    },
    {
      "inputs": [],
      "name": "owner",
      "outputs": [
        {
          "internalType": "address",
          "name": "",
          "type": "address"
        }
      ],
      "stateMutability": "view",
      "type": "function"
    },
    {
      "inputs": [],
      "name": "platform",
      "outputs": [
        {
          "internalType": "address",
          "name": "",
          "type": "address"
        }
      ],
      "stateMutability": "view",
      "type": "function"
    },
    {
      "inputs": [
        {
          "internalType": "address",
          "name": "_fsfi",
          "type": "address"
        }
      ],
      "name": "setFSFI",
      "outputs": [],
      "stateMutability": "nonpayable",
      "type": "function"
    },
    {
      "inputs": [
        {
          "internalType": "uint24",
          "name": "_uniFee",
          "type": "uint24"
        }
      ],
      "name": "setUniFee",
      "outputs": [],
      "stateMutability": "nonpayable",
      "type": "function"
    },
    {
      "inputs": [],
      "name": "shareBorrower",
      "outputs": [
        {
          "internalType": "uint256",
          "name": "",
          "type": "uint256"
        }
      ],
      "stateMutability": "view",
      "type": "function"
    },
    {
      "inputs": [],
      "name": "shareLender",
      "outputs": [
        {
          "internalType": "uint256",
          "name": "",
          "type": "uint256"
        }
      ],
      "stateMutability": "view",
      "type": "function"
    },
    {
      "inputs": [],
      "name": "sharePlatform",
      "outputs": [
        {
          "internalType": "uint256",
          "name": "",
          "type": "uint256"
        }
      ],
      "stateMutability": "view",
      "type": "function"
    },
    {
      "inputs": [],
      "name": "supplyLiquidity",
      "outputs": [],
      "stateMutability": "nonpayable",
      "type": "function"
    },
    {
      "inputs": [
        {
          "internalType": "uint256",
          "name": "amount",
          "type": "uint256"
        }
      ],
      "name": "updateCollateral",
      "outputs": [],
      "stateMutability": "nonpayable",
      "type": "function"
    },
    {
      "inputs": [
        {
          "internalType": "address",
          "name": "_receiver",
          "type": "address"
        },
        {
          "internalType": "bool",
          "name": "_isETH",
          "type": "bool"
        }
      ],
      "name": "withdrawAllCollateral",
      "outputs": [],
      "stateMutability": "nonpayable",
      "type": "function"
    },
    {
      "inputs": [
        {
          "internalType": "uint256",
          "name": "_earnPlatform",
          "type": "uint256"
        },
        {
          "internalType": "uint256",
          "name": "_earnBorrower",
          "type": "uint256"
        },
        {
          "internalType": "uint256",
          "name": "_earnLender",
          "type": "uint256"
        }
      ],
      "name": "withdrawLiquidity",
      "outputs": [],
      "stateMutability": "nonpayable",
      "type": "function"
    },
    {
      "stateMutability": "payable",
      "type": "receive"
    }
  ],
  "bytecode": "0x60806040526000805462ffffff60a81b191661017760ab1b17905534801561002657600080fd5b50613ae9806100366000396000f3fe6080604052600436106101d15760003560e01c80635de710f3116100f7578063894059c611610095578063964236631161006457806396423663146106bd578063b2016bd4146106db578063bf92857c146106fb578063d22f2c3d1461074857600080fd5b8063894059c6146106475780638da5cb5b1461066757806392d09ceb1461068757806394990c2f1461069d57600080fd5b806372f5d98a116100d157806372f5d98a14610526578063792f436f1461055d5780637ce67d6014610573578063805a288f1461062757600080fd5b80635de710f3146104c65780636721de26146104e657806369fa97c01461050657600080fd5b8063288cc89e1161016f5780634bde38c81161013e5780634bde38c81461037a5780634d2c872a1461039a57806358b275d7146103ba5780635d3e2fa1146103da57600080fd5b8063288cc89e146102ef578063315deeaa146103055780633666eefa1461031a578063415f12401461033a57600080fd5b806311256603116101ab578063112566031461023d578063134933da1461026e5780631c783def146102a6578063232fa733146102c557600080fd5b806305b57c0b146101dd57806307a6bf6914610206578063102cb82e1461021d57600080fd5b366101d857005b600080fd5b3480156101e957600080fd5b506101f3600c5481565b6040519081526020015b60405180910390f35b34801561021257600080fd5b5061021b610768565b005b34801561022957600080fd5b5061021b610238366004613408565b610ab9565b34801561024957600080fd5b5060005461025e90600160a01b900460ff1681565b60405190151581526020016101fd565b34801561027a57600080fd5b5060085461028e906001600160a01b031681565b6040516001600160a01b0390911681526020016101fd565b3480156102b257600080fd5b50600054600160a01b900460ff1661025e565b3480156102d157600080fd5b506102da610e84565b604080519283526020830191909152016101fd565b3480156102fb57600080fd5b506101f3600a5481565b34801561031157600080fd5b506001546101f3565b34801561032657600080fd5b506102da610335366004613441565b6113ac565b34801561034657600080fd5b5061035a610355366004613441565b611565565b6040805194855260208501939093529183015260608201526080016101fd565b34801561038657600080fd5b5060095461028e906001600160a01b031681565b3480156103a657600080fd5b506101f36103b536600461345a565b6119a9565b3480156103c657600080fd5b5061035a6103d536600461345a565b611cc6565b3480156103e657600080fd5b506104b96040805161012081018252600080825260208201819052918101829052606081018290526080810182905260a0810182905260c0810182905260e081018290526101008101919091525060408051610120810182526003548152600454602082015260055460ff8082161515938301939093526001600160a01b0361010080830482166060850152600160a81b9283900485161515608085015260065491821660a0850152600160a01b82048516151560c0850152919004909216151560e08201526007549181019190915290565b6040516101fd919061347c565b3480156104d257600080fd5b5061021b6104e1366004613550565b611ecd565b3480156104f257600080fd5b5061021b610501366004613441565b612176565b34801561051257600080fd5b506101f3610521366004613441565b61226e565b34801561053257600080fd5b5060005461054990600160a81b900462ffffff1681565b60405162ffffff90911681526020016101fd565b34801561056957600080fd5b506101f3600b5481565b34801561057f57600080fd5b506003546004546005546006546007546105d094939260ff808216936001600160a01b036101008404811694600160a81b9485900484169491831693600160a01b8404811693929092049091169089565b60408051998a5260208a0198909852951515968801969096526001600160a01b039384166060880152911515608087015290911660a0850152151560c084015290151560e0830152610100820152610120016101fd565b34801561063357600080fd5b5061021b61064236600461363a565b612486565b34801561065357600080fd5b5061021b61066236600461365e565b61250f565b34801561067357600080fd5b5060005461028e906001600160a01b031681565b34801561069357600080fd5b506101f360015481565b3480156106a957600080fd5b5061021b6106b836600461368a565b612967565b3480156106c957600080fd5b506002546001600160a01b031661028e565b3480156106e757600080fd5b5060025461028e906001600160a01b031681565b34801561070757600080fd5b5061071b61071636600461368a565b6129e6565b604080519687526020870195909552938501929092526060840152608083015260a082015260c0016101fd565b34801561075457600080fd5b50600d5461028e906001600160a01b031681565b6000546040805180820190915260018152601960f91b6020820152906001600160a01b031633146107b55760405162461bcd60e51b81526004016107ac91906136cb565b60405180910390fd5b506002546040516370a0823160e01b81523060048201526001600160a01b039091169060009082906370a0823190602401602060405180830381865afa158015610803573d6000803e3d6000fd5b505050506040513d601f19601f8201168201806040525081019061082791906136fe565b90506000811160405180604001604052806002815260200161031360f41b815250906108665760405162461bcd60e51b81526004016107ac91906136cb565b506000309050600080600d60009054906101000a90046001600160a01b03166001600160a01b031663d03f6bac6040518163ffffffff1660e01b8152600401602060405180830381865afa1580156108c2573d6000803e3d6000fd5b505050506040513d601f19601f820116820180604052508101906108e69190613717565b90506000816001600160a01b031663026b1d5f6040518163ffffffff1660e01b8152600401602060405180830381865afa158015610928573d6000803e3d6000fd5b505050506040513d601f19601f8201168201806040525081019061094c9190613717565b60405163095ea7b360e01b81526001600160a01b038083166004830152602482018890529192509087169063095ea7b3906044016020604051808303816000875af115801561099f573d6000803e3d6000fd5b505050506040513d601f19601f820116820180604052508101906109c39190613734565b506040517f617ba0370000000000000000000000000000000000000000000000000000000081526001600160a01b03878116600483015260248201879052858116604483015261ffff8516606483015282169063617ba03790608401600060405180830381600087803b158015610a3957600080fd5b505af1158015610a4d573d6000803e3d6000fd5b50505050856001600160a01b0316846001600160a01b03167f51a2b359618aeb0bcc2a495a6667c0bdbfddc3bb27eb0dd5b8e3b33a4c15865f87604051610a9691815260200190565b60405180910390a350506000805460ff60a01b1916600160a01b17905550505050565b6000546040805180820190915260018152601960f91b6020820152906001600160a01b03163314610afd5760405162461bcd60e51b81526004016107ac91906136cb565b5060055460ff1615156001148015610b1f5750600654600160a01b900460ff16155b6040518060400160405280600281526020017f313200000000000000000000000000000000000000000000000000000000000081525090610b735760405162461bcd60e51b81526004016107ac91906136cb565b508015610d6e57600d54604080517fcae5f11e00000000000000000000000000000000000000000000000000000000815290516000926001600160a01b03169163cae5f11e9160048083019260209291908290030181865afa158015610bdd573d6000803e3d6000fd5b505050506040513d601f19601f82011682018060405250810190610c019190613717565b6002546040516370a0823160e01b81523060048201529192506001600160a01b0380841692632e1a7d4d9291909116906370a0823190602401602060405180830381865afa158015610c57573d6000803e3d6000fd5b505050506040513d601f19601f82011682018060405250810190610c7b91906136fe565b6040518263ffffffff1660e01b8152600401610c9991815260200190565b600060405180830381600087803b158015610cb357600080fd5b505af1158015610cc7573d6000803e3d6000fd5b50506002546040516370a0823160e01b81523060048201526001600160a01b0387811694506108fc9350909116906370a0823190602401602060405180830381865afa158015610d1b573d6000803e3d6000fd5b505050506040513d601f19601f82011682018060405250810190610d3f91906136fe565b6040518115909202916000818181858888f19350505050158015610d67573d6000803e3d6000fd5b5050610e6d565b6002546040516370a0823160e01b81523060048201526001600160a01b039091169063a9059cbb90849083906370a0823190602401602060405180830381865afa158015610dc0573d6000803e3d6000fd5b505050506040513d601f19601f82011682018060405250810190610de491906136fe565b6040517fffffffff0000000000000000000000000000000000000000000000000000000060e085901b1681526001600160a01b03909216600483015260248201526044016020604051808303816000875af1158015610e47573d6000803e3d6000fd5b505050506040513d601f19601f82011682018060405250810190610e6b9190613734565b505b50506006805460ff60a01b1916600160a01b179055565b600080546040805180820190915260018152601960f91b602082015282916001600160a01b03163314610eca5760405162461bcd60e51b81526004016107ac91906136cb565b506000806000600d60009054906101000a90046001600160a01b03166001600160a01b031663725c9c496040518163ffffffff1660e01b8152600401606060405180830381865afa158015610f23573d6000803e3d6000fd5b505050506040513d601f19601f82011682018060405250810190610f479190613751565b9250925092506000806000600d60009054906101000a90046001600160a01b03166001600160a01b031663c2dcadab6040518163ffffffff1660e01b8152600401606060405180830381865afa158015610fa5573d6000803e3d6000fd5b505050506040513d601f19601f82011682018060405250810190610fc9919061379e565b6005805460ff191660011790556004546007556000549295509093509150600160a01b900460ff16156111e857600d546002546040516363df573560e11b81526001600160a01b039182166004820152600092919091169063c7beae6a90602401602060405180830381865afa158015611047573d6000803e3d6000fd5b505050506040513d601f19601f8201168201806040525081019061106b9190613717565b9050806001600160a01b031663313ce5676040518163ffffffff1660e01b8152600401602060405180830381865afa1580156110ab573d6000803e3d6000fd5b505050506040513d601f19601f820116820180604052508101906110cf91906137cc565b6110da90600a6138e9565b600260009054906101000a90046001600160a01b03166001600160a01b031663313ce5676040518163ffffffff1660e01b8152600401602060405180830381865afa15801561112d573d6000803e3d6000fd5b505050506040513d601f19601f8201168201806040525081019061115191906137cc565b61115c90600a6138e9565b6040516370a0823160e01b81523060048201526001600160a01b038416906370a0823190602401602060405180830381865afa1580156111a0573d6000803e3d6000fd5b505050506040513d601f19601f820116820180604052508101906111c491906136fe565b6111ce91906138f8565b6111d8919061390f565b6007556111e682848661250f565b505b6000600a54600b546111fa9190613931565b111561139a57600254600a54600b546001600160a01b039092169163095ea7b39189916112279190613931565b6040517fffffffff0000000000000000000000000000000000000000000000000000000060e085901b1681526001600160a01b03909216600483015260248201526044016020604051808303816000875af115801561128a573d6000803e3d6000fd5b505050506040513d601f19601f820116820180604052508101906112ae9190613734565b5060006112dc600a54600b546112c49190613931565b6006546002546001600160a01b039182169116612b6b565b60065460085460405163095ea7b360e01b81526001600160a01b03918216600482015260248101849052929350169063095ea7b3906044016020604051808303816000875af1158015611333573d6000803e3d6000fd5b505050506040513d601f19601f820116820180604052508101906113579190613734565b5060006113648386613931565b61136e83876138f8565b611378919061390f565b905060006113868284613944565b919a509098506113a8975050505050505050565b600080975097505050505050505b9091565b6000806000806000600d60009054906101000a90046001600160a01b03166001600160a01b031663e56e56db6040518163ffffffff1660e01b8152600401606060405180830381865afa158015611407573d6000803e3d6000fd5b505050506040513d601f19601f8201168201806040525081019061142b919061379e565b9194509250905060008161143f8486613931565b6114499190613931565b9050600080600a54600b5461145e9190613931565b11156114925761148f600a54600b546114779190613931565b6002546006546001600160a01b039182169116612dbe565b90505b60006127106114a1848b6138f8565b6114ab919061390f565b90506000826114ba838c613931565b6114c49190613931565b6002546040516370a0823160e01b81523060048201529192506000916115549184916001600160a01b03909116906370a0823190602401602060405180830381865afa158015611518573d6000803e3d6000fd5b505050506040513d601f19601f8201168201806040525081019061153c91906136fe565b6006546002546001600160a01b039182169116613031565b9b939a509298505050505050505050565b600080546040805180820190915260018152601960f91b60208201528291829182916001600160a01b031633146115af5760405162461bcd60e51b81526004016107ac91906136cb565b5060646115bd8660006119a9565b106040518060400160405280600281526020017f3131000000000000000000000000000000000000000000000000000000000000815250906116125760405162461bcd60e51b81526004016107ac91906136cb565b5060048054600755600d54604080517fc2dcadab0000000000000000000000000000000000000000000000000000000081529051600093849384936001600160a01b039091169263c2dcadab928281019260609291908290030181865afa158015611681573d6000803e3d6000fd5b505050506040513d601f19601f820116820180604052508101906116a5919061379e565b6000549295509093509150600160a01b900460ff16156118b157600d546002546040516363df573560e11b81526001600160a01b039182166004820152600092919091169063c7beae6a90602401602060405180830381865afa158015611710573d6000803e3d6000fd5b505050506040513d601f19601f820116820180604052508101906117349190613717565b9050806001600160a01b031663313ce5676040518163ffffffff1660e01b8152600401602060405180830381865afa158015611774573d6000803e3d6000fd5b505050506040513d601f19601f8201168201806040525081019061179891906137cc565b6117a390600a6138e9565b600260009054906101000a90046001600160a01b03166001600160a01b031663313ce5676040518163ffffffff1660e01b8152600401602060405180830381865afa1580156117f6573d6000803e3d6000fd5b505050506040513d601f19601f8201168201806040525081019061181a91906137cc565b61182590600a6138e9565b6040516370a0823160e01b81523060048201526001600160a01b038416906370a0823190602401602060405180830381865afa158015611869573d6000803e3d6000fd5b505050506040513d601f19601f8201168201806040525081019061188d91906136fe565b61189791906138f8565b6118a1919061390f565b6007556118af82848661250f565b505b6000806118bd8a6113ac565b915091506000806000806118d18e86611cc6565b600580547fffffffffffffffffffff00ffffffffffffffffffffffffffffffffffffffff0016750100000000000000000000000000000000000000000117905560065460085460405163095ea7b360e01b81526001600160a01b039182166004820152602481018d90529599509397509195509350169063095ea7b3906044016020604051808303816000875af1158015611970573d6000803e3d6000fd5b505050506040513d601f19601f820116820180604052508101906119949190613734565b50929d919c509a509098509650505050505050565b600d546006546040516359dfff5560e11b81526001600160a01b039182166004820152600160248201526000928392169063b3bffeaa90604401602060405180830381865afa158015611a00573d6000803e3d6000fd5b505050506040513d601f19601f82011682018060405250810190611a2491906136fe565b905060008084600154611a379190613931565b6002549091506001600160a01b03168115611bf757600d546040516359dfff5560e11b81526001600160a01b03838116600483015260006024830181905292169063b3bffeaa90604401602060405180830381865afa158015611a9e573d6000803e3d6000fd5b505050506040513d601f19601f82011682018060405250810190611ac291906136fe565b600d54604080517fe75235b8000000000000000000000000000000000000000000000000000000008152815193945060009384936001600160a01b03169263e75235b892600480820193918290030181865afa158015611b26573d6000803e3d6000fd5b505050506040513d601f19601f82011682018060405250810190611b4a9190613957565b91509150836001600160a01b031663313ce5676040518163ffffffff1660e01b8152600401602060405180830381865afa158015611b8c573d6000803e3d6000fd5b505050506040513d601f19601f82011682018060405250810190611bb091906137cc565b611bbb90600a6138e9565b61271082611bc986896138f8565b611bd391906138f8565b611bdd919061390f565b611be7919061390f565b611bf19087613931565b95505050505b600654604080517f313ce56700000000000000000000000000000000000000000000000000000000815290516000926001600160a01b03169163313ce5679160048083019260209291908290030181865afa158015611c5a573d6000803e3d6000fd5b505050506040513d601f19601f82011682018060405250810190611c7e91906137cc565b611c8990600a6138e9565b611c93868a6138f8565b611c9d919061390f565b9050600081611cad8660646138f8565b611cb7919061390f565b96505050505050505b92915050565b6000806000806000806000806000600d60009054906101000a90046001600160a01b03166001600160a01b031663c2dcadab6040518163ffffffff1660e01b8152600401606060405180830381865afa158015611d27573d6000803e3d6000fd5b505050506040513d601f19601f82011682018060405250810190611d4b919061379e565b600d54604080517fe56e56db0000000000000000000000000000000000000000000000000000000081529051949950919750600096508695508594506001600160a01b03169263e56e56db925060048083019260609291908290030181865afa158015611dbc573d6000803e3d6000fd5b505050506040513d601f19601f82011682018060405250810190611de0919061379e565b91945092509050600081611df48486613931565b611dfe9190613931565b90506000612710611e0f838f6138f8565b611e19919061390f565b9050600082611e2885846138f8565b611e32919061390f565b90506000611e40888a613931565b898f611e4c91906138f8565b611e56919061390f565b90506000818f611e669190613944565b905084611e7389866138f8565b611e7d919061390f565b82611e888386613931565b8588611e948d8a6138f8565b611e9e919061390f565b611ea89089613944565b611eb29190613944565b9d509d509d509d505050505050505050505092959194509250565b7ff0c57e16840df040f15088dc2f81fe391c3923bec73e23a9662efc9c229c6a00805468010000000000000000810460ff16159067ffffffffffffffff16600081158015611f185750825b905060008267ffffffffffffffff166001148015611f355750303b155b905081158015611f43575080155b15611f7a576040517ff92ee8a900000000000000000000000000000000000000000000000000000000815260040160405180910390fd5b845467ffffffffffffffff191660011785558315611fae57845468ff00000000000000001916680100000000000000001785555b336000806101000a8154816001600160a01b0302191690836001600160a01b0316021790555085600d60006101000a8154816001600160a01b0302191690836001600160a01b03160217905550876003600082015181600001556020820151816001015560408201518160020160006101000a81548160ff02191690831515021790555060608201518160020160016101000a8154816001600160a01b0302191690836001600160a01b0316021790555060808201518160020160156101000a81548160ff02191690831515021790555060a08201518160030160006101000a8154816001600160a01b0302191690836001600160a01b0316021790555060c08201518160030160146101000a81548160ff02191690831515021790555060e08201518160030160156101000a81548160ff021916908315150217905550610100820151816004015590505086600260006101000a8154816001600160a01b0302191690836001600160a01b03160217905550831561216c57845468ff000000000000000019168555604051600181527fc7f505b2f371ae2175ee4913f4499e1f2633a7b5936321eed1cdaeb6115181d29060200160405180910390a15b5050505050505050565b6000546040805180820190915260018152601960f91b6020820152906001600160a01b031633146121ba5760405162461bcd60e51b81526004016107ac91906136cb565b5080600160008282546121cd9190613931565b90915550506002546008546040517f23b872dd0000000000000000000000000000000000000000000000000000000081526001600160a01b039182166004820152306024820152604481018490529116906323b872dd906064016020604051808303816000875af1158015612246573d6000803e3d6000fd5b505050506040513d601f19601f8201168201806040525081019061226a9190613734565b5050565b600d546002546040516363df573560e11b81526001600160a01b0391821660048201526000928392169063c7beae6a90602401602060405180830381865afa1580156122be573d6000803e3d6000fd5b505050506040513d601f19601f820116820180604052508101906122e29190613717565b6040516370a0823160e01b81523060048201529091506000906001600160a01b038316906370a0823190602401602060405180830381865afa15801561232c573d6000803e3d6000fd5b505050506040513d601f19601f8201168201806040525081019061235091906136fe565b90506000600154836001600160a01b031663313ce5676040518163ffffffff1660e01b8152600401602060405180830381865afa158015612395573d6000803e3d6000fd5b505050506040513d601f19601f820116820180604052508101906123b991906137cc565b6123c490600a6138e9565b600260009054906101000a90046001600160a01b03166001600160a01b031663313ce5676040518163ffffffff1660e01b8152600401602060405180830381865afa158015612417573d6000803e3d6000fd5b505050506040513d601f19601f8201168201806040525081019061243b91906137cc565b61244690600a6138e9565b61245090856138f8565b61245a919061390f565b6124649190613944565b905061271061247386836138f8565b61247d919061390f565b95945050505050565b6000546040805180820190915260018152601960f91b6020820152906001600160a01b031633146124ca5760405162461bcd60e51b81526004016107ac91906136cb565b5062ffffff81161561250c57600080547fffffffffffffffff000000ffffffffffffffffffffffffffffffffffffffffff16600160a81b62ffffff8416021790555b50565b6000546040805180820190915260018152601960f91b6020820152906001600160a01b031633146125535760405162461bcd60e51b81526004016107ac91906136cb565b50600254600d546040516363df573560e11b81526001600160a01b039283166004820181905292600092169063c7beae6a90602401602060405180830381865afa1580156125a5573d6000803e3d6000fd5b505050506040513d601f19601f820116820180604052508101906125c99190613717565b6040516370a0823160e01b81523060048201529091506000906001600160a01b038316906370a0823190602401602060405180830381865afa158015612613573d6000803e3d6000fd5b505050506040513d601f19601f8201168201806040525081019061263791906136fe565b90506000811160405180604001604052806002815260200161031360f41b815250906126765760405162461bcd60e51b81526004016107ac91906136cb565b50600d54604080517fd03f6bac00000000000000000000000000000000000000000000000000000000815290516000926001600160a01b03169163d03f6bac9160048083019260209291908290030181865afa1580156126da573d6000803e3d6000fd5b505050506040513d601f19601f820116820180604052508101906126fe9190613717565b90506000816001600160a01b031663026b1d5f6040518163ffffffff1660e01b8152600401602060405180830381865afa158015612740573d6000803e3d6000fd5b505050506040513d601f19601f820116820180604052508101906127649190613717565b6040517f69328dec0000000000000000000000000000000000000000000000000000000081526001600160a01b03878116600483015260248201869052306044830152919250908216906369328dec906064016020604051808303816000875af11580156127d6573d6000803e3d6000fd5b505050506040513d601f19601f820116820180604052508101906127fa91906136fe565b506040518381526001600160a01b0386169030907f83aa598dd3e269af677698c6847b3ba594a67d286a771d01099aafa911a91b649060200160405180910390a36000805460ff60a01b191681556002546040516370a0823160e01b81523060048201526001600160a01b03909116906370a0823190602401602060405180830381865afa158015612890573d6000803e3d6000fd5b505050506040513d601f19601f820116820180604052508101906128b491906136fe565b90506000600154826128c69190613944565b111561295c5761271088600154836128de9190613944565b6128e891906138f8565b6128f2919061390f565b600c556128ff8988613931565b89600c54600154846129119190613944565b61291b9190613944565b61292591906138f8565b61292f919061390f565b600a819055600c546001546129449084613944565b61294e9190613944565b6129589190613944565b600b555b505050505050505050565b6000546040805180820190915260018152601960f91b6020820152906001600160a01b031633146129ab5760405162461bcd60e51b81526004016107ac91906136cb565b50600880547fffffffffffffffffffffffff0000000000000000000000000000000000000000166001600160a01b0392909216919091179055565b6000806000806000806000600d60009054906101000a90046001600160a01b03166001600160a01b031663d03f6bac6040518163ffffffff1660e01b8152600401602060405180830381865afa158015612a44573d6000803e3d6000fd5b505050506040513d601f19601f82011682018060405250810190612a689190613717565b90506000816001600160a01b031663026b1d5f6040518163ffffffff1660e01b8152600401602060405180830381865afa158015612aaa573d6000803e3d6000fd5b505050506040513d601f19601f82011682018060405250810190612ace9190613717565b6040517fbf92857c0000000000000000000000000000000000000000000000000000000081526001600160a01b038b811660048301529192509082169063bf92857c9060240160c060405180830381865afa158015612b31573d6000803e3d6000fd5b505050506040513d601f19601f82011682018060405250810190612b55919061397b565b949e939d50919b50995097509095509350505050565b600080600080600d60009054906101000a90046001600160a01b03166001600160a01b031663725c9c496040518163ffffffff1660e01b8152600401606060405180830381865afa158015612bc4573d6000803e3d6000fd5b505050506040513d601f19601f82011682018060405250810190612be89190613751565b925092509250612bf985848961329a565b60008054604051630b4c774160e11b81526001600160a01b0388811660048301528981166024830152600160a81b90920462ffffff16604482015290841690631698ee8290606401602060405180830381865afa158015612c5e573d6000803e3d6000fd5b505050506040513d601f19601f82011682018060405250810190612c829190613717565b90506000816001600160a01b031663ddca3f436040518163ffffffff1660e01b8152600401602060405180830381865afa158015612cc4573d6000803e3d6000fd5b505050506040513d601f19601f82011682018060405250810190612ce891906139c5565b6040805160e0810182526001600160a01b03808b1682528b8116602083015262ffffff841682840152306060830152608082018d9052600060a0830181905260c083015291517f04e45aaf00000000000000000000000000000000000000000000000000000000815292935091908716906304e45aaf90612d6d9084906004016139e2565b6020604051808303816000875af1158015612d8c573d6000803e3d6000fd5b505050506040513d601f19601f82011682018060405250810190612db091906136fe565b9a9950505050505050505050565b600080600080600d60009054906101000a90046001600160a01b03166001600160a01b031663725c9c496040518163ffffffff1660e01b8152600401606060405180830381865afa158015612e17573d6000803e3d6000fd5b505050506040513d601f19601f82011682018060405250810190612e3b9190613751565b60008054604051630b4c774160e11b81526001600160a01b038b811660048301528c81166024830152600160a81b90920462ffffff1660448201529497509295509093509190841690631698ee8290606401602060405180830381865afa158015612eaa573d6000803e3d6000fd5b505050506040513d601f19601f82011682018060405250810190612ece9190613717565b90506000816001600160a01b031663ddca3f436040518163ffffffff1660e01b8152600401602060405180830381865afa158015612f10573d6000803e3d6000fd5b505050506040513d601f19601f82011682018060405250810190612f3491906139c5565b6040805160a0810182526001600160a01b03808b1682528b8116602083019081528284018e815262ffffff8087166060860190815260006080870181815297517fc6a5026a0000000000000000000000000000000000000000000000000000000081528751871660048201529451861660248601529251604485015251166064830152935182166084820152939450909282918291829189169063c6a5026a9060a4016080604051808303816000875af1158015612ff6573d6000803e3d6000fd5b505050506040513d601f19601f8201168201806040525081019061301a9190613a45565b50919c505050505050505050505050509392505050565b600080600080600d60009054906101000a90046001600160a01b03166001600160a01b031663725c9c496040518163ffffffff1660e01b8152600401606060405180830381865afa15801561308a573d6000803e3d6000fd5b505050506040513d601f19601f820116820180604052508101906130ae9190613751565b9250925092506130bf85848961329a565b60008054604051630b4c774160e11b81526001600160a01b0388811660048301528981166024830152600160a81b90920462ffffff16604482015290841690631698ee8290606401602060405180830381865afa158015613124573d6000803e3d6000fd5b505050506040513d601f19601f820116820180604052508101906131489190613717565b90506000816001600160a01b031663ddca3f436040518163ffffffff1660e01b8152600401602060405180830381865afa15801561318a573d6000803e3d6000fd5b505050506040513d601f19601f820116820180604052508101906131ae91906139c5565b6040805160e0810182526001600160a01b03808b1682528b8116602083015262ffffff841682840152306060830152608082018e905260a082018d9052600060c083015291517f5023b4df0000000000000000000000000000000000000000000000000000000081529293509190871690635023b4df906132339084906004016139e2565b6020604051808303816000875af1158015613252573d6000803e3d6000fd5b505050506040513d601f19601f8201168201806040525081019061327691906136fe565b96508987101561328c5761328c8887600061329a565b505050505050949350505050565b604080516001600160a01b038481166024830152604480830185905283518084039091018152606490920183526020820180517bffffffffffffffffffffffffffffffffffffffffffffffffffffffff1663095ea7b360e01b179052915160009283929087169161330b9190613a97565b6000604051808303816000865af19150503d8060008114613348576040519150601f19603f3d011682016040523d82523d6000602084013e61334d565b606091505b50915091508180156133775750805115806133775750808060200190518101906133779190613734565b6133c35760405162461bcd60e51b815260206004820152600260248201527f534100000000000000000000000000000000000000000000000000000000000060448201526064016107ac565b5050505050565b6001600160a01b038116811461250c57600080fd5b80356133ea816133ca565b919050565b801515811461250c57600080fd5b80356133ea816133ef565b6000806040838503121561341b57600080fd5b8235613426816133ca565b91506020830135613436816133ef565b809150509250929050565b60006020828403121561345357600080fd5b5035919050565b6000806040838503121561346d57600080fd5b50508035926020909101359150565b60006101208201905082518252602083015160208301526040830151151560408301526001600160a01b03606084015116606083015260808301516134c5608084018215159052565b5060a08301516134e060a08401826001600160a01b03169052565b5060c08301516134f460c084018215159052565b5060e083015161350860e084018215159052565b5061010092830151919092015290565b604051610120810167ffffffffffffffff8111828210171561354a57634e487b7160e01b600052604160045260246000fd5b60405290565b600080600083850361016081121561356757600080fd5b6101208082121561357757600080fd5b61357f613518565b9150853582526020860135602083015261359b604087016133fd565b60408301526135ac606087016133df565b60608301526135bd608087016133fd565b60808301526135ce60a087016133df565b60a08301526135df60c087016133fd565b60c08301526135f060e087016133fd565b60e083015261010080870135818401525081945061360f8187016133df565b9350505061362061014085016133df565b90509250925092565b62ffffff8116811461250c57600080fd5b60006020828403121561364c57600080fd5b813561365781613629565b9392505050565b60008060006060848603121561367357600080fd5b505081359360208301359350604090920135919050565b60006020828403121561369c57600080fd5b8135613657816133ca565b60005b838110156136c25781810151838201526020016136aa565b50506000910152565b60208152600082518060208401526136ea8160408501602087016136a7565b601f01601f19169190910160400192915050565b60006020828403121561371057600080fd5b5051919050565b60006020828403121561372957600080fd5b8151613657816133ca565b60006020828403121561374657600080fd5b8151613657816133ef565b60008060006060848603121561376657600080fd5b8351613771816133ca565b6020850151909350613782816133ca565b6040850151909250613793816133ca565b809150509250925092565b6000806000606084860312156137b357600080fd5b8351925060208401519150604084015190509250925092565b6000602082840312156137de57600080fd5b815160ff8116811461365757600080fd5b634e487b7160e01b600052601160045260246000fd5b600181815b80851115613840578160001904821115613826576138266137ef565b8085161561383357918102915b93841c939080029061380a565b509250929050565b60008261385757506001611cc0565b8161386457506000611cc0565b816001811461387a5760028114613884576138a0565b6001915050611cc0565b60ff841115613895576138956137ef565b50506001821b611cc0565b5060208310610133831016604e8410600b84101617156138c3575081810a611cc0565b6138cd8383613805565b80600019048211156138e1576138e16137ef565b029392505050565b600061365760ff841683613848565b8082028115828204841417611cc057611cc06137ef565b60008261392c57634e487b7160e01b600052601260045260246000fd5b500490565b80820180821115611cc057611cc06137ef565b81810381811115611cc057611cc06137ef565b6000806040838503121561396a57600080fd5b505080516020909101519092909150565b60008060008060008060c0878903121561399457600080fd5b865195506020870151945060408701519350606087015192506080870151915060a087015190509295509295509295565b6000602082840312156139d757600080fd5b815161365781613629565b60e08101611cc082846001600160a01b0380825116835280602083015116602084015262ffffff60408301511660408401528060608301511660608401526080820151608084015260a082015160a08401528060c08301511660c0840152505050565b60008060008060808587031215613a5b57600080fd5b845193506020850151613a6d816133ca565b604086015190935063ffffffff81168114613a8757600080fd5b6060959095015193969295505050565b60008251613aa98184602087016136a7565b919091019291505056fea26469706673582212200b17ec6710c87061005adac726b828f994cb5461b5475dc2379a7636f44402be64736f6c63430008180033",
  "linkReferences": {},
  "deployedLinkReferences": {}
}