{
  "_format": "hh-sol-artifact-1",
  "contractName": "FSFIPool",
  "sourceName": "contracts/FSFIPool.sol",
  "abi": [
    {
      "inputs": [],
      "name": "InvalidInitialization",
      "type": "error"
    },
    {
      "inputs": [],
      "name": "NotInitializing",
      "type": "error"
    },
    {
      "inputs": [
        {
          "internalType": "uint8",
          "name": "bits",
          "type": "uint8"
        },
        {
          "internalType": "uint256",
          "name": "value",
          "type": "uint256"
        }
      ],
      "name": "SafeCastOverflowedUintDowncast",
      "type": "error"
    },
    {
      "anonymous": false,
      "inputs": [
        {
          "indexed": true,
          "internalType": "address",
          "name": "lender",
          "type": "address"
        },
        {
          "indexed": true,
          "internalType": "address",
          "name": "poolAddress",
          "type": "address"
        },
        {
          "indexed": true,
          "internalType": "contract IERC20Standard",
          "name": "stableCoin",
          "type": "address"
        },
        {
          "indexed": false,
          "internalType": "uint256",
          "name": "amount",
          "type": "uint256"
        },
        {
          "indexed": false,
          "internalType": "uint256",
          "name": "lenderShare",
          "type": "uint256"
        },
        {
          "indexed": false,
          "internalType": "uint256",
          "name": "totalSupply",
          "type": "uint256"
        },
        {
          "indexed": false,
          "internalType": "uint256",
          "name": "totalLiquidity",
          "type": "uint256"
        },
        {
          "indexed": false,
          "internalType": "uint256",
          "name": "remainingPool",
          "type": "uint256"
        }
      ],
      "name": "AddSupply",
      "type": "event"
    },
    {
      "anonymous": false,
      "inputs": [
        {
          "indexed": false,
          "internalType": "uint64",
          "name": "version",
          "type": "uint64"
        }
      ],
      "name": "Initialized",
      "type": "event"
    },
    {
      "anonymous": false,
      "inputs": [
        {
          "indexed": true,
          "internalType": "address",
          "name": "lender",
          "type": "address"
        },
        {
          "indexed": true,
          "internalType": "address",
          "name": "poolAddress",
          "type": "address"
        },
        {
          "indexed": true,
          "internalType": "contract IERC20Standard",
          "name": "stableCoin",
          "type": "address"
        },
        {
          "indexed": false,
          "internalType": "uint256",
          "name": "amount",
          "type": "uint256"
        },
        {
          "indexed": false,
          "internalType": "uint256",
          "name": "lenderShare",
          "type": "uint256"
        },
        {
          "indexed": false,
          "internalType": "uint256",
          "name": "totalSupply",
          "type": "uint256"
        },
        {
          "indexed": false,
          "internalType": "uint256",
          "name": "totalLiquidity",
          "type": "uint256"
        },
        {
          "indexed": false,
          "internalType": "uint256",
          "name": "remainingPool",
          "type": "uint256"
        }
      ],
      "name": "WithdrawSupply",
      "type": "event"
    },
    {
      "inputs": [],
      "name": "FSFI",
      "outputs": [
        {
          "internalType": "address",
          "name": "",
          "type": "address"
        }
      ],
      "stateMutability": "view",
      "type": "function"
    },
    {
      "inputs": [
        {
          "internalType": "address",
          "name": "_user",
          "type": "address"
        }
      ],
      "name": "balanceOf",
      "outputs": [
        {
          "internalType": "uint256",
          "name": "",
          "type": "uint256"
        }
      ],
      "stateMutability": "view",
      "type": "function"
    },
    {
      "inputs": [
        {
          "internalType": "uint256",
          "name": "_loanId",
          "type": "uint256"
        },
        {
          "internalType": "uint256",
          "name": "_amount",
          "type": "uint256"
        },
        {
          "internalType": "address",
          "name": "_borrower",
          "type": "address"
        },
        {
          "internalType": "bool",
          "name": "_isFiat",
          "type": "bool"
        },
        {
          "internalType": "bytes12",
          "name": "_encryptusId",
          "type": "bytes12"
        }
      ],
      "name": "borrow",
      "outputs": [],
      "stateMutability": "nonpayable",
      "type": "function"
    },
    {
      "inputs": [],
      "name": "cap",
      "outputs": [
        {
          "internalType": "uint256",
          "name": "",
          "type": "uint256"
        }
      ],
      "stateMutability": "view",
      "type": "function"
    },
    {
      "inputs": [
        {
          "internalType": "uint256",
          "name": "",
          "type": "uint256"
        }
      ],
      "name": "debt",
      "outputs": [
        {
          "internalType": "uint256",
          "name": "",
          "type": "uint256"
        }
      ],
      "stateMutability": "view",
      "type": "function"
    },
    {
      "inputs": [
        {
          "internalType": "address",
          "name": "",
          "type": "address"
        }
      ],
      "name": "depositWithdrawAmount",
      "outputs": [
        {
          "internalType": "uint256",
          "name": "",
          "type": "uint256"
        }
      ],
      "stateMutability": "view",
      "type": "function"
    },
    {
      "inputs": [
        {
          "internalType": "uint256",
          "name": "_amount",
          "type": "uint256"
        }
      ],
      "name": "earnStaking",
      "outputs": [],
      "stateMutability": "nonpayable",
      "type": "function"
    },
    {
      "inputs": [],
      "name": "encryptus",
      "outputs": [
        {
          "internalType": "address",
          "name": "",
          "type": "address"
        }
      ],
      "stateMutability": "view",
      "type": "function"
    },
    {
      "inputs": [
        {
          "internalType": "uint256",
          "name": "_loanId",
          "type": "uint256"
        }
      ],
      "name": "getCurrentLoan",
      "outputs": [
        {
          "internalType": "uint256",
          "name": "",
          "type": "uint256"
        }
      ],
      "stateMutability": "view",
      "type": "function"
    },
    {
      "inputs": [],
      "name": "getCurrentRate",
      "outputs": [
        {
          "internalType": "uint256",
          "name": "",
          "type": "uint256"
        },
        {
          "internalType": "uint256",
          "name": "",
          "type": "uint256"
        },
        {
          "internalType": "uint256",
          "name": "",
          "type": "uint256"
        },
        {
          "internalType": "uint256",
          "name": "",
          "type": "uint256"
        }
      ],
      "stateMutability": "view",
      "type": "function"
    },
    {
      "inputs": [],
      "name": "getDebtPool",
      "outputs": [
        {
          "internalType": "uint256",
          "name": "amount",
          "type": "uint256"
        }
      ],
      "stateMutability": "view",
      "type": "function"
    },
    {
      "inputs": [
        {
          "internalType": "address",
          "name": "_user",
          "type": "address"
        }
      ],
      "name": "getDepositWithdrawAmount",
      "outputs": [
        {
          "internalType": "uint256",
          "name": "",
          "type": "uint256"
        }
      ],
      "stateMutability": "view",
      "type": "function"
    },
    {
      "inputs": [],
      "name": "getRemainingPool",
      "outputs": [
        {
          "internalType": "uint256",
          "name": "amount",
          "type": "uint256"
        }
      ],
      "stateMutability": "view",
      "type": "function"
    },
    {
      "inputs": [],
      "name": "getTotalSupply",
      "outputs": [
        {
          "internalType": "uint256",
          "name": "",
          "type": "uint256"
        }
      ],
      "stateMutability": "view",
      "type": "function"
    },
    {
      "inputs": [
        {
          "internalType": "contract IERC20Standard",
          "name": "_stableCoinAddress",
          "type": "address"
        },
        {
          "internalType": "address",
          "name": "_interestRateStrategyAddress",
          "type": "address"
        },
        {
          "internalType": "uint256",
          "name": "_cap",
          "type": "uint256"
        },
        {
          "internalType": "address",
          "name": "_encryptus",
          "type": "address"
        }
      ],
      "name": "initialize",
      "outputs": [],
      "stateMutability": "nonpayable",
      "type": "function"
    },
    {
      "inputs": [],
      "name": "isPaused",
      "outputs": [
        {
          "internalType": "bool",
          "name": "",
          "type": "bool"
        }
      ],
      "stateMutability": "view",
      "type": "function"
    },
    {
      "inputs": [
        {
          "internalType": "uint256",
          "name": "",
          "type": "uint256"
        }
      ],
      "name": "lenders",
      "outputs": [
        {
          "internalType": "address",
          "name": "",
          "type": "address"
        }
      ],
      "stateMutability": "view",
      "type": "function"
    },
    {
      "inputs": [
        {
          "internalType": "uint256",
          "name": "_loanId",
          "type": "uint256"
        },
        {
          "internalType": "uint256",
          "name": "_amount",
          "type": "uint256"
        }
      ],
      "name": "liquidatePenalty",
      "outputs": [],
      "stateMutability": "nonpayable",
      "type": "function"
    },
    {
      "inputs": [
        {
          "internalType": "uint256",
          "name": "",
          "type": "uint256"
        }
      ],
      "name": "loans",
      "outputs": [
        {
          "internalType": "uint256",
          "name": "loanId",
          "type": "uint256"
        },
        {
          "internalType": "uint256",
          "name": "amount",
          "type": "uint256"
        },
        {
          "internalType": "bool",
          "name": "isClosed",
          "type": "bool"
        },
        {
          "internalType": "address",
          "name": "borrower",
          "type": "address"
        },
        {
          "internalType": "bool",
          "name": "isLiquidated",
          "type": "bool"
        },
        {
          "internalType": "contract IERC20Standard",
          "name": "stableCoin",
          "type": "address"
        },
        {
          "internalType": "bool",
          "name": "isFinalty",
          "type": "bool"
        },
        {
          "internalType": "bool",
          "name": "isFiat",
          "type": "bool"
        },
        {
          "internalType": "bytes12",
          "name": "encryptusId",
          "type": "bytes12"
        },
        {
          "internalType": "uint256",
          "name": "closedAmount",
          "type": "uint256"
        }
      ],
      "stateMutability": "view",
      "type": "function"
    },
    {
      "inputs": [
        {
          "internalType": "address",
          "name": "",
          "type": "address"
        }
      ],
      "name": "operators",
      "outputs": [
        {
          "internalType": "bool",
          "name": "",
          "type": "bool"
        }
      ],
      "stateMutability": "view",
      "type": "function"
    },
    {
      "inputs": [],
      "name": "owner",
      "outputs": [
        {
          "internalType": "address",
          "name": "",
          "type": "address"
        }
      ],
      "stateMutability": "view",
      "type": "function"
    },
    {
      "inputs": [],
      "name": "remainingPool",
      "outputs": [
        {
          "internalType": "uint256",
          "name": "",
          "type": "uint256"
        }
      ],
      "stateMutability": "view",
      "type": "function"
    },
    {
      "inputs": [
        {
          "internalType": "uint256",
          "name": "_loanId",
          "type": "uint256"
        },
        {
          "internalType": "uint256",
          "name": "_amount",
          "type": "uint256"
        }
      ],
      "name": "repay",
      "outputs": [],
      "stateMutability": "nonpayable",
      "type": "function"
    },
    {
      "inputs": [],
      "name": "reserve",
      "outputs": [
        {
          "internalType": "uint128",
          "name": "liquidityIndex",
          "type": "uint128"
        },
        {
          "internalType": "uint128",
          "name": "currentLiquidityRate",
          "type": "uint128"
        },
        {
          "internalType": "uint128",
          "name": "variableBorrowIndex",
          "type": "uint128"
        },
        {
          "internalType": "uint128",
          "name": "currentVariableBorrowRate",
          "type": "uint128"
        },
        {
          "internalType": "uint40",
          "name": "lastUpdateTimestamp",
          "type": "uint40"
        },
        {
          "internalType": "uint16",
          "name": "id",
          "type": "uint16"
        },
        {
          "internalType": "address",
          "name": "interestRateStrategyAddress",
          "type": "address"
        }
      ],
      "stateMutability": "view",
      "type": "function"
    },
    {
      "inputs": [
        {
          "internalType": "uint256",
          "name": "_cap",
          "type": "uint256"
        }
      ],
      "name": "setCap",
      "outputs": [],
      "stateMutability": "nonpayable",
      "type": "function"
    },
    {
      "inputs": [
        {
          "internalType": "address",
          "name": "_encryptus",
          "type": "address"
        }
      ],
      "name": "setEncryptus",
      "outputs": [],
      "stateMutability": "nonpayable",
      "type": "function"
    },
    {
      "inputs": [
        {
          "internalType": "address",
          "name": "_fsfi",
          "type": "address"
        }
      ],
      "name": "setFSFI",
      "outputs": [],
      "stateMutability": "nonpayable",
      "type": "function"
    },
    {
      "inputs": [
        {
          "internalType": "address[]",
          "name": "_addresses",
          "type": "address[]"
        },
        {
          "internalType": "bool[]",
          "name": "_isActives",
          "type": "bool[]"
        }
      ],
      "name": "setOperators",
      "outputs": [],
      "stateMutability": "nonpayable",
      "type": "function"
    },
    {
      "inputs": [
        {
          "internalType": "bool",
          "name": "_paused",
          "type": "bool"
        }
      ],
      "name": "setPaused",
      "outputs": [],
      "stateMutability": "nonpayable",
      "type": "function"
    },
    {
      "inputs": [
        {
          "internalType": "address",
          "name": "_interestRateStrategyAddress",
          "type": "address"
        }
      ],
      "name": "setReserveInterestRateStrategy",
      "outputs": [],
      "stateMutability": "nonpayable",
      "type": "function"
    },
    {
      "inputs": [
        {
          "internalType": "address",
          "name": "",
          "type": "address"
        }
      ],
      "name": "share",
      "outputs": [
        {
          "internalType": "uint256",
          "name": "",
          "type": "uint256"
        }
      ],
      "stateMutability": "view",
      "type": "function"
    },
    {
      "inputs": [],
      "name": "stableCoinAddress",
      "outputs": [
        {
          "internalType": "contract IERC20Standard",
          "name": "",
          "type": "address"
        }
      ],
      "stateMutability": "view",
      "type": "function"
    },
    {
      "inputs": [
        {
          "internalType": "uint256",
          "name": "_amount",
          "type": "uint256"
        }
      ],
      "name": "supply",
      "outputs": [],
      "stateMutability": "nonpayable",
      "type": "function"
    },
    {
      "inputs": [],
      "name": "totalDebt",
      "outputs": [
        {
          "internalType": "uint256",
          "name": "",
          "type": "uint256"
        }
      ],
      "stateMutability": "view",
      "type": "function"
    },
    {
      "inputs": [],
      "name": "totalLiquidity",
      "outputs": [
        {
          "internalType": "uint256",
          "name": "",
          "type": "uint256"
        }
      ],
      "stateMutability": "view",
      "type": "function"
    },
    {
      "inputs": [],
      "name": "totalSupply",
      "outputs": [
        {
          "internalType": "uint256",
          "name": "",
          "type": "uint256"
        }
      ],
      "stateMutability": "view",
      "type": "function"
    },
    {
      "inputs": [
        {
          "internalType": "uint256",
          "name": "_amount",
          "type": "uint256"
        }
      ],
      "name": "withdraw",
      "outputs": [],
      "stateMutability": "nonpayable",
      "type": "function"
    },
    {
      "inputs": [
        {
          "internalType": "contract IERC20Standard",
          "name": "_token",
          "type": "address"
        },
        {
          "internalType": "address",
          "name": "_receiver",
          "type": "address"
        }
      ],
      "name": "withdrawByAdmin",
      "outputs": [],
      "stateMutability": "nonpayable",
      "type": "function"
    },
    {
      "stateMutability": "payable",
      "type": "receive"
    }
  ],
  "bytecode": "0x608060405234801561001057600080fd5b5061321f806100206000396000f3fe6080604052600436106102895760003560e01c80638da5cb5b11610153578063be203094116100cb578063e1ec3c681161007f578063f430503511610064578063f4305035146108b0578063f7fb07b0146108d0578063fc7b9c181461091d57600080fd5b8063e1ec3c681461079d578063e3691c511461089057600080fd5b8063cd3293de116100b0578063cd3293de14610697578063d47aedd61461075d578063d8aed1451461077d57600080fd5b8063be20309414610662578063c4e41b221461068257600080fd5b80639b78dbfc11610122578063a52f38d111610107578063a52f38d11461060b578063b14d37c01461062b578063b187bd261461064157600080fd5b80639b78dbfc146105cb5780639f43a131146105eb57600080fd5b80638da5cb5b14610533578063929eea211461056b57806394990c2f1461058b578063982aae46146105ab57600080fd5b8063307936011161020157806347786d37116101b5578063773a186c1161019a578063773a186c146104bd5780637871b060146104dd5780637f3940311461051357600080fd5b806347786d371461047d57806370a082311461049d57600080fd5b8063355274ea116101e6578063355274ea1461043257806339cd7d6a146104485780633b24cc211461046857600080fd5b806330793601146103e5578063354030231461041257600080fd5b806316c38b3c116102585780631877bb5c1161023d5780631877bb5c1461036b5780631e0029c8146103985780632e1a7d4d146103c557600080fd5b806316c38b3c1461033557806318160ddd1461035557600080fd5b806303ec357f146102955780630983ed82146102bd57806313e7c9d8146102df57806315770f921461031f57600080fd5b3661029057005b600080fd5b3480156102a157600080fd5b506102aa610933565b6040519081526020015b60405180910390f35b3480156102c957600080fd5b506102dd6102d8366004612c5e565b610a23565b005b3480156102eb57600080fd5b5061030f6102fa366004612cca565b60006020819052908152604090205460ff1681565b60405190151581526020016102b4565b34801561032b57600080fd5b506102aa600b5481565b34801561034157600080fd5b506102dd610350366004612ce7565b610e03565b34801561036157600080fd5b506102aa600a5481565b34801561037757600080fd5b506102aa610386366004612cca565b60086020526000908152604090205481565b3480156103a457600080fd5b506102aa6103b3366004612d04565b60096020526000908152604090205481565b3480156103d157600080fd5b506102dd6103e0366004612d04565b610e81565b3480156103f157600080fd5b506102aa610400366004612cca565b600f6020526000908152604090205481565b34801561041e57600080fd5b506102dd61042d366004612d04565b611234565b34801561043e57600080fd5b506102aa60115481565b34801561045457600080fd5b506102dd610463366004612cca565b611556565b34801561047457600080fd5b50600d546102aa565b34801561048957600080fd5b506102dd610498366004612d04565b6115ec565b3480156104a957600080fd5b506102aa6104b8366004612cca565b611642565b3480156104c957600080fd5b506102dd6104d8366004612cca565b611704565b3480156104e957600080fd5b506102aa6104f8366004612cca565b6001600160a01b03166000908152600f602052604090205490565b34801561051f57600080fd5b506102dd61052e366004612d1d565b611777565b34801561053f57600080fd5b50600e54610553906001600160a01b031681565b6040516001600160a01b0390911681526020016102b4565b34801561057757600080fd5b50610553610586366004612d04565b6118a6565b34801561059757600080fd5b506102dd6105a6366004612cca565b6118d0565b3480156105b757600080fd5b50600154610553906001600160a01b031681565b3480156105d757600080fd5b506102dd6105e6366004612d04565b611943565b3480156105f757600080fd5b50601054610553906001600160a01b031681565b34801561061757600080fd5b506102aa610626366004612d04565b6119dc565b34801561063757600080fd5b506102aa600d5481565b34801561064d57600080fd5b50600e5461030f90600160a01b900460ff1681565b34801561066e57600080fd5b506102dd61067d366004612d3f565b611ad9565b34801561068e57600080fd5b506102aa611cda565b3480156106a357600080fd5b50600554600654600754610702926001600160801b0380821693600160801b92839004821693828216939091049091169064ffffffffff81169065010000000000810461ffff169067010000000000000090046001600160a01b031687565b604080516001600160801b03988916815296881660208801529487169486019490945294909116606084015264ffffffffff16608083015261ffff90921660a08201526001600160a01b0390911660c082015260e0016102b4565b34801561076957600080fd5b50600454610553906001600160a01b031681565b34801561078957600080fd5b506102dd610798366004612d1d565b611db2565b3480156107a957600080fd5b506108286107b8366004612d04565b60036020819052600091825260409091208054600182015460028301549383015460048401546005909401549294919360ff808416946001600160a01b036101008604811695600160a81b9081900484169591821694600160a01b830485169491909204169160a09190911b908a565b604080519a8b5260208b0199909952961515978901979097526001600160a01b0394851660608901529215156080880152921660a086015290151560c0850152151560e08401526001600160a01b0319909116610100830152610120820152610140016102b4565b34801561089c57600080fd5b506102dd6108ab366004612d92565b6122a9565b3480156108bc57600080fd5b506102dd6108cb366004612eae565b612405565b3480156108dc57600080fd5b50600654600554604080516001600160801b03600160801b8086048216835284048116602083015293841691810191909152911660608201526080016102b4565b34801561092957600080fd5b506102aa600c5481565b60008061093e6124bf565b905060006109548260c001518360e001516125bc565b60065490915061096e9082906001600160801b03166125d0565b60808301526001546040805163313ce56760e01b815290516b033b2e3c9fd0803ce8000000926001600160a01b03169163313ce5679160048083019260209291908290030181865afa1580156109c8573d6000803e3d6000fd5b505050506040513d601f19601f820116820180604052508101906109ec9190612f70565b6109f790600a61308d565b6080840151600c54610a08916125d0565b610a12919061309c565b610a1c91906130c9565b9250505090565b600454604080518082019091526002815261313360f01b6020820152906001600160a01b03163314610a715760405162461bcd60e51b8152600401610a6891906130eb565b60405180910390fd5b50600e54604080518082019091526002815261323160f01b602082015290600160a01b900460ff1615610ab75760405162461bcd60e51b8152600401610a6891906130eb565b506000610ac26124bf565b9050610acd81612614565b6001546040805163313ce56760e01b815290516000926001600160a01b03169163313ce5679160048083019260209291908290030181865afa158015610b17573d6000803e3d6000fd5b505050506040513d601f19601f82011682018060405250810190610b3b9190612f70565b610b4690600a61308d565b610b5c6b033b2e3c9fd0803ce80000008861309c565b610b6691906130c9565b90506000610b8183608001518361264d90919063ffffffff16565b60008981526009602052604081205491925090610b9f90839061313a565b905081600c6000828254610bb3919061313a565b9091555050600d5460408051808201909152600281527f3135000000000000000000000000000000000000000000000000000000000000602082015290891115610c105760405162461bcd60e51b8152600401610a6891906130eb565b506000898152600360208181526040808420600990925283208490558b8155600181018b90556002810180547fffffffffffffffffffffff0000000000000000000000000000000000000000ff166101006001600160a01b038d1602179055908101805460ff60a81b1916600160a81b8a1515021790556004810180546bffffffffffffffffffffffff191660a089901c17905590610caf908561268c565b6040850151610cbf90859061264d565b600b6000828254610cd0919061314d565b9250508190555088600d6000828254610ce9919061314d565b90915550879050610d7657600180549082015460405163a9059cbb60e01b81526001600160a01b038b81166004830152602482019290925291169063a9059cbb906044016020604051808303816000875af1158015610d4c573d6000803e3d6000fd5b505050506040513d601f19601f82011682018060405250810190610d709190613160565b50610df7565b600180546010549183015460405163a9059cbb60e01b81526001600160a01b039384166004820152602481019190915291169063a9059cbb906044016020604051808303816000875af1158015610dd1573d6000803e3d6000fd5b505050506040513d601f19601f82011682018060405250810190610df59190613160565b505b50505050505050505050565b600e546040805180820190915260018152601960f91b6020820152906001600160a01b03163314610e475760405162461bcd60e51b8152600401610a6891906130eb565b50600e8054911515600160a01b027fffffffffffffffffffffff00ffffffffffffffffffffffffffffffffffffffff909216919091179055565b600e54604080518082019091526002815261323160f01b602082015290600160a01b900460ff1615610ec65760405162461bcd60e51b8152600401610a6891906130eb565b506000610ed16124bf565b9050610edc81612614565b6001546040805163313ce56760e01b815290516000926001600160a01b03169163313ce5679160048083019260209291908290030181865afa158015610f26573d6000803e3d6000fd5b505050506040513d601f19601f82011682018060405250810190610f4a9190612f70565b610f5590600a61308d565b610f6b6b033b2e3c9fd0803ce80000008561309c565b610f7591906130c9565b9050610f8260008261268c565b600554600090610f9c9083906001600160801b031661264d565b3360009081526008602052604081205491925090610fbb90839061314d565b905081600a6000828254610fcf919061314d565b9250508190555081600b6000828254610fe8919061314d565b909155505060408051808201909152600181527f3800000000000000000000000000000000000000000000000000000000000000602082015250336000908152600860205260408120829055600d805487929061104690849061314d565b909155505060015460405163a9059cbb60e01b8152336004820152602481018790526001600160a01b039091169063a9059cbb906044016020604051808303816000875af115801561109c573d6000803e3d6000fd5b505050506040513d601f19601f820116820180604052508101906110c09190613160565b5060006b033b2e3c9fd0803ce80000006001600160801b0316600160009054906101000a90046001600160a01b03166001600160a01b031663313ce5676040518163ffffffff1660e01b8152600401602060405180830381865afa15801561112c573d6000803e3d6000fd5b505050506040513d601f19601f820116820180604052508101906111509190612f70565b61115b90600a61308d565b6005546111729085906001600160801b03166125d0565b61117c919061309c565b61118691906130c9565b336000908152600f60205260409020549091508110156111b357336000908152600f602052604090208190555b6001543360008181526008602090815260409182902054600a54600b54600d5485518e815294850193909352838501919091526060830152608082015290516001600160a01b03909316923092917f173401e3c9626102fe861ca7ddb4665d741deebad547125c24038cafa9345db2919081900360a00190a4505050505050565b600e54604080518082019091526002815261323160f01b602082015290600160a01b900460ff16156112795760405162461bcd60e51b8152600401610a6891906130eb565b5060115481611286611cda565b611290919061313a565b11156040518060400160405280600281526020017f3233000000000000000000000000000000000000000000000000000000000000815250906112e65760405162461bcd60e51b8152600401610a6891906130eb565b5060006112f16124bf565b90506112fc81612614565b6001546040805163313ce56760e01b815290516000926001600160a01b03169163313ce5679160048083019260209291908290030181865afa158015611346573d6000803e3d6000fd5b505050506040513d601f19601f8201168201806040525081019061136a9190612f70565b61137590600a61308d565b61138b6b033b2e3c9fd0803ce80000008561309c565b61139591906130c9565b90506113a281600061268c565b6005546000906113bc9083906001600160801b031661264d565b33600090815260086020526040812054919250906113db90839061313a565b905081600a60008282546113ef919061313a565b9250508190555081600b6000828254611408919061313a565b9091555050336000908152600860205260408120829055600d805487929061143190849061313a565b90915550506001546040516323b872dd60e01b8152336004820152306024820152604481018790526001600160a01b03909116906323b872dd906064016020604051808303816000875af115801561148d573d6000803e3d6000fd5b505050506040513d601f19601f820116820180604052508101906114b19190613160565b50336000908152600f6020526040812080548792906114d190849061313a565b90915550506001543360008181526008602090815260409182902054600a54600b54600d5485518d815294850193909352838501919091526060830152608082015290516001600160a01b03909316923092917fac71e4358c08cef1a5335ac1c1d79f8eea0a3bd10f01a4259308137ebc63d76a919081900360a00190a45050505050565b33600090815260208181526040918290205482518084019093526002835261062760f31b9183019190915260ff1615156001146115a65760405162461bcd60e51b8152600401610a6891906130eb565b50600780546001600160a01b03909216670100000000000000027fffffffffff0000000000000000000000000000000000000000ffffffffffffff909216919091179055565b33600090815260208181526040918290205482518084019093526002835261062760f31b9183019190915260ff16151560011461163c5760405162461bcd60e51b8152600401610a6891906130eb565b50601155565b6001546040805163313ce56760e01b815290516000926001600160a01b03169163313ce5679160048083019260209291908290030181865afa15801561168c573d6000803e3d6000fd5b505050506040513d601f19601f820116820180604052508101906116b09190612f70565b6116bb90601b61317d565b6116c690600a61308d565b6005546001600160a01b0384166000908152600860205260409020546116f4916001600160801b03166125d0565b6116fe91906130c9565b92915050565b33600090815260208181526040918290205482518084019093526002835261062760f31b9183019190915260ff1615156001146117545760405162461bcd60e51b8152600401610a6891906130eb565b50601080546001600160a01b0319166001600160a01b0392909216919091179055565b600454604080518082019091526002815261313360f01b6020820152906001600160a01b031633146117bc5760405162461bcd60e51b8152600401610a6891906130eb565b50600e54604080518082019091526002815261323160f01b602082015290600160a01b900460ff16156118025760405162461bcd60e51b8152600401610a6891906130eb565b5060008281526003602090815260409182902060029081015483518085019094529083527f313700000000000000000000000000000000000000000000000000000000000091830191909152600160a81b900460ff16156118765760405162461bcd60e51b8152600401610a6891906130eb565b506118818133612814565b506000908152600360205260409020600201805460ff60a81b1916600160a81b179055565b600281815481106118b657600080fd5b6000918252602090912001546001600160a01b0316905081565b33600090815260208181526040918290205482518084019093526002835261062760f31b9183019190915260ff1615156001146119205760405162461bcd60e51b8152600401610a6891906130eb565b50600480546001600160a01b0319166001600160a01b0392909216919091179055565b600454604080518082019091526002815261313360f01b6020820152906001600160a01b031633146119885760405162461bcd60e51b8152600401610a6891906130eb565b50600e54604080518082019091526002815261323160f01b602082015290600160a01b900460ff16156119ce5760405162461bcd60e51b8152600401610a6891906130eb565b506119d98133612814565b50565b6000806119e76124bf565b905060006119fd8260c001518360e001516125bc565b600654909150611a179082906001600160801b03166125d0565b60808301526001546040805163313ce56760e01b815290516b033b2e3c9fd0803ce8000000926001600160a01b03169163313ce5679160048083019260209291908290030181865afa158015611a71573d6000803e3d6000fd5b505050506040513d601f19601f82011682018060405250810190611a959190612f70565b611aa090600a61308d565b6080840151600087815260096020526040902054611abd916125d0565b611ac7919061309c565b611ad191906130c9565b949350505050565b7ff0c57e16840df040f15088dc2f81fe391c3923bec73e23a9662efc9c229c6a00805468010000000000000000810460ff16159067ffffffffffffffff16600081158015611b245750825b905060008267ffffffffffffffff166001148015611b415750303b155b905081158015611b4f575080155b15611b86576040517ff92ee8a900000000000000000000000000000000000000000000000000000000815260040160405180910390fd5b845467ffffffffffffffff191660011785558315611bba57845468ff00000000000000001916680100000000000000001785555b600180546001600160a01b03199081166001600160a01b038c8116919091178355600780547fffffffffff0000000000000000000000000000000000000000ffffffffffffff166701000000000000008d841602179055600580546b033b2e3c9fd0803ce80000006fffffffffffffffffffffffffffffffff199182168117909255600680549091169091179055600e80543390841681179091556000908152602081905260409020805460ff19169093179092556011899055601080549091169188169190911790558315611ccf57845468ff000000000000000019168555604051600181527fc7f505b2f371ae2175ee4913f4499e1f2633a7b5936321eed1cdaeb6115181d29060200160405180910390a15b505050505050505050565b600080611ce56124bf565b90506000611cfb8260a001518360e0015161299e565b9050611d148260400151826125d090919063ffffffff16565b604080840191909152600154815163313ce56760e01b815291516b033b2e3c9fd0803ce8000000926001600160a01b039092169163313ce5679160048083019260209291908290030181865afa158015611d72573d6000803e3d6000fd5b505050506040513d601f19601f82011682018060405250810190611d969190612f70565b611da190600a61308d565b6040840151600a54610a08916125d0565b600454604080518082019091526002815261313360f01b6020820152906001600160a01b03163314611df75760405162461bcd60e51b8152600401610a6891906130eb565b50600e54604080518082019091526002815261323160f01b602082015290600160a01b900460ff1615611e3d5760405162461bcd60e51b8152600401610a6891906130eb565b5060008281526003602090815260409182902060029081015483518085019094529083527f31360000000000000000000000000000000000000000000000000000000000009183019190915260ff1615611eaa5760405162461bcd60e51b8152600401610a6891906130eb565b506000611eb56124bf565b9050611ec081612614565b6001546040805163313ce56760e01b815290516000926001600160a01b03169163313ce5679160048083019260209291908290030181865afa158015611f0a573d6000803e3d6000fd5b505050506040513d601f19601f82011682018060405250810190611f2e9190612f70565b611f3990600a61308d565b611f4f6b033b2e3c9fd0803ce80000008561309c565b611f5991906130c9565b600654909150600090611f769083906001600160801b031661264d565b600086815260096020526040902054909150811061218d57600085815260096020526040812054600c805491929091611fb090849061314d565b90915550506006546000868152600960205260408120549091611fdc91906001600160801b03166125d0565b6001546040805163313ce56760e01b815290519293506000926b033b2e3c9fd0803ce8000000926001600160a01b03169163313ce5679160048083019260209291908290030181865afa158015612037573d6000803e3d6000fd5b505050506040513d601f19601f8201168201806040525081019061205b9190612f70565b61206690600a61308d565b612070908461309c565b61207a91906130c9565b600088815260096020526040812081905590915061209990839061268c565b6040808601516000898152600960205291909120546120b79161264d565b600b60008282546120c8919061313a565b9250508190555080600d60008282546120e1919061313a565b9091555050600154600480546040516323b872dd60e01b81526001600160a01b039182169281019290925230602483015260448201849052909116906323b872dd906064016020604051808303816000875af1158015612145573d6000803e3d6000fd5b505050506040513d601f19601f820116820180604052508101906121699190613160565b5050506000858152600360205260409020600201805460ff191660011790556122a2565b6000858152600960205260408120546121a790839061314d565b905081600c60008282546121bb919061314d565b909155505060008681526009602052604081208290556121dc90849061268c565b60408401516121ec90849061264d565b600b60008282546121fd919061313a565b9250508190555084600d6000828254612216919061313a565b9091555050600154600480546040516323b872dd60e01b81526001600160a01b039182169281019290925230602483015260448201889052909116906323b872dd906064015b6020604051808303816000875af115801561227b573d6000803e3d6000fd5b505050506040513d601f19601f8201168201806040525081019061229f9190613160565b50505b5050505050565b600e546040805180820190915260018152601960f91b6020820152906001600160a01b031633146122ed5760405162461bcd60e51b8152600401610a6891906130eb565b506040517f70a082310000000000000000000000000000000000000000000000000000000081523060048201526001600160a01b0383169063a9059cbb90839083906370a0823190602401602060405180830381865afa158015612355573d6000803e3d6000fd5b505050506040513d601f19601f820116820180604052508101906123799190613196565b6040517fffffffff0000000000000000000000000000000000000000000000000000000060e085901b1681526001600160a01b03909216600483015260248201526044016020604051808303816000875af11580156123dc573d6000803e3d6000fd5b505050506040513d601f19601f820116820180604052508101906124009190613160565b505050565b600e546040805180820190915260018152601960f91b6020820152906001600160a01b031633146124495760405162461bcd60e51b8152600401610a6891906130eb565b5060005b825181101561240057818181518110612468576124686131af565b6020026020010151600080858481518110612485576124856131af565b6020908102919091018101516001600160a01b03168252810191909152604001600020805460ff191691151591909117905560010161244d565b61250e60405180610100016040528060008152602001600081526020016000815260200160008152602001600081526020016000815260200160008152602001600064ffffffffff1681525090565b61255d60405180610100016040528060008152602001600081526020016000815260200160008152602001600081526020016000815260200160008152602001600064ffffffffff1681525090565b6005546001600160801b03808216604084018190526020840152600654808216608085018190526060850152600160801b92839004821660a0850152919091041660c082015260075464ffffffffff1660e0820152600c548152919050565b60006125c98383426129db565b9392505050565b600081156b019d971e4fe8401e7400000019839004841115176125f257600080fd5b506b033b2e3c9fd0803ce800000091026b019d971e4fe8401e74000000010490565b60075464ffffffffff42811691160361262a5750565b61263381612b07565b506007805464ffffffffff19164264ffffffffff16179055565b600081156b033b2e3c9fd0803ce80000006002840419048411171561267157600080fd5b506b033b2e3c9fd0803ce80000009190910260028204010490565b6126b060405180606001604052806000815260200160008152602001600081525090565b6007546040805160808101825285815260208101859052600654600c546701000000000000009094046001600160a01b0316936356eaf264938301916126ff91906001600160801b03166125d0565b8152600554600b5460209092019161271f916001600160801b03166125d0565b9052604080517fffffffff0000000000000000000000000000000000000000000000000000000060e085901b168152825160048201526020830151602482015290820151604482015260609091015160648201526084016040805180830381865afa158015612792573d6000803e3d6000fd5b505050506040513d601f19601f820116820180604052508101906127b691906131c5565b60208301528082526127c790612bea565b600580546001600160801b03928316600160801b02921691909117905560208101516127f290612bea565b600680546001600160801b03928316600160801b029216919091179055505050565b811561299a5760006128246124bf565b905061282f81612614565b6001546040805163313ce56760e01b815290516000926001600160a01b03169163313ce5679160048083019260209291908290030181865afa158015612879573d6000803e3d6000fd5b505050506040513d601f19601f8201168201806040525081019061289d9190612f70565b6128a890600a61308d565b6128be6b033b2e3c9fd0803ce80000008661309c565b6128c891906130c9565b905060006128e58360400151600b546125d090919063ffffffff16565b9050600061290d8261290786604001518686612901919061313a565b906125d0565b9061264d565b905061291881612bea565b600580546fffffffffffffffffffffffffffffffff19166001600160801b0392909216919091179055600d805487919060009061295690849061313a565b90915550506001546040516323b872dd60e01b81526001600160a01b03878116600483015230602483015260448201899052909116906323b872dd9060640161225c565b5050565b6000806129b264ffffffffff84164261314d565b6129bc908561309c565b6301e1338090049050611ad1816b033b2e3c9fd0803ce800000061313a565b6000806129ef64ffffffffff85168461314d565b905080600003612a0e576b033b2e3c9fd0803ce80000009150506125c9565b60001981016000808060028511612a26576000612a2b565b600285035b925066038882915c4000612a3f8a806125d0565b81612a4c57612a4c6130b3565b0491506301e13380612a5e838b6125d0565b81612a6b57612a6b6130b3565b049050600082612a7b868861309c565b612a85919061309c565b60029004905060008285612a99888a61309c565b612aa3919061309c565b612aad919061309c565b60069004905080826301e13380612ac48a8f61309c565b612ace91906130c9565b612ae4906b033b2e3c9fd0803ce800000061313a565b612aee919061313a565b612af8919061313a565b9b9a5050505050505050505050565b60a081015115612b79576000612b258260a001518360e0015161299e565b9050612b3e8260200151826125d090919063ffffffff16565b60408301819052612b4e90612bea565b600580546fffffffffffffffffffffffffffffffff19166001600160801b0392909216919091179055505b8051156119d9576000612b948260c001518360e001516125bc565b9050612bad8260600151826125d090919063ffffffff16565b60808301819052612bbd90612bea565b600680546fffffffffffffffffffffffffffffffff19166001600160801b03929092169190911790555050565b60006001600160801b03821115612c37576040517f6dfcc6500000000000000000000000000000000000000000000000000000000081526080600482015260248101839052604401610a68565b5090565b6001600160a01b03811681146119d957600080fd5b80151581146119d957600080fd5b600080600080600060a08688031215612c7657600080fd5b85359450602086013593506040860135612c8f81612c3b565b92506060860135612c9f81612c50565b915060808601356001600160a01b031981168114612cbc57600080fd5b809150509295509295909350565b600060208284031215612cdc57600080fd5b81356125c981612c3b565b600060208284031215612cf957600080fd5b81356125c981612c50565b600060208284031215612d1657600080fd5b5035919050565b60008060408385031215612d3057600080fd5b50508035926020909101359150565b60008060008060808587031215612d5557600080fd5b8435612d6081612c3b565b93506020850135612d7081612c3b565b9250604085013591506060850135612d8781612c3b565b939692955090935050565b60008060408385031215612da557600080fd5b8235612db081612c3b565b91506020830135612dc081612c3b565b809150509250929050565b634e487b7160e01b600052604160045260246000fd5b604051601f8201601f1916810167ffffffffffffffff81118282101715612e0a57612e0a612dcb565b604052919050565b600067ffffffffffffffff821115612e2c57612e2c612dcb565b5060051b60200190565b600082601f830112612e4757600080fd5b81356020612e5c612e5783612e12565b612de1565b8083825260208201915060208460051b870101935086841115612e7e57600080fd5b602086015b84811015612ea3578035612e9681612c50565b8352918301918301612e83565b509695505050505050565b60008060408385031215612ec157600080fd5b823567ffffffffffffffff80821115612ed957600080fd5b818501915085601f830112612eed57600080fd5b81356020612efd612e5783612e12565b82815260059290921b84018101918181019089841115612f1c57600080fd5b948201945b83861015612f43578535612f3481612c3b565b82529482019490820190612f21565b96505086013592505080821115612f5957600080fd5b50612f6685828601612e36565b9150509250929050565b600060208284031215612f8257600080fd5b815160ff811681146125c957600080fd5b634e487b7160e01b600052601160045260246000fd5b600181815b80851115612fe4578160001904821115612fca57612fca612f93565b80851615612fd757918102915b93841c9390800290612fae565b509250929050565b600082612ffb575060016116fe565b81613008575060006116fe565b816001811461301e576002811461302857613044565b60019150506116fe565b60ff84111561303957613039612f93565b50506001821b6116fe565b5060208310610133831016604e8410600b8410161715613067575081810a6116fe565b6130718383612fa9565b806000190482111561308557613085612f93565b029392505050565b60006125c960ff841683612fec565b80820281158282048414176116fe576116fe612f93565b634e487b7160e01b600052601260045260246000fd5b6000826130e657634e487b7160e01b600052601260045260246000fd5b500490565b60006020808352835180602085015260005b81811015613119578581018301518582016040015282016130fd565b506000604082860101526040601f19601f8301168501019250505092915050565b808201808211156116fe576116fe612f93565b818103818111156116fe576116fe612f93565b60006020828403121561317257600080fd5b81516125c981612c50565b60ff82811682821603908111156116fe576116fe612f93565b6000602082840312156131a857600080fd5b5051919050565b634e487b7160e01b600052603260045260246000fd5b600080604083850312156131d857600080fd5b50508051602090910151909290915056fea26469706673582212206d65fbfb9cf400560dd511c321898b160c175647f0b72aef224be4e099e36ba564736f6c63430008180033",
  "linkReferences": {},
  "deployedLinkReferences": {}
}