{
  "_format": "hh-sol-artifact-1",
  "contractName": "FSFI",
  "sourceName": "contracts/FSFI.sol",
  "abi": [
    {
      "inputs": [],
      "name": "ERC1167FailedCreateClone",
      "type": "error"
    },
    {
      "inputs": [],
      "name": "InvalidInitialization",
      "type": "error"
    },
    {
      "inputs": [],
      "name": "NotInitializing",
      "type": "error"
    },
    {
      "anonymous": false,
      "inputs": [
        {
          "indexed": true,
          "internalType": "address",
          "name": "borrower",
          "type": "address"
        },
        {
          "components": [
            {
              "internalType": "uint256",
              "name": "loanId",
              "type": "uint256"
            },
            {
              "internalType": "uint256",
              "name": "amount",
              "type": "uint256"
            },
            {
              "internalType": "bool",
              "name": "isClosed",
              "type": "bool"
            },
            {
              "internalType": "address",
              "name": "borrower",
              "type": "address"
            },
            {
              "internalType": "bool",
              "name": "isLiquidated",
              "type": "bool"
            },
            {
              "internalType": "contract IERC20Standard",
              "name": "stableCoin",
              "type": "address"
            },
            {
              "internalType": "bool",
              "name": "isFinalty",
              "type": "bool"
            },
            {
              "internalType": "bool",
              "name": "isFiat",
              "type": "bool"
            },
            {
              "internalType": "uint256",
              "name": "closedAmount",
              "type": "uint256"
            }
          ],
          "indexed": false,
          "internalType": "struct DataTypes.Loan",
          "name": "loanInfo",
          "type": "tuple"
        },
        {
          "indexed": false,
          "internalType": "uint256",
          "name": "collateralAmount",
          "type": "uint256"
        },
        {
          "indexed": false,
          "internalType": "contract IERC20Standard",
          "name": "collateral",
          "type": "address"
        },
        {
          "indexed": false,
          "internalType": "bool",
          "name": "isETH",
          "type": "bool"
        }
      ],
      "name": "AddCollateral",
      "type": "event"
    },
    {
      "anonymous": false,
      "inputs": [
        {
          "indexed": true,
          "internalType": "address",
          "name": "borrower",
          "type": "address"
        },
        {
          "indexed": false,
          "internalType": "address",
          "name": "loanAddress",
          "type": "address"
        },
        {
          "components": [
            {
              "internalType": "uint256",
              "name": "loanId",
              "type": "uint256"
            },
            {
              "internalType": "uint256",
              "name": "amount",
              "type": "uint256"
            },
            {
              "internalType": "bool",
              "name": "isClosed",
              "type": "bool"
            },
            {
              "internalType": "address",
              "name": "borrower",
              "type": "address"
            },
            {
              "internalType": "bool",
              "name": "isLiquidated",
              "type": "bool"
            },
            {
              "internalType": "contract IERC20Standard",
              "name": "stableCoin",
              "type": "address"
            },
            {
              "internalType": "bool",
              "name": "isFinalty",
              "type": "bool"
            },
            {
              "internalType": "bool",
              "name": "isFiat",
              "type": "bool"
            },
            {
              "internalType": "uint256",
              "name": "closedAmount",
              "type": "uint256"
            }
          ],
          "indexed": false,
          "internalType": "struct DataTypes.Loan",
          "name": "loanInfo",
          "type": "tuple"
        },
        {
          "indexed": false,
          "internalType": "uint256",
          "name": "collateralAmount",
          "type": "uint256"
        },
        {
          "indexed": false,
          "internalType": "contract IERC20Standard",
          "name": "collateral",
          "type": "address"
        },
        {
          "indexed": false,
          "internalType": "bool",
          "name": "isYieldGenerating",
          "type": "bool"
        },
        {
          "indexed": false,
          "internalType": "bool",
          "name": "isETH",
          "type": "bool"
        }
      ],
      "name": "CreateLoan",
      "type": "event"
    },
    {
      "anonymous": false,
      "inputs": [
        {
          "indexed": false,
          "internalType": "uint64",
          "name": "version",
          "type": "uint64"
        }
      ],
      "name": "Initialized",
      "type": "event"
    },
    {
      "anonymous": false,
      "inputs": [
        {
          "indexed": true,
          "internalType": "address",
          "name": "liquidator",
          "type": "address"
        },
        {
          "indexed": true,
          "internalType": "address",
          "name": "borrower",
          "type": "address"
        },
        {
          "components": [
            {
              "internalType": "uint256",
              "name": "loanId",
              "type": "uint256"
            },
            {
              "internalType": "uint256",
              "name": "amount",
              "type": "uint256"
            },
            {
              "internalType": "bool",
              "name": "isClosed",
              "type": "bool"
            },
            {
              "internalType": "address",
              "name": "borrower",
              "type": "address"
            },
            {
              "internalType": "bool",
              "name": "isLiquidated",
              "type": "bool"
            },
            {
              "internalType": "contract IERC20Standard",
              "name": "stableCoin",
              "type": "address"
            },
            {
              "internalType": "bool",
              "name": "isFinalty",
              "type": "bool"
            },
            {
              "internalType": "bool",
              "name": "isFiat",
              "type": "bool"
            },
            {
              "internalType": "uint256",
              "name": "closedAmount",
              "type": "uint256"
            }
          ],
          "indexed": false,
          "internalType": "struct DataTypes.Loan",
          "name": "loanInfo",
          "type": "tuple"
        },
        {
          "indexed": false,
          "internalType": "uint256",
          "name": "collateralAmount",
          "type": "uint256"
        },
        {
          "indexed": false,
          "internalType": "contract IERC20Standard",
          "name": "collateral",
          "type": "address"
        }
      ],
      "name": "Liquidate",
      "type": "event"
    },
    {
      "anonymous": false,
      "inputs": [
        {
          "indexed": true,
          "internalType": "address",
          "name": "borrower",
          "type": "address"
        },
        {
          "components": [
            {
              "internalType": "uint256",
              "name": "loanId",
              "type": "uint256"
            },
            {
              "internalType": "uint256",
              "name": "amount",
              "type": "uint256"
            },
            {
              "internalType": "bool",
              "name": "isClosed",
              "type": "bool"
            },
            {
              "internalType": "address",
              "name": "borrower",
              "type": "address"
            },
            {
              "internalType": "bool",
              "name": "isLiquidated",
              "type": "bool"
            },
            {
              "internalType": "contract IERC20Standard",
              "name": "stableCoin",
              "type": "address"
            },
            {
              "internalType": "bool",
              "name": "isFinalty",
              "type": "bool"
            },
            {
              "internalType": "bool",
              "name": "isFiat",
              "type": "bool"
            },
            {
              "internalType": "uint256",
              "name": "closedAmount",
              "type": "uint256"
            }
          ],
          "indexed": false,
          "internalType": "struct DataTypes.Loan",
          "name": "loanInfo",
          "type": "tuple"
        },
        {
          "indexed": false,
          "internalType": "uint256",
          "name": "repayAmount",
          "type": "uint256"
        },
        {
          "indexed": false,
          "internalType": "uint256",
          "name": "debtRemain",
          "type": "uint256"
        }
      ],
      "name": "RepayLoan",
      "type": "event"
    },
    {
      "anonymous": false,
      "inputs": [
        {
          "indexed": true,
          "internalType": "address",
          "name": "borrower",
          "type": "address"
        },
        {
          "components": [
            {
              "internalType": "uint256",
              "name": "loanId",
              "type": "uint256"
            },
            {
              "internalType": "uint256",
              "name": "amount",
              "type": "uint256"
            },
            {
              "internalType": "bool",
              "name": "isClosed",
              "type": "bool"
            },
            {
              "internalType": "address",
              "name": "borrower",
              "type": "address"
            },
            {
              "internalType": "bool",
              "name": "isLiquidated",
              "type": "bool"
            },
            {
              "internalType": "contract IERC20Standard",
              "name": "stableCoin",
              "type": "address"
            },
            {
              "internalType": "bool",
              "name": "isFinalty",
              "type": "bool"
            },
            {
              "internalType": "bool",
              "name": "isFiat",
              "type": "bool"
            },
            {
              "internalType": "uint256",
              "name": "closedAmount",
              "type": "uint256"
            }
          ],
          "indexed": false,
          "internalType": "struct DataTypes.Loan",
          "name": "loanInfo",
          "type": "tuple"
        },
        {
          "indexed": false,
          "internalType": "uint256",
          "name": "collateralAmount",
          "type": "uint256"
        },
        {
          "indexed": false,
          "internalType": "contract IERC20Standard",
          "name": "collateral",
          "type": "address"
        },
        {
          "indexed": false,
          "internalType": "bool",
          "name": "isETH",
          "type": "bool"
        }
      ],
      "name": "WithdrawAllCollateral",
      "type": "event"
    },
    {
      "anonymous": false,
      "inputs": [
        {
          "indexed": true,
          "internalType": "address",
          "name": "admin",
          "type": "address"
        },
        {
          "components": [
            {
              "internalType": "uint256",
              "name": "loanId",
              "type": "uint256"
            },
            {
              "internalType": "uint256",
              "name": "amount",
              "type": "uint256"
            },
            {
              "internalType": "bool",
              "name": "isClosed",
              "type": "bool"
            },
            {
              "internalType": "address",
              "name": "borrower",
              "type": "address"
            },
            {
              "internalType": "bool",
              "name": "isLiquidated",
              "type": "bool"
            },
            {
              "internalType": "contract IERC20Standard",
              "name": "stableCoin",
              "type": "address"
            },
            {
              "internalType": "bool",
              "name": "isFinalty",
              "type": "bool"
            },
            {
              "internalType": "bool",
              "name": "isFiat",
              "type": "bool"
            },
            {
              "internalType": "uint256",
              "name": "closedAmount",
              "type": "uint256"
            }
          ],
          "indexed": false,
          "internalType": "struct DataTypes.Loan",
          "name": "loanInfo",
          "type": "tuple"
        },
        {
          "indexed": false,
          "internalType": "uint256",
          "name": "collateralAmount",
          "type": "uint256"
        },
        {
          "indexed": false,
          "internalType": "contract IERC20Standard",
          "name": "collateral",
          "type": "address"
        },
        {
          "indexed": false,
          "internalType": "bool",
          "name": "isETH",
          "type": "bool"
        }
      ],
      "name": "WithdrawAllCollateralByAdmin",
      "type": "event"
    },
    {
      "inputs": [
        {
          "internalType": "uint256",
          "name": "_loanId",
          "type": "uint256"
        },
        {
          "internalType": "uint256",
          "name": "_amountCollateral",
          "type": "uint256"
        },
        {
          "internalType": "contract IERC20Standard",
          "name": "_collateral",
          "type": "address"
        }
      ],
      "name": "addCollateral",
      "outputs": [],
      "stateMutability": "nonpayable",
      "type": "function"
    },
    {
      "inputs": [
        {
          "internalType": "uint256",
          "name": "_loanId",
          "type": "uint256"
        },
        {
          "internalType": "uint256",
          "name": "_amountETH",
          "type": "uint256"
        }
      ],
      "name": "addCollateralByETH",
      "outputs": [],
      "stateMutability": "payable",
      "type": "function"
    },
    {
      "inputs": [
        {
          "internalType": "uint256",
          "name": "_loanId",
          "type": "uint256"
        },
        {
          "internalType": "uint256",
          "name": "_amountCollateral",
          "type": "uint256"
        }
      ],
      "name": "addCollateralHealthFactor",
      "outputs": [
        {
          "internalType": "uint256",
          "name": "",
          "type": "uint256"
        }
      ],
      "stateMutability": "view",
      "type": "function"
    },
    {
      "inputs": [
        {
          "internalType": "contract IERC20Standard[]",
          "name": "array",
          "type": "address[]"
        },
        {
          "internalType": "contract IERC20Standard",
          "name": "el",
          "type": "address"
        }
      ],
      "name": "checkExistElement",
      "outputs": [
        {
          "internalType": "bool",
          "name": "",
          "type": "bool"
        }
      ],
      "stateMutability": "pure",
      "type": "function"
    },
    {
      "inputs": [
        {
          "internalType": "uint256",
          "name": "_amount",
          "type": "uint256"
        },
        {
          "internalType": "contract IERC20Standard",
          "name": "_stableCoin",
          "type": "address"
        },
        {
          "internalType": "contract IERC20Standard",
          "name": "_collateral",
          "type": "address"
        }
      ],
      "name": "checkMinimalCollateralForLoan",
      "outputs": [
        {
          "internalType": "uint256",
          "name": "",
          "type": "uint256"
        }
      ],
      "stateMutability": "view",
      "type": "function"
    },
    {
      "inputs": [
        {
          "internalType": "uint256",
          "name": "_amount",
          "type": "uint256"
        },
        {
          "internalType": "contract IERC20Standard",
          "name": "_stableCoin",
          "type": "address"
        },
        {
          "internalType": "uint256",
          "name": "_amountCollateral",
          "type": "uint256"
        },
        {
          "internalType": "contract IERC20Standard",
          "name": "_collateral",
          "type": "address"
        },
        {
          "internalType": "bool",
          "name": "_isYieldGenerating",
          "type": "bool"
        },
        {
          "internalType": "bool",
          "name": "_isFiat",
          "type": "bool"
        }
      ],
      "name": "createLoan",
      "outputs": [],
      "stateMutability": "nonpayable",
      "type": "function"
    },
    {
      "inputs": [
        {
          "internalType": "uint256",
          "name": "_amount",
          "type": "uint256"
        },
        {
          "internalType": "contract IERC20Standard",
          "name": "_stableCoin",
          "type": "address"
        },
        {
          "internalType": "uint256",
          "name": "_amountETH",
          "type": "uint256"
        },
        {
          "internalType": "bool",
          "name": "_isYieldGenerating",
          "type": "bool"
        },
        {
          "internalType": "bool",
          "name": "_isFiat",
          "type": "bool"
        }
      ],
      "name": "createLoanByETH",
      "outputs": [],
      "stateMutability": "payable",
      "type": "function"
    },
    {
      "inputs": [
        {
          "internalType": "contract IERC20Standard",
          "name": "_stableCoin",
          "type": "address"
        },
        {
          "internalType": "uint256",
          "name": "_amount",
          "type": "uint256"
        },
        {
          "internalType": "contract IERC20Standard",
          "name": "_collateralToken",
          "type": "address"
        },
        {
          "internalType": "uint256",
          "name": "_amountCollateral",
          "type": "uint256"
        }
      ],
      "name": "estimateHealthFactor",
      "outputs": [
        {
          "internalType": "uint256",
          "name": "",
          "type": "uint256"
        }
      ],
      "stateMutability": "view",
      "type": "function"
    },
    {
      "inputs": [],
      "name": "fsfiConfig",
      "outputs": [
        {
          "internalType": "contract IFSFIConfig",
          "name": "",
          "type": "address"
        }
      ],
      "stateMutability": "view",
      "type": "function"
    },
    {
      "inputs": [],
      "name": "fsfiLoan",
      "outputs": [
        {
          "internalType": "contract IFSFILoan",
          "name": "",
          "type": "address"
        }
      ],
      "stateMutability": "view",
      "type": "function"
    },
    {
      "inputs": [
        {
          "internalType": "contract IERC20Standard",
          "name": "",
          "type": "address"
        }
      ],
      "name": "fsfiPools",
      "outputs": [
        {
          "internalType": "contract IFSFIPool",
          "name": "",
          "type": "address"
        }
      ],
      "stateMutability": "view",
      "type": "function"
    },
    {
      "inputs": [
        {
          "internalType": "uint256",
          "name": "_loanId",
          "type": "uint256"
        }
      ],
      "name": "getHealthFactor",
      "outputs": [
        {
          "internalType": "uint256",
          "name": "",
          "type": "uint256"
        }
      ],
      "stateMutability": "view",
      "type": "function"
    },
    {
      "inputs": [
        {
          "internalType": "uint256",
          "name": "_loanId",
          "type": "uint256"
        }
      ],
      "name": "getLoanAddress",
      "outputs": [
        {
          "internalType": "address",
          "name": "",
          "type": "address"
        }
      ],
      "stateMutability": "view",
      "type": "function"
    },
    {
      "inputs": [
        {
          "internalType": "address",
          "name": "borrower",
          "type": "address"
        }
      ],
      "name": "getLoanIds",
      "outputs": [
        {
          "internalType": "uint256[]",
          "name": "",
          "type": "uint256[]"
        }
      ],
      "stateMutability": "view",
      "type": "function"
    },
    {
      "inputs": [
        {
          "internalType": "contract IERC20Standard[]",
          "name": "_fsfiPoolStableCoin",
          "type": "address[]"
        },
        {
          "internalType": "contract IFSFIPool[]",
          "name": "_fsfiPools",
          "type": "address[]"
        },
        {
          "internalType": "contract IFSFIConfig",
          "name": "_fsfiConfig",
          "type": "address"
        },
        {
          "internalType": "contract IFSFILoan",
          "name": "_fsfiLoan",
          "type": "address"
        }
      ],
      "name": "initialize",
      "outputs": [],
      "stateMutability": "nonpayable",
      "type": "function"
    },
    {
      "inputs": [],
      "name": "isPaused",
      "outputs": [
        {
          "internalType": "bool",
          "name": "",
          "type": "bool"
        }
      ],
      "stateMutability": "view",
      "type": "function"
    },
    {
      "inputs": [
        {
          "internalType": "uint256",
          "name": "_loanId",
          "type": "uint256"
        }
      ],
      "name": "liquidate",
      "outputs": [],
      "stateMutability": "nonpayable",
      "type": "function"
    },
    {
      "inputs": [],
      "name": "loandIds",
      "outputs": [
        {
          "internalType": "uint256",
          "name": "",
          "type": "uint256"
        }
      ],
      "stateMutability": "view",
      "type": "function"
    },
    {
      "inputs": [
        {
          "internalType": "address",
          "name": "",
          "type": "address"
        }
      ],
      "name": "operators",
      "outputs": [
        {
          "internalType": "bool",
          "name": "",
          "type": "bool"
        }
      ],
      "stateMutability": "view",
      "type": "function"
    },
    {
      "inputs": [],
      "name": "owner",
      "outputs": [
        {
          "internalType": "address",
          "name": "",
          "type": "address"
        }
      ],
      "stateMutability": "view",
      "type": "function"
    },
    {
      "inputs": [
        {
          "internalType": "uint256",
          "name": "_loanId",
          "type": "uint256"
        },
        {
          "internalType": "uint256",
          "name": "_amount",
          "type": "uint256"
        }
      ],
      "name": "repayHealthFactor",
      "outputs": [
        {
          "internalType": "uint256",
          "name": "",
          "type": "uint256"
        }
      ],
      "stateMutability": "view",
      "type": "function"
    },
    {
      "inputs": [
        {
          "internalType": "uint256",
          "name": "_loanId",
          "type": "uint256"
        },
        {
          "internalType": "uint256",
          "name": "_amount",
          "type": "uint256"
        },
        {
          "internalType": "contract IERC20Standard",
          "name": "_stableCoin",
          "type": "address"
        }
      ],
      "name": "repayLoan",
      "outputs": [],
      "stateMutability": "nonpayable",
      "type": "function"
    },
    {
      "inputs": [
        {
          "internalType": "contract IFSFILoan",
          "name": "_loan",
          "type": "address"
        }
      ],
      "name": "setFSFILoan",
      "outputs": [],
      "stateMutability": "nonpayable",
      "type": "function"
    },
    {
      "inputs": [
        {
          "internalType": "address[]",
          "name": "_addresses",
          "type": "address[]"
        },
        {
          "internalType": "bool[]",
          "name": "_isActives",
          "type": "bool[]"
        }
      ],
      "name": "setOperators",
      "outputs": [],
      "stateMutability": "nonpayable",
      "type": "function"
    },
    {
      "inputs": [
        {
          "internalType": "bool",
          "name": "_paused",
          "type": "bool"
        }
      ],
      "name": "setPaused",
      "outputs": [],
      "stateMutability": "nonpayable",
      "type": "function"
    },
    {
      "inputs": [
        {
          "internalType": "contract IERC20Standard[]",
          "name": "_fsfiPoolStableCoin",
          "type": "address[]"
        },
        {
          "internalType": "contract IFSFIPool[]",
          "name": "_fsfiPools",
          "type": "address[]"
        }
      ],
      "name": "setPools",
      "outputs": [],
      "stateMutability": "nonpayable",
      "type": "function"
    },
    {
      "inputs": [
        {
          "internalType": "address",
          "name": "",
          "type": "address"
        },
        {
          "internalType": "uint256",
          "name": "",
          "type": "uint256"
        }
      ],
      "name": "userLoans",
      "outputs": [
        {
          "internalType": "uint256",
          "name": "",
          "type": "uint256"
        }
      ],
      "stateMutability": "view",
      "type": "function"
    },
    {
      "inputs": [
        {
          "internalType": "uint256",
          "name": "_loanId",
          "type": "uint256"
        },
        {
          "internalType": "bool",
          "name": "_isETH",
          "type": "bool"
        }
      ],
      "name": "withdrawAllCollateral",
      "outputs": [],
      "stateMutability": "nonpayable",
      "type": "function"
    },
    {
      "inputs": [
        {
          "internalType": "uint256",
          "name": "_loanId",
          "type": "uint256"
        },
        {
          "internalType": "bool",
          "name": "isETH",
          "type": "bool"
        }
      ],
      "name": "withdrawAllCollateralByAdmin",
      "outputs": [],
      "stateMutability": "nonpayable",
      "type": "function"
    },
    {
      "stateMutability": "payable",
      "type": "receive"
    }
  ],
  "bytecode": "0x608060405234801561001057600080fd5b50614ea1806100206000396000f3fe6080604052600436106101c65760003560e01c8063752efd74116100f7578063b5dbde5f11610095578063e43b03d611610064578063e43b03d61461053f578063ef3c5d251461055f578063f43050351461057f578063fdb2b32c1461059f57600080fd5b8063b5dbde5f146104c3578063be5f2c62146104d6578063cff212e61461050c578063d8bad5bd1461051f57600080fd5b80638da5cb5b116100d15780638da5cb5b14610442578063a8700c3c14610462578063af6a85c414610482578063b187bd26146104a257600080fd5b8063752efd74146103ec5780638858ddc51461040c5780638ba02e1c1461042c57600080fd5b806337f461d4116101645780635c8edac41161013e5780635c8edac41461035f5780636b64c8851461037f5780636eb0fdd0146103ac5780636f601217146103cc57600080fd5b806337f461d4146102e75780633c8bf9b31461031f578063415f12401461033f57600080fd5b806317845c69116101a057806317845c69146102595780631bb514cf146102875780631d9eb5d9146102a757806325e9d2fa146102c757600080fd5b8063018aafe5146101d257806313e7c9d8146101f457806316c38b3c1461023957600080fd5b366101cd57005b600080fd5b3480156101de57600080fd5b506101f26101ed3660046142fe565b6105d5565b005b34801561020057600080fd5b5061022461020f3660046142fe565b60006020819052908152604090205460ff1681565b60405190151581526020015b60405180910390f35b34801561024557600080fd5b506101f2610254366004614330565b610645565b34801561026557600080fd5b5061027961027436600461434d565b6106c3565b604051908152602001610230565b34801561029357600080fd5b506102796102a2366004614366565b610841565b3480156102b357600080fd5b506102246102c23660046144b5565b610ad2565b3480156102d357600080fd5b506102796102e2366004614507565b610b2d565b3480156102f357600080fd5b50600454610307906001600160a01b031681565b6040516001600160a01b039091168152602001610230565b34801561032b57600080fd5b506101f261033a366004614529565b610ca3565b34801561034b57600080fd5b506101f261035a36600461434d565b610eb6565b34801561036b57600080fd5b506101f261037a3660046145b2565b6116aa565b34801561038b57600080fd5b5061039f61039a3660046142fe565b611954565b60405161023091906145d7565b3480156103b857600080fd5b506101f26103c736600461461b565b6119c0565b3480156103d857600080fd5b506101f26103e7366004614649565b612146565b3480156103f857600080fd5b50600554610307906001600160a01b031681565b34801561041857600080fd5b506102796104273660046146ad565b612237565b34801561043857600080fd5b5061027960015481565b34801561044e57600080fd5b50600254610307906001600160a01b031681565b34801561046e57600080fd5b506101f261047d3660046146f5565b6124f7565b34801561048e57600080fd5b506101f261049d3660046145b2565b61296b565b3480156104ae57600080fd5b5060025461022490600160a01b900460ff1681565b6101f26104d1366004614765565b612a29565b3480156104e257600080fd5b506103076104f13660046142fe565b6006602052600090815260409020546001600160a01b031681565b6101f261051a366004614507565b612f93565b34801561052b57600080fd5b5061027961053a3660046147c4565b6133e7565b34801561054b57600080fd5b5061027961055a366004614507565b613418565b34801561056b57600080fd5b506101f261057a36600461461b565b61358d565b34801561058b57600080fd5b506101f261059a366004614858565b613956565b3480156105ab57600080fd5b506103076105ba36600461434d565b6000908152600760205260409020546001600160a01b031690565b6002546040805180820190915260018152601960f91b6020820152906001600160a01b031633146106225760405162461bcd60e51b81526004016106199190614910565b60405180910390fd5b50600580546001600160a01b0319166001600160a01b0392909216919091179055565b6002546040805180820190915260018152601960f91b6020820152906001600160a01b031633146106895760405162461bcd60e51b81526004016106199190614910565b5060028054911515600160a01b027fffffffffffffffffffffff00ffffffffffffffffffffffffffffffffffffffff909216919091179055565b600081815260076020526040808220548151635d3e2fa160e01b815291516001600160a01b039091169183918391635d3e2fa1916004808301926101209291908290030181865afa15801561071c573d6000803e3d6000fd5b505050506040513d601f19601f820116820180604052508101906107409190614975565b60a08101516001600160a01b0390811660009081526006602052604080822054905163a52f38d160e01b815260048101899052939450909291169063a52f38d190602401602060405180830381865afa1580156107a1573d6000803e3d6000fd5b505050506040513d601f19601f820116820180604052508101906107c59190614a18565b604051632696439560e11b815260048101829052600060248201529091506001600160a01b03841690634d2c872a90604401602060405180830381865afa158015610814573d6000803e3d6000fd5b505050506040513d601f19601f820116820180604052508101906108389190614a18565b95945050505050565b6000806000600460009054906101000a90046001600160a01b03166001600160a01b031663e75235b86040518163ffffffff1660e01b81526004016040805180830381865afa158015610898573d6000803e3d6000fd5b505050506040513d601f19601f820116820180604052508101906108bc9190614a31565b600480546040516359dfff5560e11b81526001600160a01b038981169382019390935260006024820152939550919350169063b3bffeaa90604401602060405180830381865afa158015610914573d6000803e3d6000fd5b505050506040513d601f19601f820116820180604052508101906109389190614a18565b82866001600160a01b031663313ce5676040518163ffffffff1660e01b8152600401602060405180830381865afa158015610977573d6000803e3d6000fd5b505050506040513d601f19601f8201168201806040525081019061099b9190614a55565b6109a690600a614b72565b600480546040516359dfff5560e11b81526001600160a01b038b8116938201939093526001602482015291169063b3bffeaa90604401602060405180830381865afa1580156109f9573d6000803e3d6000fd5b505050506040513d601f19601f82011682018060405250810190610a1d9190614a18565b876001600160a01b031663313ce5676040518163ffffffff1660e01b8152600401602060405180830381865afa158015610a5b573d6000803e3d6000fd5b505050506040513d601f19601f82011682018060405250810190610a7f9190614a55565b610a8a90600a614b72565b610a94908b614b81565b610aa090612710614b81565b610aaa9190614b81565b610ab49190614b98565b610abe9190614b98565b610ac89190614b98565b9695505050505050565b600080805b8451811015610b2357836001600160a01b0316858281518110610afc57610afc614bba565b60200260200101516001600160a01b031603610b1b5760019150610b23565b600101610ad7565b5090505b92915050565b600082815260076020526040808220548151635d3e2fa160e01b815291516001600160a01b039091169183918391635d3e2fa1916004808301926101209291908290030181865afa158015610b86573d6000803e3d6000fd5b505050506040513d601f19601f82011682018060405250810190610baa9190614975565b60a08101516001600160a01b0390811660009081526006602052604080822054905163a52f38d160e01b8152600481018a9052939450909291169063a52f38d190602401602060405180830381865afa158015610c0b573d6000803e3d6000fd5b505050506040513d601f19601f82011682018060405250810190610c2f9190614a18565b604051632696439560e11b815260048101829052602481018790529091506001600160a01b03841690634d2c872a906044015b602060405180830381865afa158015610c7f573d6000803e3d6000fd5b505050506040513d601f19601f82011682018060405250810190610ac89190614a18565b7ff0c57e16840df040f15088dc2f81fe391c3923bec73e23a9662efc9c229c6a00805468010000000000000000810460ff16159067ffffffffffffffff16600081158015610cee5750825b905060008267ffffffffffffffff166001148015610d0b5750303b155b905081158015610d19575080155b15610d50576040517ff92ee8a900000000000000000000000000000000000000000000000000000000815260040160405180910390fd5b845467ffffffffffffffff191660011785558315610d8457845468ff00000000000000001916680100000000000000001785555b60005b8851811015610e0457888181518110610da257610da2614bba565b6020026020010151600660008c8481518110610dc057610dc0614bba565b6020908102919091018101516001600160a01b0390811683529082019290925260400160002080546001600160a01b03191692909116919091179055600101610d87565b50600180805560028054336001600160a01b03199182168117909255600091825260208290526040909120805460ff19169092179091556004805482166001600160a01b038a811691909117909155600580549092169088161790558315610eab57845468ff000000000000000019168555604051600181527fc7f505b2f371ae2175ee4913f4499e1f2633a7b5936321eed1cdaeb6115181d29060200160405180910390a15b505050505050505050565b600280546040805180820190915291825261323160f01b6020830152600160a01b900460ff1615610efa5760405162461bcd60e51b81526004016106199190614910565b50600081815260076020526040808220548151635d3e2fa160e01b815291516001600160a01b0390911692918391635d3e2fa191600480820192610120929091908290030181865afa158015610f54573d6000803e3d6000fd5b505050506040513d601f19601f82011682018060405250810190610f789190614975565b60a08101516001600160a01b0390811660009081526006602052604080822054905163a52f38d160e01b815260048101889052939450909291169063a52f38d190602401602060405180830381865afa158015610fd9573d6000803e3d6000fd5b505050506040513d601f19601f82011682018060405250810190610ffd9190614a18565b9050600080600080866001600160a01b031663415f1240866040518263ffffffff1660e01b815260040161103391815260200190565b6080604051808303816000875af1158015611052573d6000803e3d6000fd5b505050506040513d601f19601f820116820180604052508101906110769190614bd0565b93509350935093508560a001516001600160a01b03166323b872dd883086888a6110a09190614c06565b6110aa9190614c06565b6040517fffffffff0000000000000000000000000000000000000000000000000000000060e086901b1681526001600160a01b03938416600482015292909116602483015260448201526064016020604051808303816000875af1158015611116573d6000803e3d6000fd5b505050506040513d601f19601f8201168201806040525081019061113a9190614c19565b5060a08601516001600160a01b039081166000818152600660205260409081902054905163095ea7b360e01b815292166004830152602482018790529063095ea7b3906044016020604051808303816000875af115801561119f573d6000803e3d6000fd5b505050506040513d601f19601f820116820180604052508101906111c39190614c19565b5060a08601516001600160a01b039081166000908152600660205260409081902054905163d8aed14560e01b8152600481018b90526024810188905291169063d8aed14590604401600060405180830381600087803b15801561122557600080fd5b505af1158015611239573d6000803e3d6000fd5b50505050600080600460009054906101000a90046001600160a01b03166001600160a01b0316633c0c45666040518163ffffffff1660e01b81526004016040805180830381865afa158015611292573d6000803e3d6000fd5b505050506040513d601f19601f820116820180604052508101906112b69190614c36565b60a08a01516040516323b872dd60e01b81526001600160a01b038d8116600483015280841660248301526044820189905293955091935091909116906323b872dd906064016020604051808303816000875af115801561131a573d6000803e3d6000fd5b505050506040513d601f19601f8201168201806040525081019061133e9190614c19565b5060a08801516040516323b872dd60e01b81526001600160a01b038b81166004830152848116602483015260448201869052909116906323b872dd906064016020604051808303816000875af115801561139c573d6000803e3d6000fd5b505050506040513d601f19601f820116820180604052508101906113c09190614c19565b5060a08801516001600160a01b03908116600081815260066020526040902054909163095ea7b391166113f3888a614c06565b6040517fffffffff0000000000000000000000000000000000000000000000000000000060e085901b1681526001600160a01b03909216600483015260248201526044016020604051808303816000875af1158015611456573d6000803e3d6000fd5b505050506040513d601f19601f8201168201806040525081019061147a9190614c19565b5060a08801516001600160a01b03908116600090815260066020526040908190205490517f7f394031000000000000000000000000000000000000000000000000000000008152600481018d905260248101899052911690637f39403190604401600060405180830381600087803b1580156114f557600080fd5b505af1158015611509573d6000803e3d6000fd5b5050505060008511156115895760a08801516001600160a01b03908116600090815260066020526040908190205490516326de36ff60e21b815260048101889052911690639b78dbfc90602401600060405180830381600087803b15801561157057600080fd5b505af1158015611584573d6000803e3d6000fd5b505050505b87606001516001600160a01b0316336001600160a01b03167f6f851c52fae6f0f8f229cc3193f6fd098b5c4b093280472784eaaeaad7d4f2268a8c6001600160a01b031663315deeaa6040518163ffffffff1660e01b8152600401602060405180830381865afa158015611601573d6000803e3d6000fd5b505050506040513d601f19601f820116820180604052508101906116259190614a18565b8d6001600160a01b031663964236636040518163ffffffff1660e01b8152600401602060405180830381865afa158015611663573d6000803e3d6000fd5b505050506040513d601f19601f820116820180604052508101906116879190614c65565b60405161169693929190614d12565b60405180910390a350505050505050505050565b600280546040805180820190915291825261323160f01b6020830152600160a01b900460ff16156116ee5760405162461bcd60e51b81526004016106199190614910565b50600082815260076020526040808220548151635d3e2fa160e01b815291516001600160a01b0390911692918391635d3e2fa191600480820192610120929091908290030181865afa158015611748573d6000803e3d6000fd5b505050506040513d601f19601f8201168201806040525081019061176c9190614975565b905080606001516001600160a01b0316336001600160a01b0316146040518060400160405280600281526020017f3232000000000000000000000000000000000000000000000000000000000000815250906117db5760405162461bcd60e51b81526004016106199190614910565b5060608101516040516308165c1760e11b81526001600160a01b03918216600482015284151560248201529083169063102cb82e90604401600060405180830381600087803b15801561182d57600080fd5b505af1158015611841573d6000803e3d6000fd5b50505050336001600160a01b03167f67778843092c92d2f53106e57be7c25564eca5eb75e2c2acfa42846b6abdd92382846001600160a01b031663315deeaa6040518163ffffffff1660e01b8152600401602060405180830381865afa1580156118af573d6000803e3d6000fd5b505050506040513d601f19601f820116820180604052508101906118d39190614a18565b856001600160a01b031663964236636040518163ffffffff1660e01b8152600401602060405180830381865afa158015611911573d6000803e3d6000fd5b505050506040513d601f19601f820116820180604052508101906119359190614c65565b876040516119469493929190614d40565b60405180910390a250505050565b6001600160a01b0381166000908152600360209081526040918290208054835181840281018401909452808452606093928301828280156119b457602002820191906000526020600020905b8154815260200190600101908083116119a0575b50505050509050919050565b60048054604051632e7d32b360e21b81526001600160a01b038085169382019390935283929091169063b9f4cacc90602401602060405180830381865afa158015611a0f573d6000803e3d6000fd5b505050506040513d601f19601f82011682018060405250810190611a339190614c19565b604080518082019091526001808252603360f81b60208301529091151514611a6e5760405162461bcd60e51b81526004016106199190614910565b50600280546040805180820190915291825261323160f01b6020830152600160a01b900460ff1615611ab35760405162461bcd60e51b81526004016106199190614910565b506001600160a01b038281166000908152600660205260409081902054905163a52f38d160e01b8152600481018790528592919091169063a52f38d190602401602060405180830381865afa158015611b10573d6000803e3d6000fd5b505050506040513d601f19601f82011682018060405250810190611b349190614a18565b841115611bba576001600160a01b038381166000908152600660205260409081902054905163a52f38d160e01b81526004810188905291169063a52f38d190602401602060405180830381865afa158015611b93573d6000803e3d6000fd5b505050506040513d601f19601f82011682018060405250810190611bb79190614a18565b90505b600085815260076020526040808220548151635d3e2fa160e01b815291516001600160a01b0390911692918391635d3e2fa191600480820192610120929091908290030181865afa158015611c13573d6000803e3d6000fd5b505050506040513d601f19601f82011682018060405250810190611c379190614975565b6040516323b872dd60e01b8152336004820152306024820152604481018590529091506001600160a01b038616906323b872dd906064016020604051808303816000875af1158015611c8d573d6000803e3d6000fd5b505050506040513d601f19601f82011682018060405250810190611cb19190614c19565b506001600160a01b038581166000818152600660205260409081902054905163095ea7b360e01b815292166004830152602482018590529063095ea7b3906044016020604051808303816000875af1158015611d11573d6000803e3d6000fd5b505050506040513d601f19601f82011682018060405250810190611d359190614c19565b506001600160a01b038581166000908152600660205260409081902054905163d8aed14560e01b8152600481018a90526024810186905291169063d8aed14590604401600060405180830381600087803b158015611d9257600080fd5b505af1158015611da6573d6000803e3d6000fd5b505050506001600160a01b0385811660009081526006602052604080822054905163a52f38d160e01b8152600481018b90529192169063a52f38d190602401602060405180830381865afa158015611e02573d6000803e3d6000fd5b505050506040513d601f19601f82011682018060405250810190611e269190614a18565b9050806000036120f7576000888152600760205260408082205481517f232fa733000000000000000000000000000000000000000000000000000000008152825184936001600160a01b039093169263232fa7339260048082019391829003018187875af1158015611e9c573d6000803e3d6000fd5b505050506040513d601f19601f82011682018060405250810190611ec09190614a31565b90925090508115611fd35760008a8152600760209081526040808320546001600160a01b038c81168086526006909452938290205491516323b872dd60e01b815290841660048201529216602483015260448201849052906323b872dd906064016020604051808303816000875af1158015611f40573d6000803e3d6000fd5b505050506040513d601f19601f82011682018060405250810190611f649190614c19565b506001600160a01b03888116600090815260066020526040908190205490516326de36ff60e21b815260048101859052911690639b78dbfc90602401600060405180830381600087803b158015611fba57600080fd5b505af1158015611fce573d6000803e3d6000fd5b505050505b60048054604080517f3c0c4566000000000000000000000000000000000000000000000000000000008152815160009485946001600160a01b031693633c0c456693808301939192908290030181865afa158015612035573d6000803e3d6000fd5b505050506040513d601f19601f820116820180604052508101906120599190614c36565b909250905082156120f25760008c815260076020526040908190205490516323b872dd60e01b81526001600160a01b039182166004820152828216602482015260448101859052908b16906323b872dd906064016020604051808303816000875af11580156120cc573d6000803e3d6000fd5b505050506040513d601f19601f820116820180604052508101906120f09190614c19565b505b505050505b336001600160a01b03167fa9864e01b27de7bb079f82f0ee5445c4e9a0a7ac39140f41525a696f2b2458e783898460405161213493929190614d78565b60405180910390a25050505050505050565b3360009081526020818152604091829020548251808401909352600283527f31380000000000000000000000000000000000000000000000000000000000009183019190915260ff1615156001146121b15760405162461bcd60e51b81526004016106199190614910565b5060005b8151811015612232578181815181106121d0576121d0614bba565b6020026020010151600660008584815181106121ee576121ee614bba565b6020908102919091018101516001600160a01b0390811683529082019290925260400160002080546001600160a01b031916929091169190911790556001016121b5565b505050565b600480546040516359dfff5560e11b81526001600160a01b0387811693820193909352600160248201526000928392169063b3bffeaa90604401602060405180830381865afa15801561228e573d6000803e3d6000fd5b505050506040513d601f19601f820116820180604052508101906122b29190614a18565b600480546040516359dfff5560e11b81526001600160a01b038881169382019390935260006024820181905293945091169063b3bffeaa90604401602060405180830381865afa15801561230a573d6000803e3d6000fd5b505050506040513d601f19601f8201168201806040525081019061232e9190614a18565b9050600080600460009054906101000a90046001600160a01b03166001600160a01b031663e75235b86040518163ffffffff1660e01b81526004016040805180830381865afa158015612385573d6000803e3d6000fd5b505050506040513d601f19601f820116820180604052508101906123a99190614a31565b915091506000876001600160a01b031663313ce5676040518163ffffffff1660e01b8152600401602060405180830381865afa1580156123ed573d6000803e3d6000fd5b505050506040513d601f19601f820116820180604052508101906124119190614a55565b61241c90600a614b72565b6127108361242a878b614b81565b6124349190614b81565b61243e9190614b98565b6124489190614b98565b905060008a6001600160a01b031663313ce5676040518163ffffffff1660e01b8152600401602060405180830381865afa15801561248a573d6000803e3d6000fd5b505050506040513d601f19601f820116820180604052508101906124ae9190614a55565b6124b990600a614b72565b6124c3878c614b81565b6124cd9190614b98565b90506000816124dd846064614b81565b6124e79190614b98565b9c9b505050505050505050505050565b60048054604051632e7d32b360e21b81526001600160a01b038089169382019390935287929091169063b9f4cacc90602401602060405180830381865afa158015612546573d6000803e3d6000fd5b505050506040513d601f19601f8201168201806040525081019061256a9190614c19565b604080518082019091526001808252603360f81b602083015290911515146125a55760405162461bcd60e51b81526004016106199190614910565b5060048054604051632e7d32b360e21b81526001600160a01b038088169382019390935286929091169063b9f4cacc90602401602060405180830381865afa1580156125f5573d6000803e3d6000fd5b505050506040513d601f19601f820116820180604052508101906126199190614c19565b604080518082019091526001808252600d60fa1b602083015290911515146126545760405162461bcd60e51b81526004016106199190614910565b50600280546040805180820190915291825261323160f01b6020830152600160a01b900460ff16156126995760405162461bcd60e51b81526004016106199190614910565b506004805460408051631cea46b760e31b8152815160009485946001600160a01b03169363e75235b893808301939192908290030181865afa1580156126e3573d6000803e3d6000fd5b505050506040513d601f19601f820116820180604052508101906127079190614a31565b91509150886001600160a01b031663313ce5676040518163ffffffff1660e01b8152600401602060405180830381865afa158015612749573d6000803e3d6000fd5b505050506040513d601f19601f8201168201806040525081019061276d9190614a55565b61277890600a614b72565b600480546040516359dfff5560e11b81526001600160a01b038d8116938201939093526001602482015291169063b3bffeaa90604401602060405180830381865afa1580156127cb573d6000803e3d6000fd5b505050506040513d601f19601f820116820180604052508101906127ef9190614a18565b6127f9908c614b81565b61280590612710614b81565b61280f9190614b98565b876001600160a01b031663313ce5676040518163ffffffff1660e01b8152600401602060405180830381865afa15801561284d573d6000803e3d6000fd5b505050506040513d601f19601f820116820180604052508101906128719190614a55565b61287c90600a614b72565b600480546040516359dfff5560e11b81526001600160a01b038c8116938201939093526000602482015286929091169063b3bffeaa90604401602060405180830381865afa1580156128d2573d6000803e3d6000fd5b505050506040513d601f19601f820116820180604052508101906128f69190614a18565b612900908c614b81565b61290a9190614b81565b6129149190614b98565b1015604051806040016040528060018152602001603760f81b8152509061294e5760405162461bcd60e51b81526004016106199190614910565b5061295f8a8a8a8a8a8a6000613a10565b50505050505050505050565b6002546040805180820190915260018152601960f91b6020820152906001600160a01b031633146129af5760405162461bcd60e51b81526004016106199190614910565b50600082815260076020526040908190205490516308165c1760e11b815233600482015282151560248201526001600160a01b0390911690819063102cb82e90604401600060405180830381600087803b158015612a0c57600080fd5b505af1158015612a20573d6000803e3d6000fd5b50505050505050565b60048054604051632e7d32b360e21b81526001600160a01b038088169382019390935286929091169063b9f4cacc90602401602060405180830381865afa158015612a78573d6000803e3d6000fd5b505050506040513d601f19601f82011682018060405250810190612a9c9190614c19565b604080518082019091526001808252603360f81b60208301529091151514612ad75760405162461bcd60e51b81526004016106199190614910565b506004805460408051634c2a6d8160e11b815290516001600160a01b0390921692639854db029282820192602092908290030181865afa158015612b1f573d6000803e3d6000fd5b505050506040513d601f19601f82011682018060405250810190612b439190614c19565b604080518082019091526002815261032360f41b6020820152901515600114612b7f5760405162461bcd60e51b81526004016106199190614910565b50600280546040805180820190915291825261323160f01b6020830152600160a01b900460ff1615612bc45760405162461bcd60e51b81526004016106199190614910565b506040805180820190915260018152601b60f91b602082015234851115612bfe5760405162461bcd60e51b81526004016106199190614910565b506000600460009054906101000a90046001600160a01b03166001600160a01b031663cae5f11e6040518163ffffffff1660e01b8152600401602060405180830381865afa158015612c54573d6000803e3d6000fd5b505050506040513d601f19601f82011682018060405250810190612c789190614c65565b9050806001600160a01b031663d0e30db0866040518263ffffffff1660e01b81526004016000604051808303818588803b158015612cb557600080fd5b505af1158015612cc9573d6000803e3d6000fd5b50506004805460408051631cea46b760e31b81528151600097508796506001600160a01b03909316945063e75235b89381810193918290030181865afa158015612d17573d6000803e3d6000fd5b505050506040513d601f19601f82011682018060405250810190612d3b9190614a31565b91509150876001600160a01b031663313ce5676040518163ffffffff1660e01b8152600401602060405180830381865afa158015612d7d573d6000803e3d6000fd5b505050506040513d601f19601f82011682018060405250810190612da19190614a55565b612dac90600a614b72565b600480546040516359dfff5560e11b81526001600160a01b038c8116938201939093526001602482015291169063b3bffeaa90604401602060405180830381865afa158015612dff573d6000803e3d6000fd5b505050506040513d601f19601f82011682018060405250810190612e239190614a18565b612e2d908b614b81565b612e3990612710614b81565b612e439190614b98565b836001600160a01b031663313ce5676040518163ffffffff1660e01b8152600401602060405180830381865afa158015612e81573d6000803e3d6000fd5b505050506040513d601f19601f82011682018060405250810190612ea59190614a55565b612eb090600a614b72565b600480546040516359dfff5560e11b81526001600160a01b03888116938201939093526000602482015286929091169063b3bffeaa90604401602060405180830381865afa158015612f06573d6000803e3d6000fd5b505050506040513d601f19601f82011682018060405250810190612f2a9190614a18565b612f34908b614b81565b612f3e9190614b81565b612f489190614b98565b1015604051806040016040528060018152602001603760f81b81525090612f825760405162461bcd60e51b81526004016106199190614910565b50610eab898989868a8a6001613a10565b6004805460408051634c2a6d8160e11b815290516001600160a01b0390921692639854db029282820192602092908290030181865afa158015612fda573d6000803e3d6000fd5b505050506040513d601f19601f82011682018060405250810190612ffe9190614c19565b604080518082019091526002815261032360f41b602082015290151560011461303a5760405162461bcd60e51b81526004016106199190614910565b50600280546040805180820190915291825261323160f01b6020830152600160a01b900460ff161561307f5760405162461bcd60e51b81526004016106199190614910565b506040805180820190915260018152601b60f91b6020820152348211156130b95760405162461bcd60e51b81526004016106199190614910565b506000600460009054906101000a90046001600160a01b03166001600160a01b031663cae5f11e6040518163ffffffff1660e01b8152600401602060405180830381865afa15801561310f573d6000803e3d6000fd5b505050506040513d601f19601f820116820180604052508101906131339190614c65565b9050806001600160a01b031663d0e30db0836040518263ffffffff1660e01b81526004016000604051808303818588803b15801561317057600080fd5b505af1158015613184573d6000803e3d6000fd5b505050600085815260076020526040808220548151635d3e2fa160e01b815291516001600160a01b0390911694509192508391635d3e2fa191600480820192610120929091908290030181865afa1580156131e3573d6000803e3d6000fd5b505050506040513d601f19601f820116820180604052508101906132079190614975565b60405163095ea7b360e01b81526001600160a01b038481166004830152602482018790529192509084169063095ea7b3906044016020604051808303816000875af115801561325a573d6000803e3d6000fd5b505050506040513d601f19601f8201168201806040525081019061327e9190614c19565b50604051633390ef1360e11b8152600481018590526001600160a01b03831690636721de2690602401600060405180830381600087803b1580156132c157600080fd5b505af11580156132d5573d6000803e3d6000fd5b50505050816001600160a01b0316631c783def6040518163ffffffff1660e01b8152600401602060405180830381865afa158015613317573d6000803e3d6000fd5b505050506040513d601f19601f8201168201806040525081019061333b9190614c19565b151560010361339857816001600160a01b03166307a6bf696040518163ffffffff1660e01b8152600401600060405180830381600087803b15801561337f57600080fd5b505af1158015613393573d6000803e3d6000fd5b505050505b336001600160a01b03167fa8afae2cdff9d4c50d5a50050c37acfd66b35605ce674636323e26167967309d82868660016040516133d89493929190614d40565b60405180910390a25050505050565b6003602052816000526040600020818154811061340357600080fd5b90600052602060002001600091509150505481565b600082815260076020526040808220548151635d3e2fa160e01b815291516001600160a01b039091169183918391635d3e2fa1916004808301926101209291908290030181865afa158015613471573d6000803e3d6000fd5b505050506040513d601f19601f820116820180604052508101906134959190614975565b60a08101516001600160a01b0390811660009081526006602052604080822054905163a52f38d160e01b8152600481018a9052939450909291169063a52f38d190602401602060405180830381865afa1580156134f6573d6000803e3d6000fd5b505050506040513d601f19601f8201168201806040525081019061351a9190614a18565b9050808510613531576201869f9350505050610b27565b6001600160a01b038316634d2c872a61354a8784614d9a565b6040517fffffffff0000000000000000000000000000000000000000000000000000000060e084901b168152600481019190915260006024820152604401610c62565b60048054604051632e7d32b360e21b81526001600160a01b038085169382019390935283929091169063b9f4cacc90602401602060405180830381865afa1580156135dc573d6000803e3d6000fd5b505050506040513d601f19601f820116820180604052508101906136009190614c19565b604080518082019091526001808252600d60fa1b6020830152909115151461363b5760405162461bcd60e51b81526004016106199190614910565b50600280546040805180820190915291825261323160f01b6020830152600160a01b900460ff16156136805760405162461bcd60e51b81526004016106199190614910565b50600084815260076020526040808220548151635d3e2fa160e01b815291516001600160a01b0390911692918391635d3e2fa191600480820192610120929091908290030181865afa1580156136da573d6000803e3d6000fd5b505050506040513d601f19601f820116820180604052508101906136fe9190614975565b6040516323b872dd60e01b8152336004820152306024820152604481018790529091506001600160a01b038516906323b872dd906064016020604051808303816000875af1158015613754573d6000803e3d6000fd5b505050506040513d601f19601f820116820180604052508101906137789190614c19565b5060405163095ea7b360e01b81526001600160a01b0383811660048301526024820187905285169063095ea7b3906044016020604051808303816000875af11580156137c8573d6000803e3d6000fd5b505050506040513d601f19601f820116820180604052508101906137ec9190614c19565b50604051633390ef1360e11b8152600481018690526001600160a01b03831690636721de2690602401600060405180830381600087803b15801561382f57600080fd5b505af1158015613843573d6000803e3d6000fd5b50505050816001600160a01b0316631c783def6040518163ffffffff1660e01b8152600401602060405180830381865afa158015613885573d6000803e3d6000fd5b505050506040513d601f19601f820116820180604052508101906138a99190614c19565b151560010361390657816001600160a01b03166307a6bf696040518163ffffffff1660e01b8152600401600060405180830381600087803b1580156138ed57600080fd5b505af1158015613901573d6000803e3d6000fd5b505050505b336001600160a01b03167fa8afae2cdff9d4c50d5a50050c37acfd66b35605ce674636323e26167967309d82878760006040516139469493929190614d40565b60405180910390a2505050505050565b6002546040805180820190915260018152601960f91b6020820152906001600160a01b0316331461399a5760405162461bcd60e51b81526004016106199190614910565b5060005b8251811015612232578181815181106139b9576139b9614bba565b60200260200101516000808584815181106139d6576139d6614bba565b6020908102919091018101516001600160a01b03168252810191909152604001600020805460ff191691151591909117905560010161399e565b6001600160a01b038087166000908152600660209081526040918290205482517f3b24cc2100000000000000000000000000000000000000000000000000000000815292518b949190911692633b24cc219260048083019391928290030181865afa158015613a83573d6000803e3d6000fd5b505050506040513d601f19601f82011682018060405250810190613aa79190614a18565b10156040518060400160405280600181526020017f380000000000000000000000000000000000000000000000000000000000000081525090613afd5760405162461bcd60e51b81526004016106199190614910565b50604080516101208101825260009181018290526080810182905260c0810182905261010081018290523360608201526020810189905260015481526001600160a01b0388811660a083015284151560e0830152600554919287929091613b64911661425b565b6004805460408051631cea46b760e31b81528151949550859460009485946001600160a01b03169363e75235b893808301939192908290030181865afa158015613bb2573d6000803e3d6000fd5b505050506040513d601f19601f82011682018060405250810190613bd69190614a31565b600480546040517f5de710f30000000000000000000000000000000000000000000000000000000081529395509193506001600160a01b0380871693635de710f393613c29938c938c9392169101614dad565b600060405180830381600087803b158015613c4357600080fd5b505af1158015613c57573d6000803e3d6000fd5b50506040517f94990c2f0000000000000000000000000000000000000000000000000000000081523060048201526001600160a01b03861694506394990c2f93506024019150613ca49050565b600060405180830381600087803b158015613cbe57600080fd5b505af1158015613cd2573d6000803e3d6000fd5b5050600480546040517f365bef000000000000000000000000000000000000000000000000000000000081526001600160a01b03888116938201939093528e83166024820152600094509116915063365bef0090604401602060405180830381865afa158015613d46573d6000803e3d6000fd5b505050506040513d601f19601f82011682018060405250810190613d6a9190614ddf565b6040517f805a288f00000000000000000000000000000000000000000000000000000000815262ffffff821660048201529091506001600160a01b0383169063805a288f90602401600060405180830381600087803b158015613dcc57600080fd5b505af1158015613de0573d6000803e3d6000fd5b505050508515156000039050613f3b576040516323b872dd60e01b8152336004820152306024820152604481018a90526001600160a01b038916906323b872dd906064016020604051808303816000875af1158015613e43573d6000803e3d6000fd5b505050506040513d601f19601f82011682018060405250810190613e679190614c19565b5060405163095ea7b360e01b81526001600160a01b038381166004830152602482018b905289169063095ea7b3906044016020604051808303816000875af1158015613eb7573d6000803e3d6000fd5b505050506040513d601f19601f82011682018060405250810190613edb9190614c19565b50604051633390ef1360e11b8152600481018a90526001600160a01b03821690636721de2690602401600060405180830381600087803b158015613f1e57600080fd5b505af1158015613f32573d6000803e3d6000fd5b50505050614088565b6000600460009054906101000a90046001600160a01b03166001600160a01b031663cae5f11e6040518163ffffffff1660e01b8152600401602060405180830381865afa158015613f90573d6000803e3d6000fd5b505050506040513d601f19601f82011682018060405250810190613fb49190614c65565b60405163095ea7b360e01b81526001600160a01b038581166004830152602482018d90529192509082169063095ea7b3906044016020604051808303816000875af1158015614007573d6000803e3d6000fd5b505050506040513d601f19601f8201168201806040525081019061402b9190614c19565b50604051633390ef1360e11b8152600481018b90526001600160a01b03831690636721de2690602401600060405180830381600087803b15801561406e57600080fd5b505af1158015614082573d6000803e3d6000fd5b50505050505b8615156001036140e657806001600160a01b03166307a6bf696040518163ffffffff1660e01b8152600401600060405180830381600087803b1580156140cd57600080fd5b505af11580156140e1573d6000803e3d6000fd5b505050505b60018054600090815260076020908152604080832080546001600160a01b0319166001600160a01b038781169190911790915533845260038352818420855481549687018255908552838520909501949094558d84168352600682529182902054875191880151606089015160e08a015194517f3870862b00000000000000000000000000000000000000000000000000000000815260048101949094526024840191909152841660448301529115156064820152911690633870862b90608401600060405180830381600087803b1580156141c157600080fd5b505af11580156141d5573d6000803e3d6000fd5b5050600154600090815260076020526040908190205490513393507f16d0c378cad0022a514411d1d288358413a1d1e7b79fb98c11509ac3912459e59250614231916001600160a01b03169088908e908e908e908d1590614e04565b60405180910390a26001805490600061424983614e52565b91905055505050505050505050505050565b6000763d602d80600a3d3981f3363d3d373d3d3d363d730000008260601b60e81c176000526e5af43d82803e903d91602b57fd5bf38260781b17602052603760096000f090506001600160a01b0381166142e1576040517fc2f868f400000000000000000000000000000000000000000000000000000000815260040160405180910390fd5b919050565b6001600160a01b03811681146142fb57600080fd5b50565b60006020828403121561431057600080fd5b813561431b816142e6565b9392505050565b80151581146142fb57600080fd5b60006020828403121561434257600080fd5b813561431b81614322565b60006020828403121561435f57600080fd5b5035919050565b60008060006060848603121561437b57600080fd5b83359250602084013561438d816142e6565b9150604084013561439d816142e6565b809150509250925092565b634e487b7160e01b600052604160045260246000fd5b604051610120810167ffffffffffffffff811182821017156143e2576143e26143a8565b60405290565b604051601f8201601f1916810167ffffffffffffffff81118282101715614411576144116143a8565b604052919050565b600067ffffffffffffffff821115614433576144336143a8565b5060051b60200190565b600082601f83011261444e57600080fd5b8135602061446361445e83614419565b6143e8565b8083825260208201915060208460051b87010193508684111561448557600080fd5b602086015b848110156144aa57803561449d816142e6565b835291830191830161448a565b509695505050505050565b600080604083850312156144c857600080fd5b823567ffffffffffffffff8111156144df57600080fd5b6144eb8582860161443d565b92505060208301356144fc816142e6565b809150509250929050565b6000806040838503121561451a57600080fd5b50508035926020909101359150565b6000806000806080858703121561453f57600080fd5b843567ffffffffffffffff8082111561455757600080fd5b6145638883890161443d565b9550602087013591508082111561457957600080fd5b506145868782880161443d565b9350506040850135614597816142e6565b915060608501356145a7816142e6565b939692955090935050565b600080604083850312156145c557600080fd5b8235915060208301356144fc81614322565b6020808252825182820181905260009190848201906040850190845b8181101561460f578351835292840192918401916001016145f3565b50909695505050505050565b60008060006060848603121561463057600080fd5b8335925060208401359150604084013561439d816142e6565b6000806040838503121561465c57600080fd5b823567ffffffffffffffff8082111561467457600080fd5b6146808683870161443d565b9350602085013591508082111561469657600080fd5b506146a38582860161443d565b9150509250929050565b600080600080608085870312156146c357600080fd5b84356146ce816142e6565b93506020850135925060408501356146e5816142e6565b9396929550929360600135925050565b60008060008060008060c0878903121561470e57600080fd5b863595506020870135614720816142e6565b9450604087013593506060870135614737816142e6565b9250608087013561474781614322565b915060a087013561475781614322565b809150509295509295509295565b600080600080600060a0868803121561477d57600080fd5b85359450602086013561478f816142e6565b93506040860135925060608601356147a681614322565b915060808601356147b681614322565b809150509295509295909350565b600080604083850312156147d757600080fd5b82356147e2816142e6565b946020939093013593505050565b600082601f83011261480157600080fd5b8135602061481161445e83614419565b8083825260208201915060208460051b87010193508684111561483357600080fd5b602086015b848110156144aa57803561484b81614322565b8352918301918301614838565b6000806040838503121561486b57600080fd5b823567ffffffffffffffff8082111561488357600080fd5b818501915085601f83011261489757600080fd5b813560206148a761445e83614419565b82815260059290921b840181019181810190898411156148c657600080fd5b948201945b838610156148ed5785356148de816142e6565b825294820194908201906148cb565b9650508601359250508082111561490357600080fd5b506146a3858286016147f0565b60006020808352835180602085015260005b8181101561493e57858101830151858201604001528201614922565b506000604082860101526040601f19601f8301168501019250505092915050565b80516142e181614322565b80516142e1816142e6565b6000610120828403121561498857600080fd5b6149906143be565b82518152602083015160208201526149aa6040840161495f565b60408201526149bb6060840161496a565b60608201526149cc6080840161495f565b60808201526149dd60a0840161496a565b60a08201526149ee60c0840161495f565b60c08201526149ff60e0840161495f565b60e0820152610100928301519281019290925250919050565b600060208284031215614a2a57600080fd5b5051919050565b60008060408385031215614a4457600080fd5b505080516020909101519092909150565b600060208284031215614a6757600080fd5b815160ff8116811461431b57600080fd5b634e487b7160e01b600052601160045260246000fd5b600181815b80851115614ac9578160001904821115614aaf57614aaf614a78565b80851615614abc57918102915b93841c9390800290614a93565b509250929050565b600082614ae057506001610b27565b81614aed57506000610b27565b8160018114614b035760028114614b0d57614b29565b6001915050610b27565b60ff841115614b1e57614b1e614a78565b50506001821b610b27565b5060208310610133831016604e8410600b8410161715614b4c575081810a610b27565b614b568383614a8e565b8060001904821115614b6a57614b6a614a78565b029392505050565b600061431b60ff841683614ad1565b8082028115828204841417610b2757610b27614a78565b600082614bb557634e487b7160e01b600052601260045260246000fd5b500490565b634e487b7160e01b600052603260045260246000fd5b60008060008060808587031215614be657600080fd5b505082516020840151604085015160609095015191969095509092509050565b80820180821115610b2757610b27614a78565b600060208284031215614c2b57600080fd5b815161431b81614322565b60008060408385031215614c4957600080fd5b8251614c54816142e6565b60208401519092506144fc816142e6565b600060208284031215614c7757600080fd5b815161431b816142e6565b80518252602081015160208301526040810151151560408301526001600160a01b0360608201511660608301526080810151614cc2608084018215159052565b5060a0810151614cdd60a08401826001600160a01b03169052565b5060c0810151614cf160c084018215159052565b5060e0810151614d0560e084018215159052565b5061010090810151910152565b6101608101614d218286614c82565b836101208301526001600160a01b038316610140830152949350505050565b6101808101614d4f8287614c82565b846101208301526001600160a01b03841661014083015282151561016083015295945050505050565b6101608101614d878286614c82565b6101208201939093526101400152919050565b81810381811115610b2757610b27614a78565b6101608101614dbc8286614c82565b6001600160a01b0380851661012084015280841661014084015250949350505050565b600060208284031215614df157600080fd5b815162ffffff8116811461431b57600080fd5b6001600160a01b0387811682526101c0820190614e246020840189614c82565b86610140840152808616610160840152508315156101808301528215156101a0830152979650505050505050565b600060018201614e6457614e64614a78565b506001019056fea26469706673582212201ca09a71c11be289437f5f005f6d16878ede5a189d9e3ffd2f7917c72befffab64736f6c63430008180033",
  "linkReferences": {},
  "deployedLinkReferences": {}
}