{
  "_format": "hh-sol-artifact-1",
  "contractName": "FSFI",
  "sourceName": "contracts/FSFI.sol",
  "abi": [
    {
      "inputs": [],
      "name": "ERC1167FailedCreateClone",
      "type": "error"
    },
    {
      "inputs": [],
      "name": "InvalidInitialization",
      "type": "error"
    },
    {
      "inputs": [],
      "name": "NotInitializing",
      "type": "error"
    },
    {
      "anonymous": false,
      "inputs": [
        {
          "indexed": true,
          "internalType": "address",
          "name": "borrower",
          "type": "address"
        },
        {
          "components": [
            {
              "internalType": "uint256",
              "name": "loanId",
              "type": "uint256"
            },
            {
              "internalType": "uint256",
              "name": "amount",
              "type": "uint256"
            },
            {
              "internalType": "bool",
              "name": "isClosed",
              "type": "bool"
            },
            {
              "internalType": "address",
              "name": "borrower",
              "type": "address"
            },
            {
              "internalType": "bool",
              "name": "isLiquidated",
              "type": "bool"
            },
            {
              "internalType": "contract IERC20Standard",
              "name": "stableCoin",
              "type": "address"
            },
            {
              "internalType": "bool",
              "name": "isFinalty",
              "type": "bool"
            },
            {
              "internalType": "bool",
              "name": "isFiat",
              "type": "bool"
            },
            {
              "internalType": "bytes12",
              "name": "encryptusId",
              "type": "bytes12"
            },
            {
              "internalType": "uint256",
              "name": "closedAmount",
              "type": "uint256"
            }
          ],
          "indexed": false,
          "internalType": "struct DataTypes.Loan",
          "name": "loanInfo",
          "type": "tuple"
        },
        {
          "indexed": false,
          "internalType": "uint256",
          "name": "collateralAmount",
          "type": "uint256"
        },
        {
          "indexed": false,
          "internalType": "contract IERC20Standard",
          "name": "collateral",
          "type": "address"
        },
        {
          "indexed": false,
          "internalType": "bool",
          "name": "isETH",
          "type": "bool"
        }
      ],
      "name": "AddCollateral",
      "type": "event"
    },
    {
      "anonymous": false,
      "inputs": [
        {
          "indexed": true,
          "internalType": "address",
          "name": "borrower",
          "type": "address"
        },
        {
          "indexed": false,
          "internalType": "bytes12",
          "name": "encryptusId",
          "type": "bytes12"
        },
        {
          "indexed": false,
          "internalType": "uint256",
          "name": "amount",
          "type": "uint256"
        },
        {
          "indexed": false,
          "internalType": "contract IERC20Standard",
          "name": "stableCoin",
          "type": "address"
        }
      ],
      "name": "CreateFiatLoan",
      "type": "event"
    },
    {
      "anonymous": false,
      "inputs": [
        {
          "indexed": true,
          "internalType": "address",
          "name": "borrower",
          "type": "address"
        },
        {
          "indexed": false,
          "internalType": "address",
          "name": "loanAddress",
          "type": "address"
        },
        {
          "components": [
            {
              "internalType": "uint256",
              "name": "loanId",
              "type": "uint256"
            },
            {
              "internalType": "uint256",
              "name": "amount",
              "type": "uint256"
            },
            {
              "internalType": "bool",
              "name": "isClosed",
              "type": "bool"
            },
            {
              "internalType": "address",
              "name": "borrower",
              "type": "address"
            },
            {
              "internalType": "bool",
              "name": "isLiquidated",
              "type": "bool"
            },
            {
              "internalType": "contract IERC20Standard",
              "name": "stableCoin",
              "type": "address"
            },
            {
              "internalType": "bool",
              "name": "isFinalty",
              "type": "bool"
            },
            {
              "internalType": "bool",
              "name": "isFiat",
              "type": "bool"
            },
            {
              "internalType": "bytes12",
              "name": "encryptusId",
              "type": "bytes12"
            },
            {
              "internalType": "uint256",
              "name": "closedAmount",
              "type": "uint256"
            }
          ],
          "indexed": false,
          "internalType": "struct DataTypes.Loan",
          "name": "loanInfo",
          "type": "tuple"
        },
        {
          "indexed": false,
          "internalType": "uint256",
          "name": "collateralAmount",
          "type": "uint256"
        },
        {
          "indexed": false,
          "internalType": "contract IERC20Standard",
          "name": "collateral",
          "type": "address"
        },
        {
          "indexed": false,
          "internalType": "bool",
          "name": "isYieldGenerating",
          "type": "bool"
        },
        {
          "indexed": false,
          "internalType": "bool",
          "name": "isETH",
          "type": "bool"
        }
      ],
      "name": "CreateLoan",
      "type": "event"
    },
    {
      "anonymous": false,
      "inputs": [
        {
          "indexed": false,
          "internalType": "uint64",
          "name": "version",
          "type": "uint64"
        }
      ],
      "name": "Initialized",
      "type": "event"
    },
    {
      "anonymous": false,
      "inputs": [
        {
          "indexed": true,
          "internalType": "address",
          "name": "liquidator",
          "type": "address"
        },
        {
          "indexed": true,
          "internalType": "address",
          "name": "borrower",
          "type": "address"
        },
        {
          "components": [
            {
              "internalType": "uint256",
              "name": "loanId",
              "type": "uint256"
            },
            {
              "internalType": "uint256",
              "name": "amount",
              "type": "uint256"
            },
            {
              "internalType": "bool",
              "name": "isClosed",
              "type": "bool"
            },
            {
              "internalType": "address",
              "name": "borrower",
              "type": "address"
            },
            {
              "internalType": "bool",
              "name": "isLiquidated",
              "type": "bool"
            },
            {
              "internalType": "contract IERC20Standard",
              "name": "stableCoin",
              "type": "address"
            },
            {
              "internalType": "bool",
              "name": "isFinalty",
              "type": "bool"
            },
            {
              "internalType": "bool",
              "name": "isFiat",
              "type": "bool"
            },
            {
              "internalType": "bytes12",
              "name": "encryptusId",
              "type": "bytes12"
            },
            {
              "internalType": "uint256",
              "name": "closedAmount",
              "type": "uint256"
            }
          ],
          "indexed": false,
          "internalType": "struct DataTypes.Loan",
          "name": "loanInfo",
          "type": "tuple"
        },
        {
          "indexed": false,
          "internalType": "uint256",
          "name": "collateralAmount",
          "type": "uint256"
        },
        {
          "indexed": false,
          "internalType": "contract IERC20Standard",
          "name": "collateral",
          "type": "address"
        }
      ],
      "name": "Liquidate",
      "type": "event"
    },
    {
      "anonymous": false,
      "inputs": [
        {
          "indexed": true,
          "internalType": "address",
          "name": "borrower",
          "type": "address"
        },
        {
          "components": [
            {
              "internalType": "uint256",
              "name": "loanId",
              "type": "uint256"
            },
            {
              "internalType": "uint256",
              "name": "amount",
              "type": "uint256"
            },
            {
              "internalType": "bool",
              "name": "isClosed",
              "type": "bool"
            },
            {
              "internalType": "address",
              "name": "borrower",
              "type": "address"
            },
            {
              "internalType": "bool",
              "name": "isLiquidated",
              "type": "bool"
            },
            {
              "internalType": "contract IERC20Standard",
              "name": "stableCoin",
              "type": "address"
            },
            {
              "internalType": "bool",
              "name": "isFinalty",
              "type": "bool"
            },
            {
              "internalType": "bool",
              "name": "isFiat",
              "type": "bool"
            },
            {
              "internalType": "bytes12",
              "name": "encryptusId",
              "type": "bytes12"
            },
            {
              "internalType": "uint256",
              "name": "closedAmount",
              "type": "uint256"
            }
          ],
          "indexed": false,
          "internalType": "struct DataTypes.Loan",
          "name": "loanInfo",
          "type": "tuple"
        },
        {
          "indexed": false,
          "internalType": "uint256",
          "name": "repayAmount",
          "type": "uint256"
        },
        {
          "indexed": false,
          "internalType": "uint256",
          "name": "debtRemain",
          "type": "uint256"
        }
      ],
      "name": "RepayLoan",
      "type": "event"
    },
    {
      "anonymous": false,
      "inputs": [
        {
          "indexed": true,
          "internalType": "address",
          "name": "borrower",
          "type": "address"
        },
        {
          "components": [
            {
              "internalType": "uint256",
              "name": "loanId",
              "type": "uint256"
            },
            {
              "internalType": "uint256",
              "name": "amount",
              "type": "uint256"
            },
            {
              "internalType": "bool",
              "name": "isClosed",
              "type": "bool"
            },
            {
              "internalType": "address",
              "name": "borrower",
              "type": "address"
            },
            {
              "internalType": "bool",
              "name": "isLiquidated",
              "type": "bool"
            },
            {
              "internalType": "contract IERC20Standard",
              "name": "stableCoin",
              "type": "address"
            },
            {
              "internalType": "bool",
              "name": "isFinalty",
              "type": "bool"
            },
            {
              "internalType": "bool",
              "name": "isFiat",
              "type": "bool"
            },
            {
              "internalType": "bytes12",
              "name": "encryptusId",
              "type": "bytes12"
            },
            {
              "internalType": "uint256",
              "name": "closedAmount",
              "type": "uint256"
            }
          ],
          "indexed": false,
          "internalType": "struct DataTypes.Loan",
          "name": "loanInfo",
          "type": "tuple"
        },
        {
          "indexed": false,
          "internalType": "uint256",
          "name": "collateralAmount",
          "type": "uint256"
        },
        {
          "indexed": false,
          "internalType": "contract IERC20Standard",
          "name": "collateral",
          "type": "address"
        },
        {
          "indexed": false,
          "internalType": "bool",
          "name": "isETH",
          "type": "bool"
        }
      ],
      "name": "WithdrawAllCollateral",
      "type": "event"
    },
    {
      "anonymous": false,
      "inputs": [
        {
          "indexed": true,
          "internalType": "address",
          "name": "admin",
          "type": "address"
        },
        {
          "components": [
            {
              "internalType": "uint256",
              "name": "loanId",
              "type": "uint256"
            },
            {
              "internalType": "uint256",
              "name": "amount",
              "type": "uint256"
            },
            {
              "internalType": "bool",
              "name": "isClosed",
              "type": "bool"
            },
            {
              "internalType": "address",
              "name": "borrower",
              "type": "address"
            },
            {
              "internalType": "bool",
              "name": "isLiquidated",
              "type": "bool"
            },
            {
              "internalType": "contract IERC20Standard",
              "name": "stableCoin",
              "type": "address"
            },
            {
              "internalType": "bool",
              "name": "isFinalty",
              "type": "bool"
            },
            {
              "internalType": "bool",
              "name": "isFiat",
              "type": "bool"
            },
            {
              "internalType": "bytes12",
              "name": "encryptusId",
              "type": "bytes12"
            },
            {
              "internalType": "uint256",
              "name": "closedAmount",
              "type": "uint256"
            }
          ],
          "indexed": false,
          "internalType": "struct DataTypes.Loan",
          "name": "loanInfo",
          "type": "tuple"
        },
        {
          "indexed": false,
          "internalType": "uint256",
          "name": "collateralAmount",
          "type": "uint256"
        },
        {
          "indexed": false,
          "internalType": "contract IERC20Standard",
          "name": "collateral",
          "type": "address"
        },
        {
          "indexed": false,
          "internalType": "bool",
          "name": "isETH",
          "type": "bool"
        }
      ],
      "name": "WithdrawAllCollateralByAdmin",
      "type": "event"
    },
    {
      "inputs": [
        {
          "internalType": "uint256",
          "name": "_loanId",
          "type": "uint256"
        },
        {
          "internalType": "uint256",
          "name": "_amountCollateral",
          "type": "uint256"
        },
        {
          "internalType": "contract IERC20Standard",
          "name": "_collateral",
          "type": "address"
        }
      ],
      "name": "addCollateral",
      "outputs": [],
      "stateMutability": "nonpayable",
      "type": "function"
    },
    {
      "inputs": [
        {
          "internalType": "uint256",
          "name": "_loanId",
          "type": "uint256"
        },
        {
          "internalType": "uint256",
          "name": "_amountETH",
          "type": "uint256"
        }
      ],
      "name": "addCollateralByETH",
      "outputs": [],
      "stateMutability": "payable",
      "type": "function"
    },
    {
      "inputs": [
        {
          "internalType": "uint256",
          "name": "_loanId",
          "type": "uint256"
        },
        {
          "internalType": "uint256",
          "name": "_amountCollateral",
          "type": "uint256"
        }
      ],
      "name": "addCollateralHealthFactor",
      "outputs": [
        {
          "internalType": "uint256",
          "name": "",
          "type": "uint256"
        }
      ],
      "stateMutability": "view",
      "type": "function"
    },
    {
      "inputs": [
        {
          "internalType": "contract IERC20Standard[]",
          "name": "array",
          "type": "address[]"
        },
        {
          "internalType": "contract IERC20Standard",
          "name": "el",
          "type": "address"
        }
      ],
      "name": "checkExistElement",
      "outputs": [
        {
          "internalType": "bool",
          "name": "",
          "type": "bool"
        }
      ],
      "stateMutability": "pure",
      "type": "function"
    },
    {
      "inputs": [
        {
          "internalType": "uint256",
          "name": "_amount",
          "type": "uint256"
        },
        {
          "internalType": "contract IERC20Standard",
          "name": "_stableCoin",
          "type": "address"
        },
        {
          "internalType": "contract IERC20Standard",
          "name": "_collateral",
          "type": "address"
        }
      ],
      "name": "checkMinimalCollateralForLoan",
      "outputs": [
        {
          "internalType": "uint256",
          "name": "",
          "type": "uint256"
        }
      ],
      "stateMutability": "view",
      "type": "function"
    },
    {
      "inputs": [
        {
          "internalType": "uint256",
          "name": "_amount",
          "type": "uint256"
        },
        {
          "internalType": "contract IERC20Standard",
          "name": "_stableCoin",
          "type": "address"
        },
        {
          "internalType": "uint256",
          "name": "_amountCollateral",
          "type": "uint256"
        },
        {
          "internalType": "contract IERC20Standard",
          "name": "_collateral",
          "type": "address"
        },
        {
          "internalType": "bool",
          "name": "_isYieldGenerating",
          "type": "bool"
        },
        {
          "internalType": "bool",
          "name": "_isFiat",
          "type": "bool"
        },
        {
          "internalType": "bytes12",
          "name": "_encryptusId",
          "type": "bytes12"
        }
      ],
      "name": "createLoan",
      "outputs": [],
      "stateMutability": "nonpayable",
      "type": "function"
    },
    {
      "inputs": [
        {
          "internalType": "uint256",
          "name": "_amount",
          "type": "uint256"
        },
        {
          "internalType": "contract IERC20Standard",
          "name": "_stableCoin",
          "type": "address"
        },
        {
          "internalType": "uint256",
          "name": "_amountETH",
          "type": "uint256"
        },
        {
          "internalType": "bool",
          "name": "_isYieldGenerating",
          "type": "bool"
        },
        {
          "internalType": "bool",
          "name": "_isFiat",
          "type": "bool"
        },
        {
          "internalType": "bytes12",
          "name": "_encryptusId",
          "type": "bytes12"
        }
      ],
      "name": "createLoanByETH",
      "outputs": [],
      "stateMutability": "payable",
      "type": "function"
    },
    {
      "inputs": [
        {
          "internalType": "contract IERC20Standard",
          "name": "_stableCoin",
          "type": "address"
        },
        {
          "internalType": "uint256",
          "name": "_amount",
          "type": "uint256"
        },
        {
          "internalType": "contract IERC20Standard",
          "name": "_collateralToken",
          "type": "address"
        },
        {
          "internalType": "uint256",
          "name": "_amountCollateral",
          "type": "uint256"
        }
      ],
      "name": "estimateHealthFactor",
      "outputs": [
        {
          "internalType": "uint256",
          "name": "",
          "type": "uint256"
        }
      ],
      "stateMutability": "view",
      "type": "function"
    },
    {
      "inputs": [],
      "name": "fsfiConfig",
      "outputs": [
        {
          "internalType": "contract IFSFIConfig",
          "name": "",
          "type": "address"
        }
      ],
      "stateMutability": "view",
      "type": "function"
    },
    {
      "inputs": [],
      "name": "fsfiLoan",
      "outputs": [
        {
          "internalType": "contract IFSFILoan",
          "name": "",
          "type": "address"
        }
      ],
      "stateMutability": "view",
      "type": "function"
    },
    {
      "inputs": [
        {
          "internalType": "contract IERC20Standard",
          "name": "",
          "type": "address"
        }
      ],
      "name": "fsfiPools",
      "outputs": [
        {
          "internalType": "contract IFSFIPool",
          "name": "",
          "type": "address"
        }
      ],
      "stateMutability": "view",
      "type": "function"
    },
    {
      "inputs": [
        {
          "internalType": "uint256",
          "name": "_loanId",
          "type": "uint256"
        }
      ],
      "name": "getHealthFactor",
      "outputs": [
        {
          "internalType": "uint256",
          "name": "",
          "type": "uint256"
        }
      ],
      "stateMutability": "view",
      "type": "function"
    },
    {
      "inputs": [
        {
          "internalType": "uint256",
          "name": "_loanId",
          "type": "uint256"
        }
      ],
      "name": "getLoanAddress",
      "outputs": [
        {
          "internalType": "address",
          "name": "",
          "type": "address"
        }
      ],
      "stateMutability": "view",
      "type": "function"
    },
    {
      "inputs": [
        {
          "internalType": "address",
          "name": "borrower",
          "type": "address"
        }
      ],
      "name": "getLoanIds",
      "outputs": [
        {
          "internalType": "uint256[]",
          "name": "",
          "type": "uint256[]"
        }
      ],
      "stateMutability": "view",
      "type": "function"
    },
    {
      "inputs": [
        {
          "internalType": "contract IERC20Standard[]",
          "name": "_fsfiPoolStableCoin",
          "type": "address[]"
        },
        {
          "internalType": "contract IFSFIPool[]",
          "name": "_fsfiPools",
          "type": "address[]"
        },
        {
          "internalType": "contract IFSFIConfig",
          "name": "_fsfiConfig",
          "type": "address"
        },
        {
          "internalType": "contract IFSFILoan",
          "name": "_fsfiLoan",
          "type": "address"
        }
      ],
      "name": "initialize",
      "outputs": [],
      "stateMutability": "nonpayable",
      "type": "function"
    },
    {
      "inputs": [],
      "name": "isPaused",
      "outputs": [
        {
          "internalType": "bool",
          "name": "",
          "type": "bool"
        }
      ],
      "stateMutability": "view",
      "type": "function"
    },
    {
      "inputs": [
        {
          "internalType": "uint256",
          "name": "_loanId",
          "type": "uint256"
        }
      ],
      "name": "liquidate",
      "outputs": [],
      "stateMutability": "nonpayable",
      "type": "function"
    },
    {
      "inputs": [],
      "name": "loandIds",
      "outputs": [
        {
          "internalType": "uint256",
          "name": "",
          "type": "uint256"
        }
      ],
      "stateMutability": "view",
      "type": "function"
    },
    {
      "inputs": [
        {
          "internalType": "address",
          "name": "",
          "type": "address"
        }
      ],
      "name": "operators",
      "outputs": [
        {
          "internalType": "bool",
          "name": "",
          "type": "bool"
        }
      ],
      "stateMutability": "view",
      "type": "function"
    },
    {
      "inputs": [],
      "name": "owner",
      "outputs": [
        {
          "internalType": "address",
          "name": "",
          "type": "address"
        }
      ],
      "stateMutability": "view",
      "type": "function"
    },
    {
      "inputs": [
        {
          "internalType": "uint256",
          "name": "_loanId",
          "type": "uint256"
        },
        {
          "internalType": "uint256",
          "name": "_amount",
          "type": "uint256"
        }
      ],
      "name": "repayHealthFactor",
      "outputs": [
        {
          "internalType": "uint256",
          "name": "",
          "type": "uint256"
        }
      ],
      "stateMutability": "view",
      "type": "function"
    },
    {
      "inputs": [
        {
          "internalType": "uint256",
          "name": "_loanId",
          "type": "uint256"
        },
        {
          "internalType": "uint256",
          "name": "_amount",
          "type": "uint256"
        },
        {
          "internalType": "contract IERC20Standard",
          "name": "_stableCoin",
          "type": "address"
        }
      ],
      "name": "repayLoan",
      "outputs": [],
      "stateMutability": "nonpayable",
      "type": "function"
    },
    {
      "inputs": [
        {
          "internalType": "contract IFSFILoan",
          "name": "_loan",
          "type": "address"
        }
      ],
      "name": "setFSFILoan",
      "outputs": [],
      "stateMutability": "nonpayable",
      "type": "function"
    },
    {
      "inputs": [
        {
          "internalType": "address[]",
          "name": "_addresses",
          "type": "address[]"
        },
        {
          "internalType": "bool[]",
          "name": "_isActives",
          "type": "bool[]"
        }
      ],
      "name": "setOperators",
      "outputs": [],
      "stateMutability": "nonpayable",
      "type": "function"
    },
    {
      "inputs": [
        {
          "internalType": "bool",
          "name": "_paused",
          "type": "bool"
        }
      ],
      "name": "setPaused",
      "outputs": [],
      "stateMutability": "nonpayable",
      "type": "function"
    },
    {
      "inputs": [
        {
          "internalType": "contract IERC20Standard[]",
          "name": "_fsfiPoolStableCoin",
          "type": "address[]"
        },
        {
          "internalType": "contract IFSFIPool[]",
          "name": "_fsfiPools",
          "type": "address[]"
        }
      ],
      "name": "setPools",
      "outputs": [],
      "stateMutability": "nonpayable",
      "type": "function"
    },
    {
      "inputs": [
        {
          "internalType": "address",
          "name": "",
          "type": "address"
        },
        {
          "internalType": "uint256",
          "name": "",
          "type": "uint256"
        }
      ],
      "name": "userLoans",
      "outputs": [
        {
          "internalType": "uint256",
          "name": "",
          "type": "uint256"
        }
      ],
      "stateMutability": "view",
      "type": "function"
    },
    {
      "inputs": [
        {
          "internalType": "uint256",
          "name": "_loanId",
          "type": "uint256"
        },
        {
          "internalType": "bool",
          "name": "_isETH",
          "type": "bool"
        }
      ],
      "name": "withdrawAllCollateral",
      "outputs": [],
      "stateMutability": "nonpayable",
      "type": "function"
    },
    {
      "inputs": [
        {
          "internalType": "uint256",
          "name": "_loanId",
          "type": "uint256"
        },
        {
          "internalType": "bool",
          "name": "isETH",
          "type": "bool"
        }
      ],
      "name": "withdrawAllCollateralByAdmin",
      "outputs": [],
      "stateMutability": "nonpayable",
      "type": "function"
    },
    {
      "stateMutability": "payable",
      "type": "receive"
    }
  ],
  "bytecode": "0x608060405234801561001057600080fd5b50614f9f806100206000396000f3fe6080604052600436106101c65760003560e01c80636f601217116100f7578063b187bd2611610095578063e43b03d611610064578063e43b03d61461053f578063ef3c5d251461055f578063f43050351461057f578063fdb2b32c1461059f57600080fd5b8063b187bd26146104b5578063be5f2c62146104d6578063cff212e61461050c578063d8bad5bd1461051f57600080fd5b80638858ddc5116100d15780638858ddc51461043f5780638ba02e1c1461045f5780638da5cb5b14610475578063af6a85c41461049557600080fd5b80636f601217146103df578063752efd74146103ff578063761fbc291461041f57600080fd5b806337f461d411610164578063435382b31161013e578063435382b31461035f5780635c8edac4146103725780636b64c885146103925780636eb0fdd0146103bf57600080fd5b806337f461d4146102e75780633c8bf9b31461031f578063415f12401461033f57600080fd5b806317845c69116101a057806317845c69146102595780631bb514cf146102875780631d9eb5d9146102a757806325e9d2fa146102c757600080fd5b8063018aafe5146101d257806313e7c9d8146101f457806316c38b3c1461023957600080fd5b366101cd57005b600080fd5b3480156101de57600080fd5b506101f26101ed36600461437f565b6105d5565b005b34801561020057600080fd5b5061022461020f36600461437f565b60006020819052908152604090205460ff1681565b60405190151581526020015b60405180910390f35b34801561024557600080fd5b506101f26102543660046143b1565b610645565b34801561026557600080fd5b506102796102743660046143ce565b6106c3565b604051908152602001610230565b34801561029357600080fd5b506102796102a23660046143e7565b610841565b3480156102b357600080fd5b506102246102c2366004614536565b610ad2565b3480156102d357600080fd5b506102796102e2366004614588565b610b2d565b3480156102f357600080fd5b50600454610307906001600160a01b031681565b6040516001600160a01b039091168152602001610230565b34801561032b57600080fd5b506101f261033a3660046145aa565b610ca3565b34801561034b57600080fd5b506101f261035a3660046143ce565b610eb6565b6101f261036d366004614649565b6116aa565b34801561037e57600080fd5b506101f261038d3660046146b9565b611c21565b34801561039e57600080fd5b506103b26103ad36600461437f565b611ecb565b60405161023091906146de565b3480156103cb57600080fd5b506101f26103da366004614722565b611f37565b3480156103eb57600080fd5b506101f26103fa366004614750565b6126bd565b34801561040b57600080fd5b50600554610307906001600160a01b031681565b34801561042b57600080fd5b506101f261043a3660046147b4565b6127ae565b34801561044b57600080fd5b5061027961045a366004614838565b612c24565b34801561046b57600080fd5b5061027960015481565b34801561048157600080fd5b50600254610307906001600160a01b031681565b3480156104a157600080fd5b506101f26104b03660046146b9565b612ee4565b3480156104c157600080fd5b5060025461022490600160a01b900460ff1681565b3480156104e257600080fd5b506103076104f136600461437f565b6006602052600090815260409020546001600160a01b031681565b6101f261051a366004614588565b612fa2565b34801561052b57600080fd5b5061027961053a366004614880565b6133f6565b34801561054b57600080fd5b5061027961055a366004614588565b613427565b34801561056b57600080fd5b506101f261057a366004614722565b61359c565b34801561058b57600080fd5b506101f261059a366004614914565b613965565b3480156105ab57600080fd5b506103076105ba3660046143ce565b6000908152600760205260409020546001600160a01b031690565b6002546040805180820190915260018152601960f91b6020820152906001600160a01b031633146106225760405162461bcd60e51b815260040161061991906149cc565b60405180910390fd5b50600580546001600160a01b0319166001600160a01b0392909216919091179055565b6002546040805180820190915260018152601960f91b6020820152906001600160a01b031633146106895760405162461bcd60e51b815260040161061991906149cc565b5060028054911515600160a01b027fffffffffffffffffffffff00ffffffffffffffffffffffffffffffffffffffff909216919091179055565b600081815260076020526040808220548151635d3e2fa160e01b815291516001600160a01b039091169183918391635d3e2fa1916004808301926101409291908290030181865afa15801561071c573d6000803e3d6000fd5b505050506040513d601f19601f820116820180604052508101906107409190614a3c565b60a08101516001600160a01b0390811660009081526006602052604080822054905163a52f38d160e01b815260048101899052939450909291169063a52f38d190602401602060405180830381865afa1580156107a1573d6000803e3d6000fd5b505050506040513d601f19601f820116820180604052508101906107c59190614af1565b604051632696439560e11b815260048101829052600060248201529091506001600160a01b03841690634d2c872a90604401602060405180830381865afa158015610814573d6000803e3d6000fd5b505050506040513d601f19601f820116820180604052508101906108389190614af1565b95945050505050565b6000806000600460009054906101000a90046001600160a01b03166001600160a01b031663e75235b86040518163ffffffff1660e01b81526004016040805180830381865afa158015610898573d6000803e3d6000fd5b505050506040513d601f19601f820116820180604052508101906108bc9190614b0a565b600480546040516359dfff5560e11b81526001600160a01b038981169382019390935260006024820152939550919350169063b3bffeaa90604401602060405180830381865afa158015610914573d6000803e3d6000fd5b505050506040513d601f19601f820116820180604052508101906109389190614af1565b82866001600160a01b031663313ce5676040518163ffffffff1660e01b8152600401602060405180830381865afa158015610977573d6000803e3d6000fd5b505050506040513d601f19601f8201168201806040525081019061099b9190614b2e565b6109a690600a614c4b565b600480546040516359dfff5560e11b81526001600160a01b038b8116938201939093526001602482015291169063b3bffeaa90604401602060405180830381865afa1580156109f9573d6000803e3d6000fd5b505050506040513d601f19601f82011682018060405250810190610a1d9190614af1565b876001600160a01b031663313ce5676040518163ffffffff1660e01b8152600401602060405180830381865afa158015610a5b573d6000803e3d6000fd5b505050506040513d601f19601f82011682018060405250810190610a7f9190614b2e565b610a8a90600a614c4b565b610a94908b614c5a565b610aa090612710614c5a565b610aaa9190614c5a565b610ab49190614c71565b610abe9190614c71565b610ac89190614c71565b9695505050505050565b600080805b8451811015610b2357836001600160a01b0316858281518110610afc57610afc614c93565b60200260200101516001600160a01b031603610b1b5760019150610b23565b600101610ad7565b5090505b92915050565b600082815260076020526040808220548151635d3e2fa160e01b815291516001600160a01b039091169183918391635d3e2fa1916004808301926101409291908290030181865afa158015610b86573d6000803e3d6000fd5b505050506040513d601f19601f82011682018060405250810190610baa9190614a3c565b60a08101516001600160a01b0390811660009081526006602052604080822054905163a52f38d160e01b8152600481018a9052939450909291169063a52f38d190602401602060405180830381865afa158015610c0b573d6000803e3d6000fd5b505050506040513d601f19601f82011682018060405250810190610c2f9190614af1565b604051632696439560e11b815260048101829052602481018790529091506001600160a01b03841690634d2c872a906044015b602060405180830381865afa158015610c7f573d6000803e3d6000fd5b505050506040513d601f19601f82011682018060405250810190610ac89190614af1565b7ff0c57e16840df040f15088dc2f81fe391c3923bec73e23a9662efc9c229c6a00805468010000000000000000810460ff16159067ffffffffffffffff16600081158015610cee5750825b905060008267ffffffffffffffff166001148015610d0b5750303b155b905081158015610d19575080155b15610d50576040517ff92ee8a900000000000000000000000000000000000000000000000000000000815260040160405180910390fd5b845467ffffffffffffffff191660011785558315610d8457845468ff00000000000000001916680100000000000000001785555b60005b8851811015610e0457888181518110610da257610da2614c93565b6020026020010151600660008c8481518110610dc057610dc0614c93565b6020908102919091018101516001600160a01b0390811683529082019290925260400160002080546001600160a01b03191692909116919091179055600101610d87565b50600180805560028054336001600160a01b03199182168117909255600091825260208290526040909120805460ff19169092179091556004805482166001600160a01b038a811691909117909155600580549092169088161790558315610eab57845468ff000000000000000019168555604051600181527fc7f505b2f371ae2175ee4913f4499e1f2633a7b5936321eed1cdaeb6115181d29060200160405180910390a15b505050505050505050565b600280546040805180820190915291825261323160f01b6020830152600160a01b900460ff1615610efa5760405162461bcd60e51b815260040161061991906149cc565b50600081815260076020526040808220548151635d3e2fa160e01b815291516001600160a01b0390911692918391635d3e2fa191600480820192610140929091908290030181865afa158015610f54573d6000803e3d6000fd5b505050506040513d601f19601f82011682018060405250810190610f789190614a3c565b60a08101516001600160a01b0390811660009081526006602052604080822054905163a52f38d160e01b815260048101889052939450909291169063a52f38d190602401602060405180830381865afa158015610fd9573d6000803e3d6000fd5b505050506040513d601f19601f82011682018060405250810190610ffd9190614af1565b9050600080600080866001600160a01b031663415f1240866040518263ffffffff1660e01b815260040161103391815260200190565b6080604051808303816000875af1158015611052573d6000803e3d6000fd5b505050506040513d601f19601f820116820180604052508101906110769190614ca9565b93509350935093508560a001516001600160a01b03166323b872dd883086888a6110a09190614cdf565b6110aa9190614cdf565b6040517fffffffff0000000000000000000000000000000000000000000000000000000060e086901b1681526001600160a01b03938416600482015292909116602483015260448201526064016020604051808303816000875af1158015611116573d6000803e3d6000fd5b505050506040513d601f19601f8201168201806040525081019061113a9190614cf2565b5060a08601516001600160a01b039081166000818152600660205260409081902054905163095ea7b360e01b815292166004830152602482018790529063095ea7b3906044016020604051808303816000875af115801561119f573d6000803e3d6000fd5b505050506040513d601f19601f820116820180604052508101906111c39190614cf2565b5060a08601516001600160a01b039081166000908152600660205260409081902054905163d8aed14560e01b8152600481018b90526024810188905291169063d8aed14590604401600060405180830381600087803b15801561122557600080fd5b505af1158015611239573d6000803e3d6000fd5b50505050600080600460009054906101000a90046001600160a01b03166001600160a01b0316633c0c45666040518163ffffffff1660e01b81526004016040805180830381865afa158015611292573d6000803e3d6000fd5b505050506040513d601f19601f820116820180604052508101906112b69190614d0f565b60a08a01516040516323b872dd60e01b81526001600160a01b038d8116600483015280841660248301526044820189905293955091935091909116906323b872dd906064016020604051808303816000875af115801561131a573d6000803e3d6000fd5b505050506040513d601f19601f8201168201806040525081019061133e9190614cf2565b5060a08801516040516323b872dd60e01b81526001600160a01b038b81166004830152848116602483015260448201869052909116906323b872dd906064016020604051808303816000875af115801561139c573d6000803e3d6000fd5b505050506040513d601f19601f820116820180604052508101906113c09190614cf2565b5060a08801516001600160a01b03908116600081815260066020526040902054909163095ea7b391166113f3888a614cdf565b6040517fffffffff0000000000000000000000000000000000000000000000000000000060e085901b1681526001600160a01b03909216600483015260248201526044016020604051808303816000875af1158015611456573d6000803e3d6000fd5b505050506040513d601f19601f8201168201806040525081019061147a9190614cf2565b5060a08801516001600160a01b03908116600090815260066020526040908190205490517f7f394031000000000000000000000000000000000000000000000000000000008152600481018d905260248101899052911690637f39403190604401600060405180830381600087803b1580156114f557600080fd5b505af1158015611509573d6000803e3d6000fd5b5050505060008511156115895760a08801516001600160a01b03908116600090815260066020526040908190205490516326de36ff60e21b815260048101889052911690639b78dbfc90602401600060405180830381600087803b15801561157057600080fd5b505af1158015611584573d6000803e3d6000fd5b505050505b87606001516001600160a01b0316336001600160a01b03167f3b4a5c55e40576028b1ec2f727d7b745bc328957374a297121bd980d3be618ce8a8c6001600160a01b031663315deeaa6040518163ffffffff1660e01b8152600401602060405180830381865afa158015611601573d6000803e3d6000fd5b505050506040513d601f19601f820116820180604052508101906116259190614af1565b8d6001600160a01b031663964236636040518163ffffffff1660e01b8152600401602060405180830381865afa158015611663573d6000803e3d6000fd5b505050506040513d601f19601f820116820180604052508101906116879190614d3e565b60405161169693929190614e10565b60405180910390a350505050505050505050565b60048054604051632e7d32b360e21b81526001600160a01b038089169382019390935287929091169063b9f4cacc90602401602060405180830381865afa1580156116f9573d6000803e3d6000fd5b505050506040513d601f19601f8201168201806040525081019061171d9190614cf2565b604080518082019091526001808252603360f81b602083015290911515146117585760405162461bcd60e51b815260040161061991906149cc565b506004805460408051634c2a6d8160e11b815290516001600160a01b0390921692639854db029282820192602092908290030181865afa1580156117a0573d6000803e3d6000fd5b505050506040513d601f19601f820116820180604052508101906117c49190614cf2565b604080518082019091526002815261032360f41b60208201529015156001146118005760405162461bcd60e51b815260040161061991906149cc565b50600280546040805180820190915291825261323160f01b6020830152600160a01b900460ff16156118455760405162461bcd60e51b815260040161061991906149cc565b506040805180820190915260018152601b60f91b60208201523486111561187f5760405162461bcd60e51b815260040161061991906149cc565b506000600460009054906101000a90046001600160a01b03166001600160a01b031663cae5f11e6040518163ffffffff1660e01b8152600401602060405180830381865afa1580156118d5573d6000803e3d6000fd5b505050506040513d601f19601f820116820180604052508101906118f99190614d3e565b9050806001600160a01b031663d0e30db0876040518263ffffffff1660e01b81526004016000604051808303818588803b15801561193657600080fd5b505af115801561194a573d6000803e3d6000fd5b50506004805460408051631cea46b760e31b81528151600097508796506001600160a01b03909316945063e75235b89381810193918290030181865afa158015611998573d6000803e3d6000fd5b505050506040513d601f19601f820116820180604052508101906119bc9190614b0a565b91509150886001600160a01b031663313ce5676040518163ffffffff1660e01b8152600401602060405180830381865afa1580156119fe573d6000803e3d6000fd5b505050506040513d601f19601f82011682018060405250810190611a229190614b2e565b611a2d90600a614c4b565b600480546040516359dfff5560e11b81526001600160a01b038d8116938201939093526001602482015291169063b3bffeaa90604401602060405180830381865afa158015611a80573d6000803e3d6000fd5b505050506040513d601f19601f82011682018060405250810190611aa49190614af1565b611aae908c614c5a565b611aba90612710614c5a565b611ac49190614c71565b836001600160a01b031663313ce5676040518163ffffffff1660e01b8152600401602060405180830381865afa158015611b02573d6000803e3d6000fd5b505050506040513d601f19601f82011682018060405250810190611b269190614b2e565b611b3190600a614c4b565b600480546040516359dfff5560e11b81526001600160a01b03888116938201939093526000602482015286929091169063b3bffeaa90604401602060405180830381865afa158015611b87573d6000803e3d6000fd5b505050506040513d601f19601f82011682018060405250810190611bab9190614af1565b611bb5908c614c5a565b611bbf9190614c5a565b611bc99190614c71565b1015604051806040016040528060018152602001603760f81b81525090611c035760405162461bcd60e51b815260040161061991906149cc565b50611c158a8a8a868b8b8b6001613a1f565b50505050505050505050565b600280546040805180820190915291825261323160f01b6020830152600160a01b900460ff1615611c655760405162461bcd60e51b815260040161061991906149cc565b50600082815260076020526040808220548151635d3e2fa160e01b815291516001600160a01b0390911692918391635d3e2fa191600480820192610140929091908290030181865afa158015611cbf573d6000803e3d6000fd5b505050506040513d601f19601f82011682018060405250810190611ce39190614a3c565b905080606001516001600160a01b0316336001600160a01b0316146040518060400160405280600281526020017f323200000000000000000000000000000000000000000000000000000000000081525090611d525760405162461bcd60e51b815260040161061991906149cc565b5060608101516040516308165c1760e11b81526001600160a01b03918216600482015284151560248201529083169063102cb82e90604401600060405180830381600087803b158015611da457600080fd5b505af1158015611db8573d6000803e3d6000fd5b50505050336001600160a01b03167fd2f06c53ec16eafa62f3bc984bc4f20dffe1714c80fbb922d6f291b361595eca82846001600160a01b031663315deeaa6040518163ffffffff1660e01b8152600401602060405180830381865afa158015611e26573d6000803e3d6000fd5b505050506040513d601f19601f82011682018060405250810190611e4a9190614af1565b856001600160a01b031663964236636040518163ffffffff1660e01b8152600401602060405180830381865afa158015611e88573d6000803e3d6000fd5b505050506040513d601f19601f82011682018060405250810190611eac9190614d3e565b87604051611ebd9493929190614e3e565b60405180910390a250505050565b6001600160a01b038116600090815260036020908152604091829020805483518184028101840190945280845260609392830182828015611f2b57602002820191906000526020600020905b815481526020019060010190808311611f17575b50505050509050919050565b60048054604051632e7d32b360e21b81526001600160a01b038085169382019390935283929091169063b9f4cacc90602401602060405180830381865afa158015611f86573d6000803e3d6000fd5b505050506040513d601f19601f82011682018060405250810190611faa9190614cf2565b604080518082019091526001808252603360f81b60208301529091151514611fe55760405162461bcd60e51b815260040161061991906149cc565b50600280546040805180820190915291825261323160f01b6020830152600160a01b900460ff161561202a5760405162461bcd60e51b815260040161061991906149cc565b506001600160a01b038281166000908152600660205260409081902054905163a52f38d160e01b8152600481018790528592919091169063a52f38d190602401602060405180830381865afa158015612087573d6000803e3d6000fd5b505050506040513d601f19601f820116820180604052508101906120ab9190614af1565b841115612131576001600160a01b038381166000908152600660205260409081902054905163a52f38d160e01b81526004810188905291169063a52f38d190602401602060405180830381865afa15801561210a573d6000803e3d6000fd5b505050506040513d601f19601f8201168201806040525081019061212e9190614af1565b90505b600085815260076020526040808220548151635d3e2fa160e01b815291516001600160a01b0390911692918391635d3e2fa191600480820192610140929091908290030181865afa15801561218a573d6000803e3d6000fd5b505050506040513d601f19601f820116820180604052508101906121ae9190614a3c565b6040516323b872dd60e01b8152336004820152306024820152604481018590529091506001600160a01b038616906323b872dd906064016020604051808303816000875af1158015612204573d6000803e3d6000fd5b505050506040513d601f19601f820116820180604052508101906122289190614cf2565b506001600160a01b038581166000818152600660205260409081902054905163095ea7b360e01b815292166004830152602482018590529063095ea7b3906044016020604051808303816000875af1158015612288573d6000803e3d6000fd5b505050506040513d601f19601f820116820180604052508101906122ac9190614cf2565b506001600160a01b038581166000908152600660205260409081902054905163d8aed14560e01b8152600481018a90526024810186905291169063d8aed14590604401600060405180830381600087803b15801561230957600080fd5b505af115801561231d573d6000803e3d6000fd5b505050506001600160a01b0385811660009081526006602052604080822054905163a52f38d160e01b8152600481018b90529192169063a52f38d190602401602060405180830381865afa158015612379573d6000803e3d6000fd5b505050506040513d601f19601f8201168201806040525081019061239d9190614af1565b90508060000361266e576000888152600760205260408082205481517f232fa733000000000000000000000000000000000000000000000000000000008152825184936001600160a01b039093169263232fa7339260048082019391829003018187875af1158015612413573d6000803e3d6000fd5b505050506040513d601f19601f820116820180604052508101906124379190614b0a565b9092509050811561254a5760008a8152600760209081526040808320546001600160a01b038c81168086526006909452938290205491516323b872dd60e01b815290841660048201529216602483015260448201849052906323b872dd906064016020604051808303816000875af11580156124b7573d6000803e3d6000fd5b505050506040513d601f19601f820116820180604052508101906124db9190614cf2565b506001600160a01b03888116600090815260066020526040908190205490516326de36ff60e21b815260048101859052911690639b78dbfc90602401600060405180830381600087803b15801561253157600080fd5b505af1158015612545573d6000803e3d6000fd5b505050505b60048054604080517f3c0c4566000000000000000000000000000000000000000000000000000000008152815160009485946001600160a01b031693633c0c456693808301939192908290030181865afa1580156125ac573d6000803e3d6000fd5b505050506040513d601f19601f820116820180604052508101906125d09190614d0f565b909250905082156126695760008c815260076020526040908190205490516323b872dd60e01b81526001600160a01b039182166004820152828216602482015260448101859052908b16906323b872dd906064016020604051808303816000875af1158015612643573d6000803e3d6000fd5b505050506040513d601f19601f820116820180604052508101906126679190614cf2565b505b505050505b336001600160a01b03167facb653c591f14dc84f45fb619c5dda6b9a5116d2a174e743a67e1a5ec2449c2d8389846040516126ab93929190614e76565b60405180910390a25050505050505050565b3360009081526020818152604091829020548251808401909352600283527f31380000000000000000000000000000000000000000000000000000000000009183019190915260ff1615156001146127285760405162461bcd60e51b815260040161061991906149cc565b5060005b81518110156127a95781818151811061274757612747614c93565b60200260200101516006600085848151811061276557612765614c93565b6020908102919091018101516001600160a01b0390811683529082019290925260400160002080546001600160a01b0319169290911691909117905560010161272c565b505050565b60048054604051632e7d32b360e21b81526001600160a01b03808a169382019390935288929091169063b9f4cacc90602401602060405180830381865afa1580156127fd573d6000803e3d6000fd5b505050506040513d601f19601f820116820180604052508101906128219190614cf2565b604080518082019091526001808252603360f81b6020830152909115151461285c5760405162461bcd60e51b815260040161061991906149cc565b5060048054604051632e7d32b360e21b81526001600160a01b038089169382019390935287929091169063b9f4cacc90602401602060405180830381865afa1580156128ac573d6000803e3d6000fd5b505050506040513d601f19601f820116820180604052508101906128d09190614cf2565b604080518082019091526001808252600d60fa1b6020830152909115151461290b5760405162461bcd60e51b815260040161061991906149cc565b50600280546040805180820190915291825261323160f01b6020830152600160a01b900460ff16156129505760405162461bcd60e51b815260040161061991906149cc565b506004805460408051631cea46b760e31b8152815160009485946001600160a01b03169363e75235b893808301939192908290030181865afa15801561299a573d6000803e3d6000fd5b505050506040513d601f19601f820116820180604052508101906129be9190614b0a565b91509150896001600160a01b031663313ce5676040518163ffffffff1660e01b8152600401602060405180830381865afa158015612a00573d6000803e3d6000fd5b505050506040513d601f19601f82011682018060405250810190612a249190614b2e565b612a2f90600a614c4b565b600480546040516359dfff5560e11b81526001600160a01b038e8116938201939093526001602482015291169063b3bffeaa90604401602060405180830381865afa158015612a82573d6000803e3d6000fd5b505050506040513d601f19601f82011682018060405250810190612aa69190614af1565b612ab0908d614c5a565b612abc90612710614c5a565b612ac69190614c71565b886001600160a01b031663313ce5676040518163ffffffff1660e01b8152600401602060405180830381865afa158015612b04573d6000803e3d6000fd5b505050506040513d601f19601f82011682018060405250810190612b289190614b2e565b612b3390600a614c4b565b600480546040516359dfff5560e11b81526001600160a01b038d8116938201939093526000602482015286929091169063b3bffeaa90604401602060405180830381865afa158015612b89573d6000803e3d6000fd5b505050506040513d601f19601f82011682018060405250810190612bad9190614af1565b612bb7908d614c5a565b612bc19190614c5a565b612bcb9190614c71565b1015604051806040016040528060018152602001603760f81b81525090612c055760405162461bcd60e51b815260040161061991906149cc565b50612c178b8b8b8b8b8b8b6000613a1f565b5050505050505050505050565b600480546040516359dfff5560e11b81526001600160a01b0387811693820193909352600160248201526000928392169063b3bffeaa90604401602060405180830381865afa158015612c7b573d6000803e3d6000fd5b505050506040513d601f19601f82011682018060405250810190612c9f9190614af1565b600480546040516359dfff5560e11b81526001600160a01b038881169382019390935260006024820181905293945091169063b3bffeaa90604401602060405180830381865afa158015612cf7573d6000803e3d6000fd5b505050506040513d601f19601f82011682018060405250810190612d1b9190614af1565b9050600080600460009054906101000a90046001600160a01b03166001600160a01b031663e75235b86040518163ffffffff1660e01b81526004016040805180830381865afa158015612d72573d6000803e3d6000fd5b505050506040513d601f19601f82011682018060405250810190612d969190614b0a565b915091506000876001600160a01b031663313ce5676040518163ffffffff1660e01b8152600401602060405180830381865afa158015612dda573d6000803e3d6000fd5b505050506040513d601f19601f82011682018060405250810190612dfe9190614b2e565b612e0990600a614c4b565b61271083612e17878b614c5a565b612e219190614c5a565b612e2b9190614c71565b612e359190614c71565b905060008a6001600160a01b031663313ce5676040518163ffffffff1660e01b8152600401602060405180830381865afa158015612e77573d6000803e3d6000fd5b505050506040513d601f19601f82011682018060405250810190612e9b9190614b2e565b612ea690600a614c4b565b612eb0878c614c5a565b612eba9190614c71565b9050600081612eca846064614c5a565b612ed49190614c71565b9c9b505050505050505050505050565b6002546040805180820190915260018152601960f91b6020820152906001600160a01b03163314612f285760405162461bcd60e51b815260040161061991906149cc565b50600082815260076020526040908190205490516308165c1760e11b815233600482015282151560248201526001600160a01b0390911690819063102cb82e90604401600060405180830381600087803b158015612f8557600080fd5b505af1158015612f99573d6000803e3d6000fd5b50505050505050565b6004805460408051634c2a6d8160e11b815290516001600160a01b0390921692639854db029282820192602092908290030181865afa158015612fe9573d6000803e3d6000fd5b505050506040513d601f19601f8201168201806040525081019061300d9190614cf2565b604080518082019091526002815261032360f41b60208201529015156001146130495760405162461bcd60e51b815260040161061991906149cc565b50600280546040805180820190915291825261323160f01b6020830152600160a01b900460ff161561308e5760405162461bcd60e51b815260040161061991906149cc565b506040805180820190915260018152601b60f91b6020820152348211156130c85760405162461bcd60e51b815260040161061991906149cc565b506000600460009054906101000a90046001600160a01b03166001600160a01b031663cae5f11e6040518163ffffffff1660e01b8152600401602060405180830381865afa15801561311e573d6000803e3d6000fd5b505050506040513d601f19601f820116820180604052508101906131429190614d3e565b9050806001600160a01b031663d0e30db0836040518263ffffffff1660e01b81526004016000604051808303818588803b15801561317f57600080fd5b505af1158015613193573d6000803e3d6000fd5b505050600085815260076020526040808220548151635d3e2fa160e01b815291516001600160a01b0390911694509192508391635d3e2fa191600480820192610140929091908290030181865afa1580156131f2573d6000803e3d6000fd5b505050506040513d601f19601f820116820180604052508101906132169190614a3c565b60405163095ea7b360e01b81526001600160a01b038481166004830152602482018790529192509084169063095ea7b3906044016020604051808303816000875af1158015613269573d6000803e3d6000fd5b505050506040513d601f19601f8201168201806040525081019061328d9190614cf2565b50604051633390ef1360e11b8152600481018590526001600160a01b03831690636721de2690602401600060405180830381600087803b1580156132d057600080fd5b505af11580156132e4573d6000803e3d6000fd5b50505050816001600160a01b0316631c783def6040518163ffffffff1660e01b8152600401602060405180830381865afa158015613326573d6000803e3d6000fd5b505050506040513d601f19601f8201168201806040525081019061334a9190614cf2565b15156001036133a757816001600160a01b03166307a6bf696040518163ffffffff1660e01b8152600401600060405180830381600087803b15801561338e57600080fd5b505af11580156133a2573d6000803e3d6000fd5b505050505b336001600160a01b03167f1eca31fb2ce6705f5189c62ad48bed71967f6c92145095aae3af074eb572536c82868660016040516133e79493929190614e3e565b60405180910390a25050505050565b6003602052816000526040600020818154811061341257600080fd5b90600052602060002001600091509150505481565b600082815260076020526040808220548151635d3e2fa160e01b815291516001600160a01b039091169183918391635d3e2fa1916004808301926101409291908290030181865afa158015613480573d6000803e3d6000fd5b505050506040513d601f19601f820116820180604052508101906134a49190614a3c565b60a08101516001600160a01b0390811660009081526006602052604080822054905163a52f38d160e01b8152600481018a9052939450909291169063a52f38d190602401602060405180830381865afa158015613505573d6000803e3d6000fd5b505050506040513d601f19601f820116820180604052508101906135299190614af1565b9050808510613540576201869f9350505050610b27565b6001600160a01b038316634d2c872a6135598784614e98565b6040517fffffffff0000000000000000000000000000000000000000000000000000000060e084901b168152600481019190915260006024820152604401610c62565b60048054604051632e7d32b360e21b81526001600160a01b038085169382019390935283929091169063b9f4cacc90602401602060405180830381865afa1580156135eb573d6000803e3d6000fd5b505050506040513d601f19601f8201168201806040525081019061360f9190614cf2565b604080518082019091526001808252600d60fa1b6020830152909115151461364a5760405162461bcd60e51b815260040161061991906149cc565b50600280546040805180820190915291825261323160f01b6020830152600160a01b900460ff161561368f5760405162461bcd60e51b815260040161061991906149cc565b50600084815260076020526040808220548151635d3e2fa160e01b815291516001600160a01b0390911692918391635d3e2fa191600480820192610140929091908290030181865afa1580156136e9573d6000803e3d6000fd5b505050506040513d601f19601f8201168201806040525081019061370d9190614a3c565b6040516323b872dd60e01b8152336004820152306024820152604481018790529091506001600160a01b038516906323b872dd906064016020604051808303816000875af1158015613763573d6000803e3d6000fd5b505050506040513d601f19601f820116820180604052508101906137879190614cf2565b5060405163095ea7b360e01b81526001600160a01b0383811660048301526024820187905285169063095ea7b3906044016020604051808303816000875af11580156137d7573d6000803e3d6000fd5b505050506040513d601f19601f820116820180604052508101906137fb9190614cf2565b50604051633390ef1360e11b8152600481018690526001600160a01b03831690636721de2690602401600060405180830381600087803b15801561383e57600080fd5b505af1158015613852573d6000803e3d6000fd5b50505050816001600160a01b0316631c783def6040518163ffffffff1660e01b8152600401602060405180830381865afa158015613894573d6000803e3d6000fd5b505050506040513d601f19601f820116820180604052508101906138b89190614cf2565b151560010361391557816001600160a01b03166307a6bf696040518163ffffffff1660e01b8152600401600060405180830381600087803b1580156138fc57600080fd5b505af1158015613910573d6000803e3d6000fd5b505050505b336001600160a01b03167f1eca31fb2ce6705f5189c62ad48bed71967f6c92145095aae3af074eb572536c82878760006040516139559493929190614e3e565b60405180910390a2505050505050565b6002546040805180820190915260018152601960f91b6020820152906001600160a01b031633146139a95760405162461bcd60e51b815260040161061991906149cc565b5060005b82518110156127a9578181815181106139c8576139c8614c93565b60200260200101516000808584815181106139e5576139e5614c93565b6020908102919091018101516001600160a01b03168252810191909152604001600020805460ff19169115159190911790556001016139ad565b6001600160a01b038088166000908152600660209081526040918290205482517f3b24cc2100000000000000000000000000000000000000000000000000000000815292518c949190911692633b24cc219260048083019391928290030181865afa158015613a92573d6000803e3d6000fd5b505050506040513d601f19601f82011682018060405250810190613ab69190614af1565b10156040518060400160405280600181526020017f380000000000000000000000000000000000000000000000000000000000000081525090613b0c5760405162461bcd60e51b815260040161061991906149cc565b50604080516101408101825260009181018290526080810182905260c081018290526101208101829052336060820152602081018a905260015481526001600160a01b0389811660a083015285151560e08301526001600160a01b03198516610100830152600554919288929091613b8491166142dc565b6004805460408051631cea46b760e31b81528151949550859460009485946001600160a01b03169363e75235b893808301939192908290030181865afa158015613bd2573d6000803e3d6000fd5b505050506040513d601f19601f82011682018060405250810190613bf69190614b0a565b600480546040517f31409fe10000000000000000000000000000000000000000000000000000000081529395509193506001600160a01b03808716936331409fe193613c49938c938c9392169101614eab565b600060405180830381600087803b158015613c6357600080fd5b505af1158015613c77573d6000803e3d6000fd5b50506040517f94990c2f0000000000000000000000000000000000000000000000000000000081523060048201526001600160a01b03861694506394990c2f93506024019150613cc49050565b600060405180830381600087803b158015613cde57600080fd5b505af1158015613cf2573d6000803e3d6000fd5b5050600480546040517f365bef000000000000000000000000000000000000000000000000000000000081526001600160a01b03888116938201939093528f83166024820152600094509116915063365bef0090604401602060405180830381865afa158015613d66573d6000803e3d6000fd5b505050506040513d601f19601f82011682018060405250810190613d8a9190614edd565b6040517f805a288f00000000000000000000000000000000000000000000000000000000815262ffffff821660048201529091506001600160a01b0383169063805a288f90602401600060405180830381600087803b158015613dec57600080fd5b505af1158015613e00573d6000803e3d6000fd5b505050508515156000039050613f5b576040516323b872dd60e01b8152336004820152306024820152604481018b90526001600160a01b038a16906323b872dd906064016020604051808303816000875af1158015613e63573d6000803e3d6000fd5b505050506040513d601f19601f82011682018060405250810190613e879190614cf2565b5060405163095ea7b360e01b81526001600160a01b038381166004830152602482018c90528a169063095ea7b3906044016020604051808303816000875af1158015613ed7573d6000803e3d6000fd5b505050506040513d601f19601f82011682018060405250810190613efb9190614cf2565b50604051633390ef1360e11b8152600481018b90526001600160a01b03821690636721de2690602401600060405180830381600087803b158015613f3e57600080fd5b505af1158015613f52573d6000803e3d6000fd5b505050506140a8565b6000600460009054906101000a90046001600160a01b03166001600160a01b031663cae5f11e6040518163ffffffff1660e01b8152600401602060405180830381865afa158015613fb0573d6000803e3d6000fd5b505050506040513d601f19601f82011682018060405250810190613fd49190614d3e565b60405163095ea7b360e01b81526001600160a01b038581166004830152602482018e90529192509082169063095ea7b3906044016020604051808303816000875af1158015614027573d6000803e3d6000fd5b505050506040513d601f19601f8201168201806040525081019061404b9190614cf2565b50604051633390ef1360e11b8152600481018c90526001600160a01b03831690636721de2690602401600060405180830381600087803b15801561408e57600080fd5b505af11580156140a2573d6000803e3d6000fd5b50505050505b87151560010361410657806001600160a01b03166307a6bf696040518163ffffffff1660e01b8152600401600060405180830381600087803b1580156140ed57600080fd5b505af1158015614101573d6000803e3d6000fd5b505050505b60018054600090815260076020908152604080832080546001600160a01b038781166001600160a01b03199283161790925533855260038452828520865481549788018255908652848620909601959095558f8116845260068352928190205488519289015160608a015160e08b01516101008c015194517f0983ed8200000000000000000000000000000000000000000000000000000000815260048101969096526024860192909252851660448501521515606484015293166084820152911690630983ed829060a401600060405180830381600087803b1580156141ec57600080fd5b505af1158015614200573d6000803e3d6000fd5b5050600154600090815260076020526040908190205490513393507ffec7c88f86a78e00bdaf7a55087c3cd9e8440f7d8460c76443bba1d09487a349925061425c916001600160a01b03169088908f908f908f908d1590614f02565b60405180910390a2604080516001600160a01b031988168152602081018e90526001600160a01b038d1681830152905133917ffe6472ac9a4e7aedb8593096a1089d9ebaa34e286349c4d3deb234a6bda39e49919081900360600190a2600180549060006142c983614f50565b9190505550505050505050505050505050565b6000763d602d80600a3d3981f3363d3d373d3d3d363d730000008260601b60e81c176000526e5af43d82803e903d91602b57fd5bf38260781b17602052603760096000f090506001600160a01b038116614362576040517fc2f868f400000000000000000000000000000000000000000000000000000000815260040160405180910390fd5b919050565b6001600160a01b038116811461437c57600080fd5b50565b60006020828403121561439157600080fd5b813561439c81614367565b9392505050565b801515811461437c57600080fd5b6000602082840312156143c357600080fd5b813561439c816143a3565b6000602082840312156143e057600080fd5b5035919050565b6000806000606084860312156143fc57600080fd5b83359250602084013561440e81614367565b9150604084013561441e81614367565b809150509250925092565b634e487b7160e01b600052604160045260246000fd5b604051610140810167ffffffffffffffff8111828210171561446357614463614429565b60405290565b604051601f8201601f1916810167ffffffffffffffff8111828210171561449257614492614429565b604052919050565b600067ffffffffffffffff8211156144b4576144b4614429565b5060051b60200190565b600082601f8301126144cf57600080fd5b813560206144e46144df8361449a565b614469565b8083825260208201915060208460051b87010193508684111561450657600080fd5b602086015b8481101561452b57803561451e81614367565b835291830191830161450b565b509695505050505050565b6000806040838503121561454957600080fd5b823567ffffffffffffffff81111561456057600080fd5b61456c858286016144be565b925050602083013561457d81614367565b809150509250929050565b6000806040838503121561459b57600080fd5b50508035926020909101359150565b600080600080608085870312156145c057600080fd5b843567ffffffffffffffff808211156145d857600080fd5b6145e4888389016144be565b955060208701359150808211156145fa57600080fd5b50614607878288016144be565b935050604085013561461881614367565b9150606085013561462881614367565b939692955090935050565b6001600160a01b03198116811461437c57600080fd5b60008060008060008060c0878903121561466257600080fd5b86359550602087013561467481614367565b945060408701359350606087013561468b816143a3565b9250608087013561469b816143a3565b915060a08701356146ab81614633565b809150509295509295509295565b600080604083850312156146cc57600080fd5b82359150602083013561457d816143a3565b6020808252825182820181905260009190848201906040850190845b81811015614716578351835292840192918401916001016146fa565b50909695505050505050565b60008060006060848603121561473757600080fd5b8335925060208401359150604084013561441e81614367565b6000806040838503121561476357600080fd5b823567ffffffffffffffff8082111561477b57600080fd5b614787868387016144be565b9350602085013591508082111561479d57600080fd5b506147aa858286016144be565b9150509250929050565b600080600080600080600060e0888a0312156147cf57600080fd5b8735965060208801356147e181614367565b95506040880135945060608801356147f881614367565b93506080880135614808816143a3565b925060a0880135614818816143a3565b915060c088013561482881614633565b8091505092959891949750929550565b6000806000806080858703121561484e57600080fd5b843561485981614367565b935060208501359250604085013561487081614367565b9396929550929360600135925050565b6000806040838503121561489357600080fd5b823561489e81614367565b946020939093013593505050565b600082601f8301126148bd57600080fd5b813560206148cd6144df8361449a565b8083825260208201915060208460051b8701019350868411156148ef57600080fd5b602086015b8481101561452b578035614907816143a3565b83529183019183016148f4565b6000806040838503121561492757600080fd5b823567ffffffffffffffff8082111561493f57600080fd5b818501915085601f83011261495357600080fd5b813560206149636144df8361449a565b82815260059290921b8401810191818101908984111561498257600080fd5b948201945b838610156149a957853561499a81614367565b82529482019490820190614987565b965050860135925050808211156149bf57600080fd5b506147aa858286016148ac565b60006020808352835180602085015260005b818110156149fa578581018301518582016040015282016149de565b506000604082860101526040601f19601f8301168501019250505092915050565b8051614362816143a3565b805161436281614367565b805161436281614633565b60006101408284031215614a4f57600080fd5b614a5761443f565b8251815260208301516020820152614a7160408401614a1b565b6040820152614a8260608401614a26565b6060820152614a9360808401614a1b565b6080820152614aa460a08401614a26565b60a0820152614ab560c08401614a1b565b60c0820152614ac660e08401614a1b565b60e0820152610100614ad9818501614a31565b90820152610120928301519281019290925250919050565b600060208284031215614b0357600080fd5b5051919050565b60008060408385031215614b1d57600080fd5b505080516020909101519092909150565b600060208284031215614b4057600080fd5b815160ff8116811461439c57600080fd5b634e487b7160e01b600052601160045260246000fd5b600181815b80851115614ba2578160001904821115614b8857614b88614b51565b80851615614b9557918102915b93841c9390800290614b6c565b509250929050565b600082614bb957506001610b27565b81614bc657506000610b27565b8160018114614bdc5760028114614be657614c02565b6001915050610b27565b60ff841115614bf757614bf7614b51565b50506001821b610b27565b5060208310610133831016604e8410600b8410161715614c25575081810a610b27565b614c2f8383614b67565b8060001904821115614c4357614c43614b51565b029392505050565b600061439c60ff841683614baa565b8082028115828204841417610b2757610b27614b51565b600082614c8e57634e487b7160e01b600052601260045260246000fd5b500490565b634e487b7160e01b600052603260045260246000fd5b60008060008060808587031215614cbf57600080fd5b505082516020840151604085015160609095015191969095509092509050565b80820180821115610b2757610b27614b51565b600060208284031215614d0457600080fd5b815161439c816143a3565b60008060408385031215614d2257600080fd5b8251614d2d81614367565b602084015190925061457d81614367565b600060208284031215614d5057600080fd5b815161439c81614367565b80518252602081015160208301526040810151614d7c604084018215159052565b506060810151614d9760608401826001600160a01b03169052565b506080810151614dab608084018215159052565b5060a0810151614dc660a08401826001600160a01b03169052565b5060c0810151614dda60c084018215159052565b5060e0810151614dee60e084018215159052565b50610100818101516001600160a01b0319169083015261012090810151910152565b6101808101614e1f8286614d5b565b836101408301526001600160a01b038316610160830152949350505050565b6101a08101614e4d8287614d5b565b846101408301526001600160a01b03841661016083015282151561018083015295945050505050565b6101808101614e858286614d5b565b6101408201939093526101600152919050565b81810381811115610b2757610b27614b51565b6101808101614eba8286614d5b565b6001600160a01b0380851661014084015280841661016084015250949350505050565b600060208284031215614eef57600080fd5b815162ffffff8116811461439c57600080fd5b6001600160a01b0387811682526101e0820190614f226020840189614d5b565b86610160840152808616610180840152508315156101a08301528215156101c0830152979650505050505050565b600060018201614f6257614f62614b51565b506001019056fea26469706673582212207b84591cfba49aff8cedbf8176b6363f382336719cfb366caaa1564310a4df9764736f6c63430008180033",
  "linkReferences": {},
  "deployedLinkReferences": {}
}